{
  "contractName": "BootyChest",
  "abi": [
    {
      "anonymous": false,
      "inputs": [
        {
          "indexed": false,
          "internalType": "uint16",
          "name": "tokenId",
          "type": "uint16"
        },
        {
          "indexed": false,
          "internalType": "uint256",
          "name": "percentageBurned",
          "type": "uint256"
        },
        {
          "indexed": false,
          "internalType": "uint256",
          "name": "amountBurned",
          "type": "uint256"
        },
        {
          "indexed": false,
          "internalType": "uint256",
          "name": "earned",
          "type": "uint256"
        }
      ],
      "name": "BootyBurned",
      "type": "event"
    },
    {
      "anonymous": false,
      "inputs": [
        {
          "indexed": false,
          "internalType": "uint16",
          "name": "tokenId",
          "type": "uint16"
        },
        {
          "indexed": false,
          "internalType": "uint256",
          "name": "earned",
          "type": "uint256"
        },
        {
          "indexed": false,
          "internalType": "bool",
          "name": "unstaked",
          "type": "bool"
        }
      ],
      "name": "BountyHunterClaimed",
      "type": "event"
    },
    {
      "anonymous": false,
      "inputs": [
        {
          "indexed": false,
          "internalType": "string",
          "name": "msg",
          "type": "string"
        },
        {
          "indexed": false,
          "internalType": "address",
          "name": "add",
          "type": "address"
        },
        {
          "indexed": false,
          "internalType": "uint256",
          "name": "amt",
          "type": "uint256"
        }
      ],
      "name": "Console",
      "type": "event"
    },
    {
      "anonymous": false,
      "inputs": [
        {
          "indexed": true,
          "internalType": "address",
          "name": "previousOwner",
          "type": "address"
        },
        {
          "indexed": true,
          "internalType": "address",
          "name": "newOwner",
          "type": "address"
        }
      ],
      "name": "OwnershipTransferred",
      "type": "event"
    },
    {
      "anonymous": false,
      "inputs": [
        {
          "indexed": false,
          "internalType": "uint16",
          "name": "tokenId",
          "type": "uint16"
        },
        {
          "indexed": false,
          "internalType": "uint256",
          "name": "earned",
          "type": "uint256"
        },
        {
          "indexed": false,
          "internalType": "bool",
          "name": "unstaked",
          "type": "bool"
        }
      ],
      "name": "PirateClaimed",
      "type": "event"
    },
    {
      "anonymous": false,
      "inputs": [
        {
          "indexed": false,
          "internalType": "address",
          "name": "owner",
          "type": "address"
        },
        {
          "indexed": false,
          "internalType": "uint16",
          "name": "tokenId",
          "type": "uint16"
        },
        {
          "indexed": false,
          "internalType": "uint256",
          "name": "value",
          "type": "uint256"
        }
      ],
      "name": "TokenStaked",
      "type": "event"
    },
    {
      "inputs": [],
      "name": "DAILY_HUNTER_BOOTY_RATE",
      "outputs": [
        {
          "internalType": "uint256",
          "name": "",
          "type": "uint256"
        }
      ],
      "stateMutability": "view",
      "type": "function"
    },
    {
      "inputs": [],
      "name": "DAILY_PIRATE_BOOTY_RATE",
      "outputs": [
        {
          "internalType": "uint256",
          "name": "",
          "type": "uint256"
        }
      ],
      "stateMutability": "view",
      "type": "function"
    },
    {
      "inputs": [],
      "name": "MAXIMUM_GLOBAL_BOOTY",
      "outputs": [
        {
          "internalType": "uint256",
          "name": "",
          "type": "uint256"
        }
      ],
      "stateMutability": "view",
      "type": "function"
    },
    {
      "inputs": [],
      "name": "MINIMUM_BOUNTY_HUNTER_BOOTY_TO_CLAIM",
      "outputs": [
        {
          "internalType": "uint256",
          "name": "",
          "type": "uint256"
        }
      ],
      "stateMutability": "view",
      "type": "function"
    },
    {
      "inputs": [],
      "name": "MINIMUM_PIRATE_BOOTY_TO_CLAIM",
      "outputs": [
        {
          "internalType": "uint256",
          "name": "",
          "type": "uint256"
        }
      ],
      "stateMutability": "view",
      "type": "function"
    },
    {
      "inputs": [],
      "name": "PERCENTAGE_OF_ROBBED_BURN_BOUNTY_HUNTER",
      "outputs": [
        {
          "internalType": "uint256",
          "name": "",
          "type": "uint256"
        }
      ],
      "stateMutability": "view",
      "type": "function"
    },
    {
      "inputs": [],
      "name": "PERCENTAGE_OF_ROBBED_BURN_PIRATE",
      "outputs": [
        {
          "internalType": "uint256",
          "name": "",
          "type": "uint256"
        }
      ],
      "stateMutability": "view",
      "type": "function"
    },
    {
      "inputs": [],
      "name": "PERCENTAGE_TO_BE_ROBBED_FROM_BOUNTY_HUNTER",
      "outputs": [
        {
          "internalType": "uint256",
          "name": "",
          "type": "uint256"
        }
      ],
      "stateMutability": "view",
      "type": "function"
    },
    {
      "inputs": [],
      "name": "PERCENTAGE_TO_BE_ROBBED_FROM_PIRATE",
      "outputs": [
        {
          "internalType": "uint256",
          "name": "",
          "type": "uint256"
        }
      ],
      "stateMutability": "view",
      "type": "function"
    },
    {
      "inputs": [],
      "name": "RANK_A",
      "outputs": [
        {
          "internalType": "uint8",
          "name": "",
          "type": "uint8"
        }
      ],
      "stateMutability": "view",
      "type": "function"
    },
    {
      "inputs": [],
      "name": "RANK_B",
      "outputs": [
        {
          "internalType": "uint8",
          "name": "",
          "type": "uint8"
        }
      ],
      "stateMutability": "view",
      "type": "function"
    },
    {
      "inputs": [],
      "name": "RANK_C",
      "outputs": [
        {
          "internalType": "uint8",
          "name": "",
          "type": "uint8"
        }
      ],
      "stateMutability": "view",
      "type": "function"
    },
    {
      "inputs": [],
      "name": "TAX_PERCENTAGE_BOUNTY_HUNTER",
      "outputs": [
        {
          "internalType": "uint256",
          "name": "",
          "type": "uint256"
        }
      ],
      "stateMutability": "view",
      "type": "function"
    },
    {
      "inputs": [],
      "name": "TAX_PERCENTAGE_PIRATE",
      "outputs": [
        {
          "internalType": "uint256",
          "name": "",
          "type": "uint256"
        }
      ],
      "stateMutability": "view",
      "type": "function"
    },
    {
      "inputs": [],
      "name": "TAX_THRESHOLD",
      "outputs": [
        {
          "internalType": "uint256",
          "name": "",
          "type": "uint256"
        }
      ],
      "stateMutability": "view",
      "type": "function"
    },
    {
      "inputs": [],
      "name": "booty",
      "outputs": [
        {
          "internalType": "contract IBooty",
          "name": "",
          "type": "address"
        }
      ],
      "stateMutability": "view",
      "type": "function"
    },
    {
      "inputs": [
        {
          "internalType": "uint256",
          "name": "",
          "type": "uint256"
        }
      ],
      "name": "bountyHunterIndices",
      "outputs": [
        {
          "internalType": "uint256",
          "name": "",
          "type": "uint256"
        }
      ],
      "stateMutability": "view",
      "type": "function"
    },
    {
      "inputs": [],
      "name": "bountyHunterReward",
      "outputs": [
        {
          "internalType": "uint256",
          "name": "",
          "type": "uint256"
        }
      ],
      "stateMutability": "view",
      "type": "function"
    },
    {
      "inputs": [
        {
          "internalType": "address",
          "name": "",
          "type": "address"
        },
        {
          "internalType": "uint256",
          "name": "",
          "type": "uint256"
        }
      ],
      "name": "bountyHunterStake",
      "outputs": [
        {
          "internalType": "uint16",
          "name": "tokenId",
          "type": "uint16"
        },
        {
          "internalType": "uint256",
          "name": "value",
          "type": "uint256"
        },
        {
          "internalType": "uint256",
          "name": "xtraReward",
          "type": "uint256"
        },
        {
          "internalType": "uint256",
          "name": "storedReward",
          "type": "uint256"
        },
        {
          "internalType": "address",
          "name": "owner",
          "type": "address"
        },
        {
          "internalType": "uint8",
          "name": "rank",
          "type": "uint8"
        }
      ],
      "stateMutability": "view",
      "type": "function"
    },
    {
      "inputs": [],
      "name": "lastClaimTimestamp",
      "outputs": [
        {
          "internalType": "uint256",
          "name": "",
          "type": "uint256"
        }
      ],
      "stateMutability": "view",
      "type": "function"
    },
    {
      "inputs": [],
      "name": "owner",
      "outputs": [
        {
          "internalType": "address",
          "name": "",
          "type": "address"
        }
      ],
      "stateMutability": "view",
      "type": "function"
    },
    {
      "inputs": [
        {
          "internalType": "uint256",
          "name": "",
          "type": "uint256"
        }
      ],
      "name": "pirateHolders",
      "outputs": [
        {
          "internalType": "address",
          "name": "",
          "type": "address"
        }
      ],
      "stateMutability": "view",
      "type": "function"
    },
    {
      "inputs": [],
      "name": "pirateHunters",
      "outputs": [
        {
          "internalType": "contract IPirateHunters",
          "name": "",
          "type": "address"
        }
      ],
      "stateMutability": "view",
      "type": "function"
    },
    {
      "inputs": [
        {
          "internalType": "uint256",
          "name": "",
          "type": "uint256"
        }
      ],
      "name": "pirateIndices",
      "outputs": [
        {
          "internalType": "uint256",
          "name": "",
          "type": "uint256"
        }
      ],
      "stateMutability": "view",
      "type": "function"
    },
    {
      "inputs": [],
      "name": "pirateReward_A",
      "outputs": [
        {
          "internalType": "uint256",
          "name": "",
          "type": "uint256"
        }
      ],
      "stateMutability": "view",
      "type": "function"
    },
    {
      "inputs": [],
      "name": "pirateReward_B",
      "outputs": [
        {
          "internalType": "uint256",
          "name": "",
          "type": "uint256"
        }
      ],
      "stateMutability": "view",
      "type": "function"
    },
    {
      "inputs": [],
      "name": "pirateReward_C",
      "outputs": [
        {
          "internalType": "uint256",
          "name": "",
          "type": "uint256"
        }
      ],
      "stateMutability": "view",
      "type": "function"
    },
    {
      "inputs": [
        {
          "internalType": "address",
          "name": "",
          "type": "address"
        },
        {
          "internalType": "uint256",
          "name": "",
          "type": "uint256"
        }
      ],
      "name": "pirateStake",
      "outputs": [
        {
          "internalType": "uint16",
          "name": "tokenId",
          "type": "uint16"
        },
        {
          "internalType": "uint256",
          "name": "value",
          "type": "uint256"
        },
        {
          "internalType": "uint256",
          "name": "xtraReward",
          "type": "uint256"
        },
        {
          "internalType": "uint256",
          "name": "storedReward",
          "type": "uint256"
        },
        {
          "internalType": "address",
          "name": "owner",
          "type": "address"
        },
        {
          "internalType": "uint8",
          "name": "rank",
          "type": "uint8"
        }
      ],
      "stateMutability": "view",
      "type": "function"
    },
    {
      "inputs": [],
      "name": "renounceOwnership",
      "outputs": [],
      "stateMutability": "nonpayable",
      "type": "function"
    },
    {
      "inputs": [],
      "name": "rescueEnabled",
      "outputs": [
        {
          "internalType": "bool",
          "name": "",
          "type": "bool"
        }
      ],
      "stateMutability": "view",
      "type": "function"
    },
    {
      "inputs": [],
      "name": "shop",
      "outputs": [
        {
          "internalType": "contract IShop",
          "name": "",
          "type": "address"
        }
      ],
      "stateMutability": "view",
      "type": "function"
    },
    {
      "inputs": [],
      "name": "totalBootyEarned",
      "outputs": [
        {
          "internalType": "uint256",
          "name": "",
          "type": "uint256"
        }
      ],
      "stateMutability": "view",
      "type": "function"
    },
    {
      "inputs": [],
      "name": "totalBountyHunterStaked",
      "outputs": [
        {
          "internalType": "uint256",
          "name": "",
          "type": "uint256"
        }
      ],
      "stateMutability": "view",
      "type": "function"
    },
    {
      "inputs": [],
      "name": "totalPirateRank_A",
      "outputs": [
        {
          "internalType": "uint256",
          "name": "",
          "type": "uint256"
        }
      ],
      "stateMutability": "view",
      "type": "function"
    },
    {
      "inputs": [],
      "name": "totalPirateRank_B",
      "outputs": [
        {
          "internalType": "uint256",
          "name": "",
          "type": "uint256"
        }
      ],
      "stateMutability": "view",
      "type": "function"
    },
    {
      "inputs": [],
      "name": "totalPirateRank_C",
      "outputs": [
        {
          "internalType": "uint256",
          "name": "",
          "type": "uint256"
        }
      ],
      "stateMutability": "view",
      "type": "function"
    },
    {
      "inputs": [],
      "name": "totalPirateStaked",
      "outputs": [
        {
          "internalType": "uint256",
          "name": "",
          "type": "uint256"
        }
      ],
      "stateMutability": "view",
      "type": "function"
    },
    {
      "inputs": [
        {
          "internalType": "address",
          "name": "newOwner",
          "type": "address"
        }
      ],
      "name": "transferOwnership",
      "outputs": [],
      "stateMutability": "nonpayable",
      "type": "function"
    },
    {
      "inputs": [],
      "name": "unaccountedBountyHuntersRewards",
      "outputs": [
        {
          "internalType": "uint256",
          "name": "",
          "type": "uint256"
        }
      ],
      "stateMutability": "view",
      "type": "function"
    },
    {
      "inputs": [],
      "name": "unaccountedPirateRewards",
      "outputs": [
        {
          "internalType": "uint256",
          "name": "",
          "type": "uint256"
        }
      ],
      "stateMutability": "view",
      "type": "function"
    },
    {
      "inputs": [],
      "name": "utils",
      "outputs": [
        {
          "internalType": "contract IUtils",
          "name": "",
          "type": "address"
        }
      ],
      "stateMutability": "view",
      "type": "function"
    },
    {
      "inputs": [],
      "name": "paused",
      "outputs": [
        {
          "internalType": "bool",
          "name": "",
          "type": "bool"
        }
      ],
      "stateMutability": "view",
      "type": "function"
    },
    {
      "inputs": [
        {
          "internalType": "address",
          "name": "_pirateHunters",
          "type": "address"
        },
        {
          "internalType": "address",
          "name": "_booty",
          "type": "address"
        },
        {
          "internalType": "address",
          "name": "_shop",
          "type": "address"
        },
        {
          "internalType": "address",
          "name": "_utils",
          "type": "address"
        }
      ],
      "name": "setContracts",
      "outputs": [],
      "stateMutability": "nonpayable",
      "type": "function"
    },
    {
      "inputs": [
        {
          "internalType": "address",
          "name": "user",
          "type": "address"
        }
      ],
      "name": "getAccountBountyHunters",
      "outputs": [
        {
          "components": [
            {
              "internalType": "uint16",
              "name": "tokenId",
              "type": "uint16"
            },
            {
              "internalType": "uint256",
              "name": "value",
              "type": "uint256"
            },
            {
              "internalType": "uint256",
              "name": "xtraReward",
              "type": "uint256"
            },
            {
              "internalType": "uint256",
              "name": "storedReward",
              "type": "uint256"
            },
            {
              "internalType": "address",
              "name": "owner",
              "type": "address"
            },
            {
              "internalType": "uint8",
              "name": "rank",
              "type": "uint8"
            }
          ],
          "internalType": "struct BootyChest.Stake[]",
          "name": "",
          "type": "tuple[]"
        }
      ],
      "stateMutability": "view",
      "type": "function"
    },
    {
      "inputs": [
        {
          "internalType": "address",
          "name": "user",
          "type": "address"
        }
      ],
      "name": "getAccountPirates",
      "outputs": [
        {
          "components": [
            {
              "internalType": "uint16",
              "name": "tokenId",
              "type": "uint16"
            },
            {
              "internalType": "uint256",
              "name": "value",
              "type": "uint256"
            },
            {
              "internalType": "uint256",
              "name": "xtraReward",
              "type": "uint256"
            },
            {
              "internalType": "uint256",
              "name": "storedReward",
              "type": "uint256"
            },
            {
              "internalType": "address",
              "name": "owner",
              "type": "address"
            },
            {
              "internalType": "uint8",
              "name": "rank",
              "type": "uint8"
            }
          ],
          "internalType": "struct BootyChest.Stake[]",
          "name": "",
          "type": "tuple[]"
        }
      ],
      "stateMutability": "view",
      "type": "function"
    },
    {
      "inputs": [
        {
          "internalType": "address",
          "name": "account",
          "type": "address"
        },
        {
          "internalType": "uint16[]",
          "name": "tokenIds",
          "type": "uint16[]"
        }
      ],
      "name": "addTokensToStake",
      "outputs": [],
      "stateMutability": "nonpayable",
      "type": "function"
    },
    {
      "inputs": [
        {
          "internalType": "uint16[]",
          "name": "tokenIds",
          "type": "uint16[]"
        },
        {
          "internalType": "bool",
          "name": "unstake",
          "type": "bool"
        }
      ],
      "name": "claimFromStake",
      "outputs": [],
      "stateMutability": "nonpayable",
      "type": "function"
    },
    {
      "inputs": [
        {
          "internalType": "uint16",
          "name": "tokenId",
          "type": "uint16"
        }
      ],
      "name": "possibleClaimForToken",
      "outputs": [
        {
          "internalType": "uint256",
          "name": "",
          "type": "uint256"
        }
      ],
      "stateMutability": "view",
      "type": "function"
    },
    {
      "inputs": [
        {
          "internalType": "bool",
          "name": "_state",
          "type": "bool"
        }
      ],
      "name": "setPaused",
      "outputs": [],
      "stateMutability": "nonpayable",
      "type": "function"
    },
    {
      "inputs": [
        {
          "internalType": "uint16",
          "name": "tokenId",
          "type": "uint16"
        },
        {
          "internalType": "address",
          "name": "owner",
          "type": "address"
        }
      ],
      "name": "isOwnerOf",
      "outputs": [
        {
          "internalType": "bool",
          "name": "",
          "type": "bool"
        }
      ],
      "stateMutability": "view",
      "type": "function"
    },
    {
      "inputs": [
        {
          "internalType": "uint256",
          "name": "tokenId",
          "type": "uint256"
        },
        {
          "internalType": "uint256",
          "name": "newRank",
          "type": "uint256"
        }
      ],
      "name": "effectRankUp",
      "outputs": [],
      "stateMutability": "nonpayable",
      "type": "function"
    },
    {
      "inputs": [
        {
          "internalType": "address",
          "name": "",
          "type": "address"
        },
        {
          "internalType": "address",
          "name": "from",
          "type": "address"
        },
        {
          "internalType": "uint256",
          "name": "",
          "type": "uint256"
        },
        {
          "internalType": "bytes",
          "name": "",
          "type": "bytes"
        }
      ],
      "name": "onERC721Received",
      "outputs": [
        {
          "internalType": "bytes4",
          "name": "",
          "type": "bytes4"
        }
      ],
      "stateMutability": "pure",
      "type": "function"
    }
  ],
  "bytecode": "0x608060405260008060146101000a81548160ff0219169083151502179055506000600b556000600e556000600f5560006010556000601155600060125560006013556000601455600060155560006016556000601760006101000a81548160ff0219169083151502179055503480156200007857600080fd5b50620000996200008d6200009f60201b60201c565b620000a760201b60201c565b6200016b565b600033905090565b60008060009054906101000a900473ffffffffffffffffffffffffffffffffffffffff169050816000806101000a81548173ffffffffffffffffffffffffffffffffffffffff021916908373ffffffffffffffffffffffffffffffffffffffff1602179055508173ffffffffffffffffffffffffffffffffffffffff168173ffffffffffffffffffffffffffffffffffffffff167f8be0079c531659141344cd1fd0a4f28419497f9722a3daafe3b4186f6b6457e060405160405180910390a35050565b615fae806200017b6000396000f3fe608060405234801561001057600080fd5b506004361061030a5760003560e01c80635c975abb1161019d5780639f0a21b6116100e9578063c59e36ba116100a2578063d9e136691161007c578063d9e136691461093f578063e21f4cbe1461096f578063e50a8dbe1461098b578063f2fde38b146109a95761030a565b8063c59e36ba146108e7578063c66f88ff14610905578063d438cac4146109215761030a565b80639f0a21b614610835578063a2a1fb7814610853578063a8eb9bbc14610871578063aaf05a611461088f578063b1226e3e146108ad578063bf989b6e146108cb5761030a565b80637d7a42d2116101565780638da5cb5b116101305780638da5cb5b146107a65780638e038f6a146107c45780638edf658b146107f9578063971e525a146108175761030a565b80637d7a42d21461074c57806381c94ebb1461076a578063824bca3e146107885761030a565b80635c975abb14610683578063607af397146106a157806360ef61c5146106bf578063715018a6146106dd57806372827bf7146106e75780637cce6bbb146107175761030a565b80632b13a2481161025c5780633ca2da85116102155780634bcda684116101ef5780634bcda684146105e75780634e34b91b146106055780635a29638d146106355780635c528f0c146106535761030a565b80633ca2da851461058d5780633cd90c3c146105ab5780633ebc2180146105c95761030a565b80632b13a248146104c95780632d83355e146104e55780632e4a4c9d14610515578063372906fd1461053357806339db714f146105515780633abd87fb1461056f5761030a565b806313c43d7a116102c95780632286a86f116102a35780632286a86f146104515780632404c2a01461046f578063293abe301461048d5780632ab800ed146104ab5761030a565b806313c43d7a146103e7578063150b7a021461040557806316c38b3c146104355761030a565b8062b12eee1461030f578062b818f61461032d5780630378bdf61461035d5780630881fa0d1461037b5780630bdc889f1461039957806311131d6d146103c9575b600080fd5b6103176109c5565b6040516103249190614a9e565b60405180910390f35b61034760048036038101906103429190614aef565b6109cb565b6040516103549190614a9e565b60405180910390f35b6103656109e3565b6040516103729190614b38565b60405180910390f35b6103836109e8565b6040516103909190614bd2565b60405180910390f35b6103b360048036038101906103ae9190614c27565b610a0e565b6040516103c09190614a9e565b60405180910390f35b6103d1610d40565b6040516103de9190614c75565b60405180910390f35b6103ef610d66565b6040516103fc9190614a9e565b60405180910390f35b61041f600480360381019061041a9190614d33565b610d6c565b60405161042c9190614df6565b60405180910390f35b61044f600480360381019061044a9190614e49565b610def565b005b610459610e88565b6040516104669190614a9e565b60405180910390f35b610477610e8e565b6040516104849190614b38565b60405180910390f35b610495610e93565b6040516104a29190614a9e565b60405180910390f35b6104b3610e98565b6040516104c09190614b38565b60405180910390f35b6104e360048036038101906104de9190614e76565b610e9d565b005b6104ff60048036038101906104fa9190614aef565b611409565b60405161050c9190614ec5565b60405180910390f35b61051d611448565b60405161052a9190614a9e565b60405180910390f35b61053b61144d565b6040516105489190614a9e565b60405180910390f35b610559611453565b6040516105669190614eef565b60405180910390f35b610577611466565b6040516105849190614a9e565b60405180910390f35b61059561146b565b6040516105a29190614a9e565b60405180910390f35b6105b3611479565b6040516105c09190614a9e565b60405180910390f35b6105d161147f565b6040516105de9190614a9e565b60405180910390f35b6105ef61148f565b6040516105fc9190614f2b565b60405180910390f35b61061f600480360381019061061a9190614f46565b6114b5565b60405161062c91906150d9565b60405180910390f35b61063d611604565b60405161064a919061511c565b60405180910390f35b61066d60048036038101906106689190614f46565b61162a565b60405161067a91906150d9565b60405180910390f35b61068b611779565b6040516106989190614eef565b60405180910390f35b6106a961178f565b6040516106b69190614a9e565b60405180910390f35b6106c7611795565b6040516106d49190614a9e565b60405180910390f35b6106e561179b565b005b61070160048036038101906106fc9190614aef565b611823565b60405161070e9190614a9e565b60405180910390f35b610731600480360381019061072c9190615137565b61183b565b60405161074396959493929190615186565b60405180910390f35b6107546118cf565b6040516107619190614a9e565b60405180910390f35b6107726118d5565b60405161077f9190614a9e565b60405180910390f35b6107906118db565b60405161079d9190614a9e565b60405180910390f35b6107ae6118e1565b6040516107bb9190614ec5565b60405180910390f35b6107de60048036038101906107d99190615137565b61190a565b6040516107f096959493929190615186565b60405180910390f35b61080161199e565b60405161080e9190614a9e565b60405180910390f35b61081f6119a3565b60405161082c9190614a9e565b60405180910390f35b61083d6119b1565b60405161084a9190614a9e565b60405180910390f35b61085b6119b6565b6040516108689190614a9e565b60405180910390f35b6108796119bc565b6040516108869190614a9e565b60405180910390f35b6108976119c1565b6040516108a49190614a9e565b60405180910390f35b6108b56119c7565b6040516108c29190614a9e565b60405180910390f35b6108e560048036038101906108e091906151e7565b6119d4565b005b6108ef611b5a565b6040516108fc9190614a9e565b60405180910390f35b61091f600480360381019061091a91906152a4565b611b68565b005b610929611d3c565b6040516109369190614a9e565b60405180910390f35b61095960048036038101906109549190615304565b611d41565b6040516109669190614eef565b60405180910390f35b61098960048036038101906109849190615344565b611f84565b005b61099361241e565b6040516109a09190614a9e565b60405180910390f35b6109c360048036038101906109be9190614f46565b612424565b005b60155481565b60056020528060005260406000206000915090505481565b600081565b600360009054906101000a900473ffffffffffffffffffffffffffffffffffffffff1681565b6000600160009054906101000a900473ffffffffffffffffffffffffffffffffffffffff1673ffffffffffffffffffffffffffffffffffffffff16632c12395b836040518263ffffffff1660e01b8152600401610a6b91906153a4565b602060405180830381865afa158015610a88573d6000803e3d6000fd5b505050506040513d601f19601f82011682018060405250810190610aac91906153d4565b15610bf8576000600860003373ffffffffffffffffffffffffffffffffffffffff1673ffffffffffffffffffffffffffffffffffffffff168152602001908152602001600020600760008561ffff1681526020019081526020016000205481548110610b1b57610b1a615401565b5b90600052602060002090600502016040518060c00160405290816000820160009054906101000a900461ffff1661ffff1661ffff1681526020016001820154815260200160028201548152602001600382015481526020016004820160009054906101000a900473ffffffffffffffffffffffffffffffffffffffff1673ffffffffffffffffffffffffffffffffffffffff1673ffffffffffffffffffffffffffffffffffffffff1681526020016004820160149054906101000a900460ff1660ff1660ff16815250509050610bf08161251c565b915050610d3b565b6000600660003373ffffffffffffffffffffffffffffffffffffffff1673ffffffffffffffffffffffffffffffffffffffff168152602001908152602001600020600560008561ffff1681526020019081526020016000205481548110610c6257610c61615401565b5b90600052602060002090600502016040518060c00160405290816000820160009054906101000a900461ffff1661ffff1661ffff1681526020016001820154815260200160028201548152602001600382015481526020016004820160009054906101000a900473ffffffffffffffffffffffffffffffffffffffff1673ffffffffffffffffffffffffffffffffffffffff1673ffffffffffffffffffffffffffffffffffffffff1681526020016004820160149054906101000a900460ff1660ff1660ff16815250509050610d37816127e9565b9150505b919050565b600160009054906101000a900473ffffffffffffffffffffffffffffffffffffffff1681565b600b5481565b60008073ffffffffffffffffffffffffffffffffffffffff168573ffffffffffffffffffffffffffffffffffffffff1614610ddc576040517f08c379a0000000000000000000000000000000000000000000000000000000008152600401610dd3906154b3565b60405180910390fd5b63150b7a0260e01b905095945050505050565b610df7612961565b73ffffffffffffffffffffffffffffffffffffffff16610e156118e1565b73ffffffffffffffffffffffffffffffffffffffff1614610e6b576040517f08c379a0000000000000000000000000000000000000000000000000000000008152600401610e629061551f565b60405180910390fd5b80600060146101000a81548160ff02191690831515021790555050565b600e5481565b600181565b600081565b600281565b600360009054906101000a900473ffffffffffffffffffffffffffffffffffffffff1673ffffffffffffffffffffffffffffffffffffffff163373ffffffffffffffffffffffffffffffffffffffff1614610f2d576040517f08c379a0000000000000000000000000000000000000000000000000000000008152600401610f249061558b565b60405180910390fd5b6000600860003373ffffffffffffffffffffffffffffffffffffffff1673ffffffffffffffffffffffffffffffffffffffff168152602001908152602001600020600760008581526020019081526020016000205481548110610f9357610f92615401565b5b90600052602060002090600502016040518060c00160405290816000820160009054906101000a900461ffff1661ffff1661ffff1681526020016001820154815260200160028201548152602001600382015481526020016004820160009054906101000a900473ffffffffffffffffffffffffffffffffffffffff1673ffffffffffffffffffffffffffffffffffffffff1673ffffffffffffffffffffffffffffffffffffffff1681526020016004820160149054906101000a900460ff1660ff1660ff16815250509050600160ff16821415611233576000601654826040015160105461108291906155da565b61108c919061563d565b90506040518060c001604052808561ffff168152602001428152602001600f5481526020018281526020013373ffffffffffffffffffffffffffffffffffffffff168152602001600160ff16815250600860003373ffffffffffffffffffffffffffffffffffffffff1673ffffffffffffffffffffffffffffffffffffffff16815260200190815260200160002060076000878152602001908152602001600020548154811061113f5761113e615401565b5b906000526020600020906005020160008201518160000160006101000a81548161ffff021916908361ffff16021790555060208201518160010155604082015181600201556060820151816003015560808201518160040160006101000a81548173ffffffffffffffffffffffffffffffffffffffff021916908373ffffffffffffffffffffffffffffffffffffffff16021790555060a08201518160040160146101000a81548160ff021916908360ff16021790555090505060016016600082825461120c91906155da565b92505081905550600160156000828254611226919061566e565b9250508190555050611404565b600060ff168214156114035760006015548260400151600f5461125691906155da565b611260919061563d565b90506040518060c001604052808561ffff168152602001428152602001600e5481526020018281526020013373ffffffffffffffffffffffffffffffffffffffff168152602001600060ff16815250600860003373ffffffffffffffffffffffffffffffffffffffff1673ffffffffffffffffffffffffffffffffffffffff16815260200190815260200160002060076000878152602001908152602001600020548154811061131357611312615401565b5b906000526020600020906005020160008201518160000160006101000a81548161ffff021916908361ffff16021790555060208201518160010155604082015181600201556060820151816003015560808201518160040160006101000a81548173ffffffffffffffffffffffffffffffffffffffff021916908373ffffffffffffffffffffffffffffffffffffffff16021790555060a08201518160040160146101000a81548160ff021916908360ff1602179055509050506001601560008282546113e091906155da565b925050819055506001601460008282546113fa919061566e565b92505081905550505b5b505050565b6009818154811061141957600080fd5b906000526020600020016000915054906101000a900473ffffffffffffffffffffffffffffffffffffffff1681565b602881565b600f5481565b601760009054906101000a900460ff1681565b606481565b69043c33c193756480000081565b60115481565b6b204fce5e3e2502611000000081565b600260009054906101000a900473ffffffffffffffffffffffffffffffffffffffff1681565b6060600860008373ffffffffffffffffffffffffffffffffffffffff1673ffffffffffffffffffffffffffffffffffffffff168152602001908152602001600020805480602002602001604051908101604052809291908181526020016000905b828210156115f957838290600052602060002090600502016040518060c00160405290816000820160009054906101000a900461ffff1661ffff1661ffff1681526020016001820154815260200160028201548152602001600382015481526020016004820160009054906101000a900473ffffffffffffffffffffffffffffffffffffffff1673ffffffffffffffffffffffffffffffffffffffff1673ffffffffffffffffffffffffffffffffffffffff1681526020016004820160149054906101000a900460ff1660ff1660ff168152505081526020019060010190611516565b505050509050919050565b600460009054906101000a900473ffffffffffffffffffffffffffffffffffffffff1681565b6060600660008373ffffffffffffffffffffffffffffffffffffffff1673ffffffffffffffffffffffffffffffffffffffff168152602001908152602001600020805480602002602001604051908101604052809291908181526020016000905b8282101561176e57838290600052602060002090600502016040518060c00160405290816000820160009054906101000a900461ffff1661ffff1661ffff1681526020016001820154815260200160028201548152602001600382015481526020016004820160009054906101000a900473ffffffffffffffffffffffffffffffffffffffff1673ffffffffffffffffffffffffffffffffffffffff1673ffffffffffffffffffffffffffffffffffffffff1681526020016004820160149054906101000a900460ff1660ff1660ff16815250508152602001906001019061168b565b505050509050919050565b60008060149054906101000a900460ff16905090565b600d5481565b60135481565b6117a3612961565b73ffffffffffffffffffffffffffffffffffffffff166117c16118e1565b73ffffffffffffffffffffffffffffffffffffffff1614611817576040517f08c379a000000000000000000000000000000000000000000000000000000000815260040161180e9061551f565b60405180910390fd5b6118216000612969565b565b60076020528060005260406000206000915090505481565b6006602052816000526040600020818154811061185757600080fd5b9060005260206000209060050201600091509150508060000160009054906101000a900461ffff16908060010154908060020154908060030154908060040160009054906101000a900473ffffffffffffffffffffffffffffffffffffffff16908060040160149054906101000a900460ff16905086565b600a5481565b60105481565b60145481565b60008060009054906101000a900473ffffffffffffffffffffffffffffffffffffffff16905090565b6008602052816000526040600020818154811061192657600080fd5b9060005260206000209060050201600091509150508060000160009054906101000a900461ffff16908060010154908060020154908060030154908060040160009054906101000a900473ffffffffffffffffffffffffffffffffffffffff16908060040160149054906101000a900460ff16905086565b602881565b690a968163f0a57b40000081565b601481565b60165481565b603281565b60125481565b68a2a15d09519be0000081565b6119dc612961565b73ffffffffffffffffffffffffffffffffffffffff166119fa6118e1565b73ffffffffffffffffffffffffffffffffffffffff1614611a50576040517f08c379a0000000000000000000000000000000000000000000000000000000008152600401611a479061551f565b60405180910390fd5b83600160006101000a81548173ffffffffffffffffffffffffffffffffffffffff021916908373ffffffffffffffffffffffffffffffffffffffff16021790555082600260006101000a81548173ffffffffffffffffffffffffffffffffffffffff021916908373ffffffffffffffffffffffffffffffffffffffff16021790555081600360006101000a81548173ffffffffffffffffffffffffffffffffffffffff021916908373ffffffffffffffffffffffffffffffffffffffff16021790555080600460006101000a81548173ffffffffffffffffffffffffffffffffffffffff021916908373ffffffffffffffffffffffffffffffffffffffff16021790555050505050565b69021e19e0c9bab240000081565b611b70611779565b15611bb0576040517f08c379a0000000000000000000000000000000000000000000000000000000008152600401611ba790615710565b60405180910390fd5b6000805b84849050811015611d1b57600160009054906101000a900473ffffffffffffffffffffffffffffffffffffffff1673ffffffffffffffffffffffffffffffffffffffff16632c12395b868684818110611c1057611c0f615401565b5b9050602002016020810190611c259190614c27565b6040518263ffffffff1660e01b8152600401611c4191906153a4565b602060405180830381865afa158015611c5e573d6000803e3d6000fd5b505050506040513d601f19601f82011682018060405250810190611c8291906153d4565b611cc957611cb7858583818110611c9c57611c9b615401565b5b9050602002016020810190611cb19190614c27565b84612a2d565b82611cc2919061566e565b9150611d08565b611cfa858583818110611cdf57611cde615401565b5b9050602002016020810190611cf49190614c27565b84613290565b82611d05919061566e565b91505b8080611d1390615730565b915050611bb4565b506000811415611d2b5750611d37565b611d35338261409f565b505b505050565b603281565b6000600160009054906101000a900473ffffffffffffffffffffffffffffffffffffffff1673ffffffffffffffffffffffffffffffffffffffff16632c12395b846040518263ffffffff1660e01b8152600401611d9e91906153a4565b602060405180830381865afa158015611dbb573d6000803e3d6000fd5b505050506040513d601f19601f82011682018060405250810190611ddf91906153d4565b15611eb3578173ffffffffffffffffffffffffffffffffffffffff16600860008473ffffffffffffffffffffffffffffffffffffffff1673ffffffffffffffffffffffffffffffffffffffff168152602001908152602001600020600760008661ffff1681526020019081526020016000205481548110611e6357611e62615401565b5b906000526020600020906005020160040160009054906101000a900473ffffffffffffffffffffffffffffffffffffffff1673ffffffffffffffffffffffffffffffffffffffff16149050611f7e565b8173ffffffffffffffffffffffffffffffffffffffff16600660008473ffffffffffffffffffffffffffffffffffffffff1673ffffffffffffffffffffffffffffffffffffffff168152602001908152602001600020600560008661ffff1681526020019081526020016000205481548110611f3257611f31615401565b5b906000526020600020906005020160040160009054906101000a900473ffffffffffffffffffffffffffffffffffffffff1673ffffffffffffffffffffffffffffffffffffffff161490505b92915050565b3373ffffffffffffffffffffffffffffffffffffffff168373ffffffffffffffffffffffffffffffffffffffff16148061200b5750600160009054906101000a900473ffffffffffffffffffffffffffffffffffffffff1673ffffffffffffffffffffffffffffffffffffffff163373ffffffffffffffffffffffffffffffffffffffff16145b61204a576040517f08c379a0000000000000000000000000000000000000000000000000000000008152600401612041906157eb565b60405180910390fd5b60005b8282905081101561241857600160009054906101000a900473ffffffffffffffffffffffffffffffffffffffff1673ffffffffffffffffffffffffffffffffffffffff163373ffffffffffffffffffffffffffffffffffffffff161461229a573373ffffffffffffffffffffffffffffffffffffffff16600160009054906101000a900473ffffffffffffffffffffffffffffffffffffffff1673ffffffffffffffffffffffffffffffffffffffff16636352211e85858581811061211557612114615401565b5b905060200201602081019061212a9190614c27565b6040518263ffffffff1660e01b8152600401612146919061583c565b602060405180830381865afa158015612163573d6000803e3d6000fd5b505050506040513d601f19601f82011682018060405250810190612187919061586c565b73ffffffffffffffffffffffffffffffffffffffff16146121dd576040517f08c379a00000000000000000000000000000000000000000000000000000000081526004016121d49061590b565b60405180910390fd5b600160009054906101000a900473ffffffffffffffffffffffffffffffffffffffff1673ffffffffffffffffffffffffffffffffffffffff166323b872dd33308686868181106122305761222f615401565b5b90506020020160208101906122459190614c27565b6040518463ffffffff1660e01b81526004016122639392919061592b565b600060405180830381600087803b15801561227d57600080fd5b505af1158015612291573d6000803e3d6000fd5b505050506122d4565b60008383838181106122af576122ae615401565b5b90506020020160208101906122c49190614c27565b61ffff1614156122d357612405565b5b600160009054906101000a900473ffffffffffffffffffffffffffffffffffffffff1673ffffffffffffffffffffffffffffffffffffffff16632c12395b84848481811061232557612324615401565b5b905060200201602081019061233a9190614c27565b6040518263ffffffff1660e01b815260040161235691906153a4565b602060405180830381865afa158015612373573d6000803e3d6000fd5b505050506040513d601f19601f8201168201806040525081019061239791906153d4565b156123d2576123cd848484848181106123b3576123b2615401565b5b90506020020160208101906123c89190614c27565b61414b565b612404565b612403848484848181106123e9576123e8615401565b5b90506020020160208101906123fe9190614c27565b61442c565b5b5b808061241090615730565b91505061204d565b50505050565b600c5481565b61242c612961565b73ffffffffffffffffffffffffffffffffffffffff1661244a6118e1565b73ffffffffffffffffffffffffffffffffffffffff16146124a0576040517f08c379a00000000000000000000000000000000000000000000000000000000081526004016124979061551f565b60405180910390fd5b600073ffffffffffffffffffffffffffffffffffffffff168173ffffffffffffffffffffffffffffffffffffffff161415612510576040517f08c379a0000000000000000000000000000000000000000000000000000000008152600401612507906159d4565b60405180910390fd5b61251981612969565b50565b60003073ffffffffffffffffffffffffffffffffffffffff16600160009054906101000a900473ffffffffffffffffffffffffffffffffffffffff1673ffffffffffffffffffffffffffffffffffffffff16636352211e84600001516040518263ffffffff1660e01b8152600401612594919061583c565b602060405180830381865afa1580156125b1573d6000803e3d6000fd5b505050506040513d601f19601f820116820180604052508101906125d5919061586c565b73ffffffffffffffffffffffffffffffffffffffff161461262b576040517f08c379a00000000000000000000000000000000000000000000000000000000081526004016126229061590b565b60405180910390fd5b3373ffffffffffffffffffffffffffffffffffffffff16826080015173ffffffffffffffffffffffffffffffffffffffff161461269d576040517f08c379a00000000000000000000000000000000000000000000000000000000081526004016126949061590b565b60405180910390fd5b6b204fce5e3e25026110000000600c54106126ed576040517f08c379a00000000000000000000000000000000000000000000000000000000081526004016126e490615a40565b60405180910390fd5b6000826020015111612734576040517f08c379a000000000000000000000000000000000000000000000000000000000815260040161272b90615aac565b60405180910390fd5b600042905060006201518069021e19e0c9bab240000085602001518461275a91906155da565b6127649190615acc565b61276e919061563d565b905060008060ff168560a0015160ff16141561278e57600e5490506127b2565b600160ff168560a0015160ff1614156127ab57600f5490506127b1565b60105490505b5b84606001518560400151826127c791906155da565b6127d1919061566e565b826127dc919061566e565b9150819350505050919050565b60003373ffffffffffffffffffffffffffffffffffffffff16826080015173ffffffffffffffffffffffffffffffffffffffff161461285d576040517f08c379a00000000000000000000000000000000000000000000000000000000081526004016128549061590b565b60405180910390fd5b6b204fce5e3e25026110000000600c54106128ad576040517f08c379a00000000000000000000000000000000000000000000000000000000081526004016128a490615a40565b60405180910390fd5b60008260200151116128f4576040517f08c379a00000000000000000000000000000000000000000000000000000000081526004016128eb90615aac565b60405180910390fd5b60004290506201518068a2a15d09519be0000084602001518361291791906155da565b6129219190615acc565b61292b919061563d565b91508260600151836040015160115461294491906155da565b61294e919061566e565b82612959919061566e565b915050919050565b600033905090565b60008060009054906101000a900473ffffffffffffffffffffffffffffffffffffffff169050816000806101000a81548173ffffffffffffffffffffffffffffffffffffffff021916908373ffffffffffffffffffffffffffffffffffffffff1602179055508173ffffffffffffffffffffffffffffffffffffffff168173ffffffffffffffffffffffffffffffffffffffff167f8be0079c531659141344cd1fd0a4f28419497f9722a3daafe3b4186f6b6457e060405160405180910390a35050565b600080600660003373ffffffffffffffffffffffffffffffffffffffff1673ffffffffffffffffffffffffffffffffffffffff168152602001908152602001600020600560008661ffff1681526020019081526020016000205481548110612a9857612a97615401565b5b90600052602060002090600502016040518060c00160405290816000820160009054906101000a900461ffff1661ffff1661ffff1681526020016001820154815260200160028201548152602001600382015481526020016004820160009054906101000a900473ffffffffffffffffffffffffffffffffffffffff1673ffffffffffffffffffffffffffffffffffffffff1673ffffffffffffffffffffffffffffffffffffffff1681526020016004820160149054906101000a900460ff1660ff1660ff16815250509050612b6d816127e9565b915060008211612bb2576040517f08c379a0000000000000000000000000000000000000000000000000000000008152600401612ba990615b72565b60405180910390fd5b690a968163f0a57b4000008211612c3b5760006064836014612bd49190615acc565b612bde919061563d565b90508083612bec91906155da565b9250612bf78161468c565b7f4d6de1c40d9bbc3f88772bf4a08809ff9256a440378e8bd6a14c1317a6c878e28560148386604051612c2d9493929190615b92565b60405180910390a150612c71565b60006064836032612c4c9190615acc565b612c56919061563d565b90508083612c6491906155da565b9250612c6f81614728565b505b82156130da576001600a6000828254612c8a91906155da565b925050819055506000600660003373ffffffffffffffffffffffffffffffffffffffff1673ffffffffffffffffffffffffffffffffffffffff1681526020019081526020016000206001600660003373ffffffffffffffffffffffffffffffffffffffff1673ffffffffffffffffffffffffffffffffffffffff16815260200190815260200160002080549050612d2191906155da565b81548110612d3257612d31615401565b5b90600052602060002090600502016040518060c00160405290816000820160009054906101000a900461ffff1661ffff1661ffff1681526020016001820154815260200160028201548152602001600382015481526020016004820160009054906101000a900473ffffffffffffffffffffffffffffffffffffffff1673ffffffffffffffffffffffffffffffffffffffff1673ffffffffffffffffffffffffffffffffffffffff1681526020016004820160149054906101000a900460ff1660ff1660ff1681525050905080600660003373ffffffffffffffffffffffffffffffffffffffff1673ffffffffffffffffffffffffffffffffffffffff168152602001908152602001600020600560008861ffff1681526020019081526020016000205481548110612e6757612e66615401565b5b906000526020600020906005020160008201518160000160006101000a81548161ffff021916908361ffff16021790555060208201518160010155604082015181600201556060820151816003015560808201518160040160006101000a81548173ffffffffffffffffffffffffffffffffffffffff021916908373ffffffffffffffffffffffffffffffffffffffff16021790555060a08201518160040160146101000a81548160ff021916908360ff160217905550905050600560008661ffff1681526020019081526020016000205460056000836000015161ffff16815260200190815260200160002081905550600660003373ffffffffffffffffffffffffffffffffffffffff1673ffffffffffffffffffffffffffffffffffffffff168152602001908152602001600020805480612fa757612fa6615bd7565b5b6001900381819060005260206000209060050201600080820160006101000a81549061ffff02191690556001820160009055600282016000905560038201600090556004820160006101000a81549073ffffffffffffffffffffffffffffffffffffffff02191690556004820160146101000a81549060ff021916905550509055600560008661ffff16815260200190815260200160002060009055600160009054906101000a900473ffffffffffffffffffffffffffffffffffffffff1673ffffffffffffffffffffffffffffffffffffffff1663b88d4fde3033886040518463ffffffff1660e01b81526004016130a293929190615c3d565b600060405180830381600087803b1580156130bc57600080fd5b505af11580156130d0573d6000803e3d6000fd5b505050505061324e565b6040518060c001604052808561ffff1681526020014281526020016011548152602001600081526020013373ffffffffffffffffffffffffffffffffffffffff1681526020018260a0015160ff16815250600660003373ffffffffffffffffffffffffffffffffffffffff1673ffffffffffffffffffffffffffffffffffffffff168152602001908152602001600020600560008761ffff168152602001908152602001600020548154811061319357613192615401565b5b906000526020600020906005020160008201518160000160006101000a81548161ffff021916908361ffff16021790555060208201518160010155604082015181600201556060820151816003015560808201518160040160006101000a81548173ffffffffffffffffffffffffffffffffffffffff021916908373ffffffffffffffffffffffffffffffffffffffff16021790555060a08201518160040160146101000a81548160ff021916908360ff1602179055509050505b7f68823431b4bef1f8a6bda2296d848fd6de8307f666dc558ec8341a5f7800eaf684838560405161328193929190615c87565b60405180910390a15092915050565b60003073ffffffffffffffffffffffffffffffffffffffff16600160009054906101000a900473ffffffffffffffffffffffffffffffffffffffff1673ffffffffffffffffffffffffffffffffffffffff16636352211e856040518263ffffffff1660e01b8152600401613304919061583c565b602060405180830381865afa158015613321573d6000803e3d6000fd5b505050506040513d601f19601f82011682018060405250810190613345919061586c565b73ffffffffffffffffffffffffffffffffffffffff161461339b576040517f08c379a00000000000000000000000000000000000000000000000000000000081526004016133929061590b565b60405180910390fd5b6000600860003373ffffffffffffffffffffffffffffffffffffffff1673ffffffffffffffffffffffffffffffffffffffff168152602001908152602001600020600760008661ffff168152602001908152602001600020548154811061340557613404615401565b5b90600052602060002090600502016040518060c00160405290816000820160009054906101000a900461ffff1661ffff1661ffff1681526020016001820154815260200160028201548152602001600382015481526020016004820160009054906101000a900473ffffffffffffffffffffffffffffffffffffffff1673ffffffffffffffffffffffffffffffffffffffff1673ffffffffffffffffffffffffffffffffffffffff1681526020016004820160149054906101000a900460ff1660ff1660ff168152505090503373ffffffffffffffffffffffffffffffffffffffff16816080015173ffffffffffffffffffffffffffffffffffffffff1614613543576040517f08c379a000000000000000000000000000000000000000000000000000000000815260040161353a9061590b565b60405180910390fd5b61354c8161251c565b915069043c33c193756480000082101561359b576040517f08c379a000000000000000000000000000000000000000000000000000000000815260040161359290615d30565b60405180910390fd5b600073ffffffffffffffffffffffffffffffffffffffff16600360009054906101000a900473ffffffffffffffffffffffffffffffffffffffff1673ffffffffffffffffffffffffffffffffffffffff16146136a057600360009054906101000a900473ffffffffffffffffffffffffffffffffffffffff1673ffffffffffffffffffffffffffffffffffffffff16636d00d75c8569021e19e0c9bab2400000856040518463ffffffff1660e01b815260040161365a93929190615d50565b6020604051808303816000875af1158015613679573d6000803e3d6000fd5b505050506040513d601f19601f8201168201806040525081019061369d9190615d9c565b91505b690a968163f0a57b40000082116136eb57600060648360286136c29190615acc565b6136cc919061563d565b905080836136da91906155da565b92506136e581614831565b50613996565b6032600460009054906101000a900473ffffffffffffffffffffffffffffffffffffffff1673ffffffffffffffffffffffffffffffffffffffff16633dce18b68660646040518363ffffffff1660e01b815260040161374b929190615e04565b602060405180830381865afa158015613768573d6000803e3d6000fd5b505050506040513d601f19601f8201168201806040525081019061378c9190615e42565b61ffff161161391357600060648360286137a69190615acc565b6137b0919061563d565b9050600081846137c091906155da565b9050600073ffffffffffffffffffffffffffffffffffffffff16600360009054906101000a900473ffffffffffffffffffffffffffffffffffffffff1673ffffffffffffffffffffffffffffffffffffffff16146138bb57600360009054906101000a900473ffffffffffffffffffffffffffffffffffffffff1673ffffffffffffffffffffffffffffffffffffffff1663f532b8d287836040518363ffffffff1660e01b8152600401613875929190615e6f565b6020604051808303816000875af1158015613894573d6000803e3d6000fd5b505050506040513d601f19601f820116820180604052508101906138b89190615d9c565b90505b6138c481614831565b6138cd8261468c565b7f4d6de1c40d9bbc3f88772bf4a08809ff9256a440378e8bd6a14c1317a6c878e28660288660006040516139049493929190615ed3565b60405180910390a16000935050505b600460009054906101000a900473ffffffffffffffffffffffffffffffffffffffff1673ffffffffffffffffffffffffffffffffffffffff16638b21dc3c6040518163ffffffff1660e01b8152600401600060405180830381600087803b15801561397d57600080fd5b505af1158015613991573d6000803e3d6000fd5b505050505b8215613e88576001600b60008282546139af91906155da565b92505081905550600060ff168160a0015160ff1614156139e8576001601460008282546139dc91906155da565b92505081905550613a36565b600160ff168160a0015160ff161415613a1a57600160156000828254613a0e91906155da565b92505081905550613a35565b600160166000828254613a2d91906155da565b925050819055505b5b6000600860003373ffffffffffffffffffffffffffffffffffffffff1673ffffffffffffffffffffffffffffffffffffffff1681526020019081526020016000206001600860003373ffffffffffffffffffffffffffffffffffffffff1673ffffffffffffffffffffffffffffffffffffffff16815260200190815260200160002080549050613ac691906155da565b81548110613ad757613ad6615401565b5b90600052602060002090600502016040518060c00160405290816000820160009054906101000a900461ffff1661ffff1661ffff1681526020016001820154815260200160028201548152602001600382015481526020016004820160009054906101000a900473ffffffffffffffffffffffffffffffffffffffff1673ffffffffffffffffffffffffffffffffffffffff1673ffffffffffffffffffffffffffffffffffffffff1681526020016004820160149054906101000a900460ff1660ff1660ff1681525050905080600860003373ffffffffffffffffffffffffffffffffffffffff1673ffffffffffffffffffffffffffffffffffffffff168152602001908152602001600020600760008861ffff1681526020019081526020016000205481548110613c0c57613c0b615401565b5b906000526020600020906005020160008201518160000160006101000a81548161ffff021916908361ffff16021790555060208201518160010155604082015181600201556060820151816003015560808201518160040160006101000a81548173ffffffffffffffffffffffffffffffffffffffff021916908373ffffffffffffffffffffffffffffffffffffffff16021790555060a08201518160040160146101000a81548160ff021916908360ff160217905550905050600760008661ffff1681526020019081526020016000205460076000836000015161ffff16815260200190815260200160002081905550600860003373ffffffffffffffffffffffffffffffffffffffff1673ffffffffffffffffffffffffffffffffffffffff168152602001908152602001600020805480613d4c57613d4b615bd7565b5b6001900381819060005260206000209060050201600080820160006101000a81549061ffff02191690556001820160009055600282016000905560038201600090556004820160006101000a81549073ffffffffffffffffffffffffffffffffffffffff02191690556004820160146101000a81549060ff021916905550509055600760008661ffff16815260200190815260200160002060009055613df133614899565b600160009054906101000a900473ffffffffffffffffffffffffffffffffffffffff1673ffffffffffffffffffffffffffffffffffffffff1663b88d4fde3033886040518463ffffffff1660e01b8152600401613e5093929190615c3d565b600060405180830381600087803b158015613e6a57600080fd5b505af1158015613e7e573d6000803e3d6000fd5b505050505061405d565b600060105469ffffffffffffffffffff169050600060ff168260a0015160ff161415613ec457600e5469ffffffffffffffffffff169050613eea565b600160ff168260a0015160ff161415613ee957600f5469ffffffffffffffffffff1690505b5b6040518060c001604052808661ffff168152602001428152602001828152602001600081526020013373ffffffffffffffffffffffffffffffffffffffff1681526020018360a0015160ff16815250600860003373ffffffffffffffffffffffffffffffffffffffff1673ffffffffffffffffffffffffffffffffffffffff168152602001908152602001600020600760008861ffff1681526020019081526020016000205481548110613fa157613fa0615401565b5b906000526020600020906005020160008201518160000160006101000a81548161ffff021916908361ffff16021790555060208201518160010155604082015181600201556060820151816003015560808201518160040160006101000a81548173ffffffffffffffffffffffffffffffffffffffff021916908373ffffffffffffffffffffffffffffffffffffffff16021790555060a08201518160040160146101000a81548160ff021916908360ff160217905550905050505b7fa71974935662012c9b6ee2c300cf91babc58742dad5bfa6b95f011186d3812ae84838560405161409093929190615c87565b60405180910390a15092915050565b600260009054906101000a900473ffffffffffffffffffffffffffffffffffffffff1673ffffffffffffffffffffffffffffffffffffffff166340c10f1983836040518363ffffffff1660e01b81526004016140fc929190615f18565b600060405180830381600087803b15801561411657600080fd5b505af115801561412a573d6000803e3d6000fd5b5050505080600c6000828254614140919061566e565b925050819055505050565b6001600b600082825461415e919061566e565b92505081905550600160166000828254614178919061566e565b925050819055506000600860008473ffffffffffffffffffffffffffffffffffffffff1673ffffffffffffffffffffffffffffffffffffffff16815260200190815260200160002080549050141561422e576009829080600181540180825580915050600190039060005260206000200160009091909190916101000a81548173ffffffffffffffffffffffffffffffffffffffff021916908373ffffffffffffffffffffffffffffffffffffffff1602179055505b600860008373ffffffffffffffffffffffffffffffffffffffff1673ffffffffffffffffffffffffffffffffffffffff16815260200190815260200160002080549050600760008361ffff16815260200190815260200160002081905550600860008373ffffffffffffffffffffffffffffffffffffffff1673ffffffffffffffffffffffffffffffffffffffff1681526020019081526020016000206040518060c001604052808361ffff1681526020014281526020016010548152602001600081526020018473ffffffffffffffffffffffffffffffffffffffff168152602001600260ff16815250908060018154018082558091505060019003906000526020600020906005020160009091909190915060008201518160000160006101000a81548161ffff021916908361ffff16021790555060208201518160010155604082015181600201556060820151816003015560808201518160040160006101000a81548173ffffffffffffffffffffffffffffffffffffffff021916908373ffffffffffffffffffffffffffffffffffffffff16021790555060a08201518160040160146101000a81548160ff021916908360ff16021790555050507fb63b627c974e2e49662cbe7483456424812c95b6048065861b08af2eff4726b782824260405161442093929190615f41565b60405180910390a15050565b614434611779565b15614474576040517f08c379a000000000000000000000000000000000000000000000000000000000815260040161446b90615710565b60405180910390fd5b6001600a6000828254614487919061566e565b92505081905550600660008373ffffffffffffffffffffffffffffffffffffffff1673ffffffffffffffffffffffffffffffffffffffff16815260200190815260200160002080549050600560008361ffff16815260200190815260200160002081905550600660008373ffffffffffffffffffffffffffffffffffffffff1673ffffffffffffffffffffffffffffffffffffffff1681526020019081526020016000206040518060c001604052808361ffff1681526020014281526020016011548152602001600081526020018473ffffffffffffffffffffffffffffffffffffffff168152602001600260ff16815250908060018154018082558091505060019003906000526020600020906005020160009091909190915060008201518160000160006101000a81548161ffff021916908361ffff16021790555060208201518160010155604082015181600201556060820151816003015560808201518160040160006101000a81548173ffffffffffffffffffffffffffffffffffffffff021916908373ffffffffffffffffffffffffffffffffffffffff16021790555060a08201518160040160146101000a81548160ff021916908360ff16021790555050507fb63b627c974e2e49662cbe7483456424812c95b6048065861b08af2eff4726b782824260405161468093929190615f41565b60405180910390a15050565b614696308261409f565b600260009054906101000a900473ffffffffffffffffffffffffffffffffffffffff1673ffffffffffffffffffffffffffffffffffffffff16639dc29fac30836040518363ffffffff1660e01b81526004016146f3929190615f18565b600060405180830381600087803b15801561470d57600080fd5b505af1158015614721573d6000803e3d6000fd5b5050505050565b6000600b541415614751578060136000828254614745919061566e565b9250508190555061482e565b600060135482614761919061566e565b905060006064610177836147759190615acc565b61477f919061563d565b90506016548161478f919061563d565b601060008282546147a0919061566e565b92505081905550601554606482607d6147b99190615acc565b6147c3919061563d565b6147cd919061563d565b600f60008282546147de919061566e565b92505081905550601454600a82600f6147f79190615acc565b614801919061563d565b61480b919061563d565b600e600082825461481c919061566e565b92505081905550600060138190555050505b50565b6000600a54141561485a57806012600082825461484e919061566e565b92505081905550614896565b600a546012548261486b919061566e565b614875919061563d565b60116000828254614886919061566e565b9250508190555060006012819055505b50565b6000600860008373ffffffffffffffffffffffffffffffffffffffff1673ffffffffffffffffffffffffffffffffffffffff16815260200190815260200160002080549050146148e857614a82565b6000600960016009805490506148fe91906155da565b8154811061490f5761490e615401565b5b9060005260206000200160009054906101000a900473ffffffffffffffffffffffffffffffffffffffff1690506000805b6009805490508110156149da578373ffffffffffffffffffffffffffffffffffffffff166009828154811061497857614977615401565b5b9060005260206000200160009054906101000a900473ffffffffffffffffffffffffffffffffffffffff1673ffffffffffffffffffffffffffffffffffffffff1614156149c7578091506149da565b80806149d290615730565b915050614940565b5081600982815481106149f0576149ef615401565b5b9060005260206000200160006101000a81548173ffffffffffffffffffffffffffffffffffffffff021916908373ffffffffffffffffffffffffffffffffffffffff1602179055506009805480614a4a57614a49615bd7565b5b6001900381819060005260206000200160006101000a81549073ffffffffffffffffffffffffffffffffffffffff0219169055905550505b50565b6000819050919050565b614a9881614a85565b82525050565b6000602082019050614ab36000830184614a8f565b92915050565b600080fd5b600080fd5b614acc81614a85565b8114614ad757600080fd5b50565b600081359050614ae981614ac3565b92915050565b600060208284031215614b0557614b04614ab9565b5b6000614b1384828501614ada565b91505092915050565b600060ff82169050919050565b614b3281614b1c565b82525050565b6000602082019050614b4d6000830184614b29565b92915050565b600073ffffffffffffffffffffffffffffffffffffffff82169050919050565b6000819050919050565b6000614b98614b93614b8e84614b53565b614b73565b614b53565b9050919050565b6000614baa82614b7d565b9050919050565b6000614bbc82614b9f565b9050919050565b614bcc81614bb1565b82525050565b6000602082019050614be76000830184614bc3565b92915050565b600061ffff82169050919050565b614c0481614bed565b8114614c0f57600080fd5b50565b600081359050614c2181614bfb565b92915050565b600060208284031215614c3d57614c3c614ab9565b5b6000614c4b84828501614c12565b91505092915050565b6000614c5f82614b9f565b9050919050565b614c6f81614c54565b82525050565b6000602082019050614c8a6000830184614c66565b92915050565b6000614c9b82614b53565b9050919050565b614cab81614c90565b8114614cb657600080fd5b50565b600081359050614cc881614ca2565b92915050565b600080fd5b600080fd5b600080fd5b60008083601f840112614cf357614cf2614cce565b5b8235905067ffffffffffffffff811115614d1057614d0f614cd3565b5b602083019150836001820283011115614d2c57614d2b614cd8565b5b9250929050565b600080600080600060808688031215614d4f57614d4e614ab9565b5b6000614d5d88828901614cb9565b9550506020614d6e88828901614cb9565b9450506040614d7f88828901614ada565b935050606086013567ffffffffffffffff811115614da057614d9f614abe565b5b614dac88828901614cdd565b92509250509295509295909350565b60007fffffffff0000000000000000000000000000000000000000000000000000000082169050919050565b614df081614dbb565b82525050565b6000602082019050614e0b6000830184614de7565b92915050565b60008115159050919050565b614e2681614e11565b8114614e3157600080fd5b50565b600081359050614e4381614e1d565b92915050565b600060208284031215614e5f57614e5e614ab9565b5b6000614e6d84828501614e34565b91505092915050565b60008060408385031215614e8d57614e8c614ab9565b5b6000614e9b85828601614ada565b9250506020614eac85828601614ada565b9150509250929050565b614ebf81614c90565b82525050565b6000602082019050614eda6000830184614eb6565b92915050565b614ee981614e11565b82525050565b6000602082019050614f046000830184614ee0565b92915050565b6000614f1582614b9f565b9050919050565b614f2581614f0a565b82525050565b6000602082019050614f406000830184614f1c565b92915050565b600060208284031215614f5c57614f5b614ab9565b5b6000614f6a84828501614cb9565b91505092915050565b600081519050919050565b600082825260208201905092915050565b6000819050602082019050919050565b614fa881614bed565b82525050565b614fb781614a85565b82525050565b614fc681614c90565b82525050565b614fd581614b1c565b82525050565b60c082016000820151614ff16000850182614f9f565b5060208201516150046020850182614fae565b5060408201516150176040850182614fae565b50606082015161502a6060850182614fae565b50608082015161503d6080850182614fbd565b5060a082015161505060a0850182614fcc565b50505050565b60006150628383614fdb565b60c08301905092915050565b6000602082019050919050565b600061508682614f73565b6150908185614f7e565b935061509b83614f8f565b8060005b838110156150cc5781516150b38882615056565b97506150be8361506e565b92505060018101905061509f565b5085935050505092915050565b600060208201905081810360008301526150f3818461507b565b905092915050565b600061510682614b9f565b9050919050565b615116816150fb565b82525050565b6000602082019050615131600083018461510d565b92915050565b6000806040838503121561514e5761514d614ab9565b5b600061515c85828601614cb9565b925050602061516d85828601614ada565b9150509250929050565b61518081614bed565b82525050565b600060c08201905061519b6000830189615177565b6151a86020830188614a8f565b6151b56040830187614a8f565b6151c26060830186614a8f565b6151cf6080830185614eb6565b6151dc60a0830184614b29565b979650505050505050565b6000806000806080858703121561520157615200614ab9565b5b600061520f87828801614cb9565b945050602061522087828801614cb9565b935050604061523187828801614cb9565b925050606061524287828801614cb9565b91505092959194509250565b60008083601f84011261526457615263614cce565b5b8235905067ffffffffffffffff81111561528157615280614cd3565b5b60208301915083602082028301111561529d5761529c614cd8565b5b9250929050565b6000806000604084860312156152bd576152bc614ab9565b5b600084013567ffffffffffffffff8111156152db576152da614abe565b5b6152e78682870161524e565b935093505060206152fa86828701614e34565b9150509250925092565b6000806040838503121561531b5761531a614ab9565b5b600061532985828601614c12565b925050602061533a85828601614cb9565b9150509250929050565b60008060006040848603121561535d5761535c614ab9565b5b600061536b86828701614cb9565b935050602084013567ffffffffffffffff81111561538c5761538b614abe565b5b6153988682870161524e565b92509250509250925092565b60006020820190506153b96000830184615177565b92915050565b6000815190506153ce81614e1d565b92915050565b6000602082840312156153ea576153e9614ab9565b5b60006153f8848285016153bf565b91505092915050565b7f4e487b7100000000000000000000000000000000000000000000000000000000600052603260045260246000fd5b600082825260208201905092915050565b7f43616e6e6f742073656e6420746f6b656e7320746f207468697320636f6e746160008201527f6374206469726563746c79000000000000000000000000000000000000000000602082015250565b600061549d602b83615430565b91506154a882615441565b604082019050919050565b600060208201905081810360008301526154cc81615490565b9050919050565b7f4f776e61626c653a2063616c6c6572206973206e6f7420746865206f776e6572600082015250565b6000615509602083615430565b9150615514826154d3565b602082019050919050565b60006020820190508181036000830152615538816154fc565b9050919050565b7f556e617574686f72697a65640000000000000000000000000000000000000000600082015250565b6000615575600c83615430565b91506155808261553f565b602082019050919050565b600060208201905081810360008301526155a481615568565b9050919050565b7f4e487b7100000000000000000000000000000000000000000000000000000000600052601160045260246000fd5b60006155e582614a85565b91506155f083614a85565b925082821015615603576156026155ab565b5b828203905092915050565b7f4e487b7100000000000000000000000000000000000000000000000000000000600052601260045260246000fd5b600061564882614a85565b915061565383614a85565b9250826156635761566261560e565b5b828204905092915050565b600061567982614a85565b915061568483614a85565b9250827fffffffffffffffffffffffffffffffffffffffffffffffffffffffffffffffff038211156156b9576156b86155ab565b5b828201905092915050565b7f5061757361626c653a2070617573656400000000000000000000000000000000600082015250565b60006156fa601083615430565b9150615705826156c4565b602082019050919050565b60006020820190508181036000830152615729816156ed565b9050919050565b600061573b82614a85565b91507fffffffffffffffffffffffffffffffffffffffffffffffffffffffffffffffff82141561576e5761576d6155ab565b5b600182019050919050565b7f596f7520646f206e6f7420686176652061207065726d697373696f6e20746f2060008201527f7374616b6520746f6b656e730000000000000000000000000000000000000000602082015250565b60006157d5602c83615430565b91506157e082615779565b604082019050919050565b60006020820190508181036000830152615804816157c8565b9050919050565b600061582661582161581c84614bed565b614b73565b614a85565b9050919050565b6158368161580b565b82525050565b6000602082019050615851600083018461582d565b92915050565b60008151905061586681614ca2565b92915050565b60006020828403121561588257615881614ab9565b5b600061589084828501615857565b91505092915050565b7f54686973204e465420646f6573206e6f742062656c6f6e6720746f206164647260008201527f6573730000000000000000000000000000000000000000000000000000000000602082015250565b60006158f5602383615430565b915061590082615899565b604082019050919050565b60006020820190508181036000830152615924816158e8565b9050919050565b60006060820190506159406000830186614eb6565b61594d6020830185614eb6565b61595a604083018461582d565b949350505050565b7f4f776e61626c653a206e6577206f776e657220697320746865207a65726f206160008201527f6464726573730000000000000000000000000000000000000000000000000000602082015250565b60006159be602683615430565b91506159c982615962565b604082019050919050565b600060208201905081810360008301526159ed816159b1565b9050919050565b7f24424f4f54592070726f64756374696f6e2073746f7070656400000000000000600082015250565b6000615a2a601983615430565b9150615a35826159f4565b602082019050919050565b60006020820190508181036000830152615a5981615a1d565b9050919050565b7f546f6b656e206e6f74207374616b656400000000000000000000000000000000600082015250565b6000615a96601083615430565b9150615aa182615a60565b602082019050919050565b60006020820190508181036000830152615ac581615a89565b9050919050565b6000615ad782614a85565b9150615ae283614a85565b9250817fffffffffffffffffffffffffffffffffffffffffffffffffffffffffffffffff0483118215151615615b1b57615b1a6155ab565b5b828202905092915050565b7f24424f4f5459206c657373207468616e206d696e696d756d0000000000000000600082015250565b6000615b5c601883615430565b9150615b6782615b26565b602082019050919050565b60006020820190508181036000830152615b8b81615b4f565b9050919050565b6000608082019050615ba76000830187615177565b615bb46020830186614a8f565b615bc16040830185614a8f565b615bce6060830184614a8f565b95945050505050565b7f4e487b7100000000000000000000000000000000000000000000000000000000600052603160045260246000fd5b600082825260208201905092915050565b50565b6000615c27600083615c06565b9150615c3282615c17565b600082019050919050565b6000608082019050615c526000830186614eb6565b615c5f6020830185614eb6565b615c6c604083018461582d565b8181036060830152615c7d81615c1a565b9050949350505050565b6000606082019050615c9c6000830186615177565b615ca96020830185614a8f565b615cb66040830184614ee0565b949350505050565b7f24424f4f5459206e6f74207570746f206d696e696d756d20636c61696d61626c60008201527f6520000000000000000000000000000000000000000000000000000000000000602082015250565b6000615d1a602283615430565b9150615d2582615cbe565b604082019050919050565b60006020820190508181036000830152615d4981615d0d565b9050919050565b6000606082019050615d656000830186615177565b615d726020830185614a8f565b615d7f6040830184614a8f565b949350505050565b600081519050615d9681614ac3565b92915050565b600060208284031215615db257615db1614ab9565b5b6000615dc084828501615d87565b91505092915050565b6000819050919050565b6000615dee615de9615de484615dc9565b614b73565b614a85565b9050919050565b615dfe81615dd3565b82525050565b6000604082019050615e19600083018561582d565b615e266020830184615df5565b9392505050565b600081519050615e3c81614bfb565b92915050565b600060208284031215615e5857615e57614ab9565b5b6000615e6684828501615e2d565b91505092915050565b6000604082019050615e846000830185615177565b615e916020830184614a8f565b9392505050565b6000819050919050565b6000615ebd615eb8615eb384615e98565b614b73565b614a85565b9050919050565b615ecd81615ea2565b82525050565b6000608082019050615ee86000830187615177565b615ef56020830186614a8f565b615f026040830185614a8f565b615f0f6060830184615ec4565b95945050505050565b6000604082019050615f2d6000830185614eb6565b615f3a6020830184614a8f565b9392505050565b6000606082019050615f566000830186614eb6565b615f636020830185615177565b615f706040830184614a8f565b94935050505056fea2646970667358221220d6bc9044c899ea8de48ac958700043be5debb882d7a1af7c9a7c9c2ff589af9c64736f6c634300080a0033",
  "immutableReferences": {},
  "source": "// SPDX-License-Identifier: MIT LICENSE\r\n\r\npragma solidity ^0.8.9;\r\n\r\nimport \"@openzeppelin/contracts/token/ERC721/IERC721Receiver.sol\";\r\nimport \"@openzeppelin/contracts/access/Ownable.sol\";\r\nimport \"@openzeppelin/contracts/utils/math/SafeMath.sol\";\r\nimport \"./IBooty.sol\";\r\nimport \"./IShop.sol\";\r\nimport \"./IPirateHunters.sol\";\r\n\r\n/**\r\n * Staking, unstaking, claims\r\n */\r\n\r\ninterface IUtils {\r\n    function getSomeRandomNumber(uint256 _seed, uint256 _limit)\r\n        external\r\n        view\r\n        returns (uint16);\r\n\r\n    function updateRandomIndex() external;\r\n}\r\n\r\ncontract BootyChest is Ownable, IERC721Receiver {\r\n    using SafeMath for uint256;\r\n\r\n    bool private _paused = false;\r\n\r\n    struct Stake {\r\n        uint16 tokenId;\r\n        uint256 value; // keep time stamp of entry\r\n        uint256 xtraReward; // for managing tax among other booty acquired\r\n        uint256 storedReward; // for managing reward carried from rank to rank among others\r\n        address owner;\r\n        uint8 rank; // rank 0, 1, 2 is A, B, C respectively\r\n    }\r\n\r\n    event TokenStaked(address owner, uint16 tokenId, uint256 value);\r\n    event BountyHunterClaimed(uint16 tokenId, uint256 earned, bool unstaked);\r\n    event PirateClaimed(uint16 tokenId, uint256 earned, bool unstaked);\r\n    event BootyBurned(\r\n        uint16 tokenId,\r\n        uint256 percentageBurned,\r\n        uint256 amountBurned,\r\n        uint256 earned\r\n    );\r\n    event Console(string msg, address add, uint256 amt);\r\n\r\n    IPirateHunters public pirateHunters;\r\n    IBooty public booty;\r\n    IShop public shop;\r\n    IUtils public utils;\r\n\r\n    mapping(uint256 => uint256) public bountyHunterIndices;\r\n    mapping(address => Stake[]) public bountyHunterStake;\r\n\r\n    mapping(uint256 => uint256) public pirateIndices;\r\n    mapping(address => Stake[]) public pirateStake;\r\n    address[] public pirateHolders;\r\n\r\n    // Total staked tokens\r\n    uint256 public totalBountyHunterStaked;\r\n    uint256 public totalPirateStaked = 0;\r\n\r\n    // pirate earn 10000 $BOOTY per day\r\n    uint256 public constant DAILY_PIRATE_BOOTY_RATE = 10000 ether;\r\n    // BountyHunter earn 30000 $BOOTY per day\r\n    uint256 public constant DAILY_HUNTER_BOOTY_RATE = 3000 ether;\r\n    uint256 public constant MINIMUM_PIRATE_BOOTY_TO_CLAIM = 20000 ether;\r\n    uint256 public constant MINIMUM_BOUNTY_HUNTER_BOOTY_TO_CLAIM = 0 ether;\r\n\r\n    uint256 public constant TAX_THRESHOLD = 50000 ether;\r\n    uint256 public constant TAX_PERCENTAGE_BOUNTY_HUNTER = 20;\r\n    uint256 public constant TAX_PERCENTAGE_PIRATE = 40;\r\n    //    uint public constant TAX_PERCENTAGE = 40;\r\n\r\n    uint256 public constant PERCENTAGE_TO_BE_ROBBED_FROM_BOUNTY_HUNTER = 50;\r\n    // percentage of  amount to burn once BH is robbed\r\n    uint256 public constant PERCENTAGE_OF_ROBBED_BURN_BOUNTY_HUNTER = 50;\r\n\r\n    uint256 public constant PERCENTAGE_TO_BE_ROBBED_FROM_PIRATE = 100;\r\n    // percentage of  amount to burn once Pirate is robbed\r\n    uint256 public constant PERCENTAGE_OF_ROBBED_BURN_PIRATE = 40;\r\n\r\n    uint8 public constant RANK_A = 0;\r\n    uint8 public constant RANK_B = 1;\r\n    uint8 public constant RANK_C = 2;\r\n\r\n    uint256 public constant MAXIMUM_GLOBAL_BOOTY = 10000000000 ether;\r\n\r\n    uint256 public totalBootyEarned;\r\n\r\n    uint256 public lastClaimTimestamp;\r\n    uint256 public pirateReward_A = 0;\r\n    uint256 public pirateReward_B = 0;\r\n    uint256 public pirateReward_C = 0;\r\n    uint256 public bountyHunterReward = 0;\r\n    uint256 public unaccountedBountyHuntersRewards = 0;\r\n    uint256 public unaccountedPirateRewards = 0;\r\n    uint256 public totalPirateRank_A = 0;\r\n    uint256 public totalPirateRank_B = 0;\r\n    uint256 public totalPirateRank_C = 0;\r\n\r\n    // emergency rescue to allow unstaking without any checks but without $BOOTY\r\n    bool public rescueEnabled = false;\r\n\r\n    function paused() public view virtual returns (bool) {\r\n        return _paused;\r\n    }\r\n\r\n    modifier whenNotPaused() {\r\n        require(!paused(), \"Pausable: paused\");\r\n        _;\r\n    }\r\n\r\n    modifier whenPaused() {\r\n        require(paused(), \"Pausable: not paused\");\r\n        _;\r\n    }\r\n\r\n    //    function setPirateHunters(address _pirateHunters) external onlyOwner {\r\n    //        pirateHunters = IPirateHunters(_pirateHunters);\r\n    //    }\r\n    //\r\n    //    function setBooty(address _booty) external onlyOwner {\r\n    //        booty = IBooty(_booty);\r\n    //    }\r\n    //\r\n    //    function setShop(address _shop) external onlyOwner {\r\n    //        shop = IShop(_shop);\r\n    //    }\r\n    //\r\n    //    function setUtils(address _utils) external onlyOwner {\r\n    //        utils = IUtils(_utils);\r\n    //    }\r\n\r\n    function setContracts(\r\n        address _pirateHunters,\r\n        address _booty,\r\n        address _shop,\r\n        address _utils\r\n    ) external onlyOwner {\r\n        pirateHunters = IPirateHunters(_pirateHunters);\r\n        booty = IBooty(_booty);\r\n        shop = IShop(_shop);\r\n        utils = IUtils(_utils);\r\n    }\r\n\r\n    function getAccountBountyHunters(address user)\r\n        external\r\n        view\r\n        returns (Stake[] memory)\r\n    {\r\n        return bountyHunterStake[user];\r\n    }\r\n\r\n    function getAccountPirates(address user)\r\n        external\r\n        view\r\n        returns (Stake[] memory)\r\n    {\r\n        return pirateStake[user];\r\n    }\r\n\r\n    function addTokensToStake(address account, uint16[] calldata tokenIds)\r\n        external\r\n    {\r\n        require(\r\n            account == msg.sender || msg.sender == address(pirateHunters),\r\n            \"You do not have a permission to stake tokens\"\r\n        );\r\n\r\n        for (uint256 i = 0; i < tokenIds.length; i++) {\r\n            if (msg.sender != address(pirateHunters)) {\r\n                // dont do this step if its a mint + stake\r\n                require(\r\n                    pirateHunters.ownerOf(tokenIds[i]) == msg.sender,\r\n                    \"This NFT does not belong to address\"\r\n                );\r\n                pirateHunters.transferFrom(\r\n                    msg.sender,\r\n                    address(this),\r\n                    tokenIds[i]\r\n                );\r\n            } else if (tokenIds[i] == 0) {\r\n                continue; // there may be gaps in the array for stolen tokens\r\n            }\r\n\r\n            if (pirateHunters.isPirate(tokenIds[i])) {\r\n                _stakePirates(account, tokenIds[i]);\r\n            } else {\r\n                _stakeBountyHunters(account, tokenIds[i]);\r\n            }\r\n        }\r\n    }\r\n\r\n    function _stakeBountyHunters(address account, uint16 tokenId)\r\n        internal\r\n        whenNotPaused\r\n    {\r\n        totalBountyHunterStaked += 1;\r\n\r\n        bountyHunterIndices[tokenId] = bountyHunterStake[account].length;\r\n        bountyHunterStake[account].push(\r\n            Stake({\r\n                owner: account,\r\n                tokenId: uint16(tokenId),\r\n                value: block.timestamp,\r\n                xtraReward: bountyHunterReward,\r\n                storedReward: 0,\r\n                rank: RANK_C\r\n            })\r\n        );\r\n\r\n        emit TokenStaked(account, tokenId, block.timestamp);\r\n    }\r\n\r\n    function _stakePirates(address account, uint16 tokenId) internal {\r\n        totalPirateStaked += 1;\r\n        totalPirateRank_C += 1;\r\n\r\n        // If account already has some pirates no need to push it to the tracker\r\n        if (pirateStake[account].length == 0) {\r\n            pirateHolders.push(account);\r\n        }\r\n\r\n        pirateIndices[tokenId] = pirateStake[account].length;\r\n        pirateStake[account].push(\r\n            Stake({\r\n                owner: account,\r\n                tokenId: uint16(tokenId),\r\n                value: block.timestamp, //uint80(pirateReward),  // Correct pirate reward should also be base on block time\r\n                xtraReward: pirateReward_C,\r\n                storedReward: 0,\r\n                rank: RANK_C\r\n            })\r\n        );\r\n\r\n        emit TokenStaked(account, tokenId, block.timestamp);\r\n    }\r\n\r\n    function claimFromStake(uint16[] calldata tokenIds, bool unstake)\r\n        external\r\n        whenNotPaused\r\n    {\r\n        uint256 owed = 0;\r\n        for (uint256 i = 0; i < tokenIds.length; i++) {\r\n            if (!pirateHunters.isPirate(tokenIds[i])) {\r\n                owed += _claimFromHunter(tokenIds[i], unstake);\r\n            } else {\r\n                owed += _claimFromPirate(tokenIds[i], unstake);\r\n            }\r\n        }\r\n        if (owed == 0) return;\r\n        mintBooty(msg.sender, owed);\r\n    }\r\n\r\n    function possibleClaimForToken(uint16 tokenId)\r\n        public\r\n        view\r\n        returns (uint256)\r\n    {\r\n        // uint x = 0;\r\n        if (pirateHunters.isPirate(tokenId)) {\r\n            Stake memory stake = pirateStake[msg.sender][\r\n                pirateIndices[tokenId]\r\n            ];\r\n            return _possibleClaimForPirate(stake);\r\n        } else {\r\n            Stake memory stake = bountyHunterStake[msg.sender][\r\n                bountyHunterIndices[tokenId]\r\n            ];\r\n            return _possibleClaimForHunter(stake);\r\n        }\r\n        // owed = x;\r\n    }\r\n\r\n    function _possibleClaimForHunter(Stake memory stake)\r\n        private\r\n        view\r\n        returns (uint256 owed)\r\n    {\r\n        require(\r\n            stake.owner == msg.sender,\r\n            \"This NFT does not belong to address\"\r\n        );\r\n        require(\r\n            totalBootyEarned < MAXIMUM_GLOBAL_BOOTY,\r\n            \"$BOOTY production stopped\"\r\n        );\r\n        require(stake.value > 0, \"Token not staked\");\r\n\r\n        uint256 current = block.timestamp;\r\n        owed = ((current - stake.value) * DAILY_HUNTER_BOOTY_RATE) / 1 days;\r\n\r\n        // add all extra acquired\r\n        owed += (bountyHunterReward - stake.xtraReward) + stake.storedReward;\r\n    }\r\n\r\n    function mintAndBurn(uint256 amount) internal {\r\n        mintBooty(address(this), amount);\r\n        booty.burn(address(this), amount);\r\n    }\r\n\r\n    function mintBooty(address to, uint256 amount) internal {\r\n        booty.mint(to, amount);\r\n        totalBootyEarned += amount;\r\n    }\r\n\r\n    function _claimFromHunter(uint16 tokenId, bool unstake)\r\n        internal\r\n        returns (uint256 owed)\r\n    {\r\n        Stake memory stake = bountyHunterStake[msg.sender][\r\n            bountyHunterIndices[tokenId]\r\n        ];\r\n\r\n        owed = _possibleClaimForHunter(stake);\r\n        require(\r\n            owed > MINIMUM_BOUNTY_HUNTER_BOOTY_TO_CLAIM,\r\n            \"$BOOTY less than minimum\"\r\n        );\r\n        //Burning and robbery\r\n\r\n        if (owed <= TAX_THRESHOLD) {\r\n            uint256 tax = (TAX_PERCENTAGE_BOUNTY_HUNTER * owed) / 100;\r\n            owed -= tax;\r\n            mintAndBurn(tax);\r\n            emit BootyBurned(tokenId, TAX_PERCENTAGE_BOUNTY_HUNTER, tax, owed);\r\n        } else {\r\n            uint256 robbed = (PERCENTAGE_TO_BE_ROBBED_FROM_BOUNTY_HUNTER *\r\n                owed) / 100;\r\n            owed -= robbed;\r\n            _payTaxBountyHunter(robbed);\r\n        }\r\n\r\n        if (unstake) {\r\n            totalBountyHunterStaked -= 1;\r\n            Stake memory lastStake = bountyHunterStake[msg.sender][\r\n                bountyHunterStake[msg.sender].length - 1\r\n            ];\r\n            bountyHunterStake[msg.sender][\r\n                bountyHunterIndices[tokenId]\r\n            ] = lastStake;\r\n            bountyHunterIndices[lastStake.tokenId] = bountyHunterIndices[\r\n                tokenId\r\n            ];\r\n            bountyHunterStake[msg.sender].pop();\r\n            delete bountyHunterIndices[tokenId];\r\n            pirateHunters.safeTransferFrom(\r\n                address(this),\r\n                msg.sender,\r\n                tokenId,\r\n                \"\"\r\n            );\r\n        } else {\r\n            // uint80 timestamp = uint80(block.timestamp);\r\n            bountyHunterStake[msg.sender][\r\n                bountyHunterIndices[tokenId]\r\n            ] = Stake({\r\n                owner: msg.sender,\r\n                tokenId: uint16(tokenId),\r\n                value: block.timestamp,\r\n                xtraReward: bountyHunterReward,\r\n                storedReward: 0,\r\n                rank: stake.rank\r\n            }); // reset stake\r\n        }\r\n\r\n        emit BountyHunterClaimed(tokenId, owed, unstake);\r\n    }\r\n\r\n    function _possibleClaimForPirate(Stake memory stake)\r\n        private\r\n        view\r\n        returns (uint256)\r\n    {\r\n        require(\r\n            pirateHunters.ownerOf(stake.tokenId) == address(this),\r\n            \"This NFT does not belong to address\"\r\n        );\r\n        require(\r\n            stake.owner == msg.sender,\r\n            \"This NFT does not belong to address\"\r\n        );\r\n        require(\r\n            totalBootyEarned < MAXIMUM_GLOBAL_BOOTY,\r\n            \"$BOOTY production stopped\"\r\n        );\r\n        require(stake.value > 0, \"Token not staked\");\r\n\r\n        uint256 current = block.timestamp;\r\n        uint256 owed = ((current - stake.value) * DAILY_PIRATE_BOOTY_RATE) /\r\n            1 days;\r\n\r\n        uint256 pirateReward = 0;\r\n        if (stake.rank == RANK_A) {\r\n            pirateReward = pirateReward_A;\r\n        } else if (stake.rank == RANK_B) {\r\n            pirateReward = pirateReward_B;\r\n        } else {\r\n            pirateReward = pirateReward_C;\r\n        }\r\n        owed += (pirateReward - stake.xtraReward) + stake.storedReward;\r\n        return owed;\r\n    }\r\n\r\n    function _claimFromPirate(uint16 tokenId, bool unstake)\r\n        internal\r\n        returns (uint256 owed)\r\n    {\r\n        require(\r\n            pirateHunters.ownerOf(tokenId) == address(this),\r\n            \"This NFT does not belong to address\"\r\n        );\r\n\r\n        Stake memory stake = pirateStake[msg.sender][pirateIndices[tokenId]];\r\n\r\n        require(\r\n            stake.owner == msg.sender,\r\n            \"This NFT does not belong to address\"\r\n        );\r\n\r\n        owed = _possibleClaimForPirate(stake);\r\n\r\n        require(\r\n            owed >= MINIMUM_PIRATE_BOOTY_TO_CLAIM,\r\n            \"$BOOTY not upto minimum claimable \"\r\n        );\r\n\r\n        if (address(shop) != address(0))\r\n            owed = shop.useOffensiveItems(\r\n                tokenId,\r\n                DAILY_PIRATE_BOOTY_RATE,\r\n                owed\r\n            ); // offensive only\r\n\r\n        if (owed <= TAX_THRESHOLD) {\r\n            uint256 tax = (TAX_PERCENTAGE_PIRATE * owed) / 100;\r\n            owed -= tax;\r\n            _payTaxPirate(tax);\r\n        } else {\r\n            if (utils.getSomeRandomNumber(tokenId, 100) <= 50) {\r\n                uint256 burn = (PERCENTAGE_OF_ROBBED_BURN_PIRATE * owed) / 100;\r\n\r\n                uint256 tax = owed - burn;\r\n                if (address(shop) != address(0))\r\n                    tax = shop.useDefensiveItems(tokenId, tax); // defensive only\r\n                _payTaxPirate(tax); // pay 60% of what is robbed\r\n                mintAndBurn(burn); // burn 40%\r\n                emit BootyBurned(\r\n                    tokenId,\r\n                    PERCENTAGE_OF_ROBBED_BURN_PIRATE,\r\n                    owed,\r\n                    0\r\n                );\r\n                owed = 0;\r\n            }\r\n            utils.updateRandomIndex();\r\n        }\r\n\r\n        if (unstake) {\r\n            totalPirateStaked -= 1; // Remove Alpha from total staked\r\n            if (stake.rank == RANK_A) {\r\n                totalPirateRank_A -= 1;\r\n            } else if (stake.rank == RANK_B) {\r\n                totalPirateRank_B -= 1;\r\n            } else {\r\n                totalPirateRank_C -= 1;\r\n            }\r\n\r\n            Stake memory lastStake = pirateStake[msg.sender][\r\n                pirateStake[msg.sender].length - 1\r\n            ];\r\n            pirateStake[msg.sender][pirateIndices[tokenId]] = lastStake;\r\n            pirateIndices[lastStake.tokenId] = pirateIndices[tokenId];\r\n            pirateStake[msg.sender].pop();\r\n            delete pirateIndices[tokenId];\r\n            updatePirateOwnerAddressList(msg.sender);\r\n\r\n            pirateHunters.safeTransferFrom(\r\n                address(this),\r\n                msg.sender,\r\n                tokenId,\r\n                \"\"\r\n            );\r\n        } else {\r\n            uint256 currentPirateReward = uint80(pirateReward_C);\r\n            if (stake.rank == RANK_A) {\r\n                currentPirateReward = uint80(pirateReward_A);\r\n            } else if (stake.rank == RANK_B) {\r\n                currentPirateReward = uint80(pirateReward_B);\r\n            }\r\n            pirateStake[msg.sender][pirateIndices[tokenId]] = Stake({\r\n                owner: msg.sender,\r\n                tokenId: uint16(tokenId),\r\n                value: block.timestamp, // ,\r\n                xtraReward: currentPirateReward,\r\n                storedReward: 0,\r\n                rank: stake.rank\r\n            }); // reset stake\r\n        }\r\n        emit PirateClaimed(tokenId, owed, unstake);\r\n    }\r\n\r\n    function updatePirateOwnerAddressList(address account) internal {\r\n        if (pirateStake[account].length != 0) {\r\n            return; // No need to update holders\r\n        }\r\n\r\n        // Update the address list of holders, account unstaked all pirates\r\n        address lastOwner = pirateHolders[pirateHolders.length - 1];\r\n        uint256 indexOfHolder = 0;\r\n        for (uint256 i = 0; i < pirateHolders.length; i++) {\r\n            if (pirateHolders[i] == account) {\r\n                indexOfHolder = i;\r\n                break;\r\n            }\r\n        }\r\n        pirateHolders[indexOfHolder] = lastOwner;\r\n        pirateHolders.pop();\r\n    }\r\n\r\n    // pirate pay tax to Bounty Hunters\r\n    function _payTaxPirate(uint256 _amount) internal {\r\n        if (totalBountyHunterStaked == 0) {\r\n            unaccountedBountyHuntersRewards += _amount;\r\n            return;\r\n        }\r\n\r\n        bountyHunterReward +=\r\n            (_amount + unaccountedBountyHuntersRewards) /\r\n            totalBountyHunterStaked;\r\n        unaccountedBountyHuntersRewards = 0;\r\n    }\r\n\r\n    //Bounty hunters pay tax to pirate\r\n    function _payTaxBountyHunter(uint256 _amount) internal {\r\n        if (totalPirateStaked == 0) {\r\n            unaccountedPirateRewards += _amount;\r\n            return;\r\n        }\r\n\r\n        //        pirateReward += (_amount + unaccountedPirateRewards) / totalPirateStaked;\r\n        uint256 pirateReward = (_amount + unaccountedPirateRewards);\r\n        // using 1.5x + 1.25x + x = pirateReward (total pirate reward)\r\n        uint256 x = (pirateReward * 375) / 100; // 375/100 = 3.75\r\n        pirateReward_C += x / totalPirateRank_C;\r\n        pirateReward_B += ((125 * x) / 100) / totalPirateRank_B;\r\n        pirateReward_A += ((15 * x) / 10) / totalPirateRank_A;\r\n\r\n        unaccountedPirateRewards = 0;\r\n    }\r\n\r\n    modifier _updateEarnings() {\r\n        if (totalBootyEarned < MAXIMUM_GLOBAL_BOOTY) {\r\n            totalBootyEarned +=\r\n                ((block.timestamp - lastClaimTimestamp) *\r\n                    totalBountyHunterStaked *\r\n                    DAILY_PIRATE_BOOTY_RATE) /\r\n                1 days;\r\n            lastClaimTimestamp = block.timestamp;\r\n        }\r\n        _;\r\n    }\r\n\r\n    function setPaused(bool _state) external onlyOwner {\r\n        _paused = _state;\r\n    }\r\n\r\n    function isOwnerOf(uint16 tokenId, address owner)\r\n        external\r\n        view\r\n        returns (bool)\r\n    {\r\n        if (pirateHunters.isPirate(tokenId)) {\r\n            return pirateStake[owner][pirateIndices[tokenId]].owner == owner;\r\n        } else {\r\n            return\r\n                bountyHunterStake[owner][bountyHunterIndices[tokenId]].owner ==\r\n                owner;\r\n        }\r\n    }\r\n\r\n    function effectRankUp(uint256 tokenId, uint256 newRank) external {\r\n        require(msg.sender == address(shop), \"Unauthorized\");\r\n        Stake memory stake = pirateStake[msg.sender][pirateIndices[tokenId]];\r\n        if (newRank == RANK_B) {\r\n            // calculate carry over shared reward\r\n            uint256 share = (pirateReward_C - stake.xtraReward) /\r\n                totalPirateRank_C;\r\n            pirateStake[msg.sender][pirateIndices[tokenId]] = Stake({\r\n                owner: msg.sender,\r\n                tokenId: uint16(tokenId),\r\n                value: block.timestamp,\r\n                xtraReward: pirateReward_B,\r\n                storedReward: share,\r\n                rank: RANK_B\r\n            }); // reset stake\r\n\r\n            totalPirateRank_C -= 1;\r\n            totalPirateRank_B += 1;\r\n        } else if (newRank == RANK_A) {\r\n            uint256 share = (pirateReward_B - stake.xtraReward) /\r\n                totalPirateRank_B;\r\n            pirateStake[msg.sender][pirateIndices[tokenId]] = Stake({\r\n                owner: msg.sender,\r\n                tokenId: uint16(tokenId),\r\n                value: block.timestamp,\r\n                xtraReward: pirateReward_A,\r\n                storedReward: share,\r\n                rank: RANK_A\r\n            });\r\n\r\n            totalPirateRank_B -= 1;\r\n            totalPirateRank_A += 1;\r\n        }\r\n    }\r\n\r\n    function onERC721Received(\r\n        address,\r\n        address from,\r\n        uint256,\r\n        bytes calldata\r\n    ) external pure override returns (bytes4) {\r\n        require(\r\n            from == address(0x0),\r\n            \"Cannot send tokens to this contact directly\"\r\n        );\r\n        return IERC721Receiver.onERC721Received.selector;\r\n    }\r\n}\r\n",
  "sourcePath": "E:\\work\\Blockchain\\review-code\\contract\\piratehunternftsolidity\\contracts\\BootyChest.sol",
  "compiler": {
    "name": "solc",
    "version": "0.8.10+commit.fc410830.Emscripten.clang"
  },
  "schemaVersion": "3.4.3",
  "updatedAt": "2021-12-30T00:56:38.574Z",
  "devdoc": {
    "kind": "dev",
    "methods": {
      "owner()": {
        "details": "Returns the address of the current owner."
      },
      "renounceOwnership()": {
        "details": "Leaves the contract without owner. It will not be possible to call `onlyOwner` functions anymore. Can only be called by the current owner. NOTE: Renouncing ownership will leave the contract without an owner, thereby removing any functionality that is only available to the owner."
      },
      "transferOwnership(address)": {
        "details": "Transfers ownership of the contract to a new account (`newOwner`). Can only be called by the current owner."
      }
    },
    "version": 1
  },
  "userdoc": {
    "kind": "user",
    "methods": {},
    "version": 1
  }
}