{
  "contractName": "Booty",
  "abi": [
    {
      "inputs": [],
      "stateMutability": "nonpayable",
      "type": "constructor"
    },
    {
      "anonymous": false,
      "inputs": [
        {
          "indexed": true,
          "internalType": "address",
          "name": "owner",
          "type": "address"
        },
        {
          "indexed": true,
          "internalType": "address",
          "name": "spender",
          "type": "address"
        },
        {
          "indexed": false,
          "internalType": "uint256",
          "name": "value",
          "type": "uint256"
        }
      ],
      "name": "Approval",
      "type": "event"
    },
    {
      "anonymous": false,
      "inputs": [
        {
          "indexed": true,
          "internalType": "address",
          "name": "previousOwner",
          "type": "address"
        },
        {
          "indexed": true,
          "internalType": "address",
          "name": "newOwner",
          "type": "address"
        }
      ],
      "name": "OwnershipTransferred",
      "type": "event"
    },
    {
      "anonymous": false,
      "inputs": [
        {
          "indexed": true,
          "internalType": "address",
          "name": "from",
          "type": "address"
        },
        {
          "indexed": true,
          "internalType": "address",
          "name": "to",
          "type": "address"
        },
        {
          "indexed": false,
          "internalType": "uint256",
          "name": "value",
          "type": "uint256"
        }
      ],
      "name": "Transfer",
      "type": "event"
    },
    {
      "inputs": [
        {
          "internalType": "address",
          "name": "owner",
          "type": "address"
        },
        {
          "internalType": "address",
          "name": "spender",
          "type": "address"
        }
      ],
      "name": "allowance",
      "outputs": [
        {
          "internalType": "uint256",
          "name": "",
          "type": "uint256"
        }
      ],
      "stateMutability": "view",
      "type": "function"
    },
    {
      "inputs": [
        {
          "internalType": "address",
          "name": "spender",
          "type": "address"
        },
        {
          "internalType": "uint256",
          "name": "amount",
          "type": "uint256"
        }
      ],
      "name": "approve",
      "outputs": [
        {
          "internalType": "bool",
          "name": "",
          "type": "bool"
        }
      ],
      "stateMutability": "nonpayable",
      "type": "function"
    },
    {
      "inputs": [
        {
          "internalType": "address",
          "name": "account",
          "type": "address"
        }
      ],
      "name": "balanceOf",
      "outputs": [
        {
          "internalType": "uint256",
          "name": "",
          "type": "uint256"
        }
      ],
      "stateMutability": "view",
      "type": "function"
    },
    {
      "inputs": [
        {
          "internalType": "address",
          "name": "",
          "type": "address"
        }
      ],
      "name": "controllers",
      "outputs": [
        {
          "internalType": "bool",
          "name": "",
          "type": "bool"
        }
      ],
      "stateMutability": "view",
      "type": "function"
    },
    {
      "inputs": [],
      "name": "decimals",
      "outputs": [
        {
          "internalType": "uint8",
          "name": "",
          "type": "uint8"
        }
      ],
      "stateMutability": "view",
      "type": "function"
    },
    {
      "inputs": [
        {
          "internalType": "address",
          "name": "spender",
          "type": "address"
        },
        {
          "internalType": "uint256",
          "name": "subtractedValue",
          "type": "uint256"
        }
      ],
      "name": "decreaseAllowance",
      "outputs": [
        {
          "internalType": "bool",
          "name": "",
          "type": "bool"
        }
      ],
      "stateMutability": "nonpayable",
      "type": "function"
    },
    {
      "inputs": [
        {
          "internalType": "address",
          "name": "spender",
          "type": "address"
        },
        {
          "internalType": "uint256",
          "name": "addedValue",
          "type": "uint256"
        }
      ],
      "name": "increaseAllowance",
      "outputs": [
        {
          "internalType": "bool",
          "name": "",
          "type": "bool"
        }
      ],
      "stateMutability": "nonpayable",
      "type": "function"
    },
    {
      "inputs": [],
      "name": "name",
      "outputs": [
        {
          "internalType": "string",
          "name": "",
          "type": "string"
        }
      ],
      "stateMutability": "view",
      "type": "function"
    },
    {
      "inputs": [],
      "name": "owner",
      "outputs": [
        {
          "internalType": "address",
          "name": "",
          "type": "address"
        }
      ],
      "stateMutability": "view",
      "type": "function"
    },
    {
      "inputs": [],
      "name": "renounceOwnership",
      "outputs": [],
      "stateMutability": "nonpayable",
      "type": "function"
    },
    {
      "inputs": [],
      "name": "symbol",
      "outputs": [
        {
          "internalType": "string",
          "name": "",
          "type": "string"
        }
      ],
      "stateMutability": "view",
      "type": "function"
    },
    {
      "inputs": [],
      "name": "totalSupply",
      "outputs": [
        {
          "internalType": "uint256",
          "name": "",
          "type": "uint256"
        }
      ],
      "stateMutability": "view",
      "type": "function"
    },
    {
      "inputs": [
        {
          "internalType": "address",
          "name": "recipient",
          "type": "address"
        },
        {
          "internalType": "uint256",
          "name": "amount",
          "type": "uint256"
        }
      ],
      "name": "transfer",
      "outputs": [
        {
          "internalType": "bool",
          "name": "",
          "type": "bool"
        }
      ],
      "stateMutability": "nonpayable",
      "type": "function"
    },
    {
      "inputs": [
        {
          "internalType": "address",
          "name": "sender",
          "type": "address"
        },
        {
          "internalType": "address",
          "name": "recipient",
          "type": "address"
        },
        {
          "internalType": "uint256",
          "name": "amount",
          "type": "uint256"
        }
      ],
      "name": "transferFrom",
      "outputs": [
        {
          "internalType": "bool",
          "name": "",
          "type": "bool"
        }
      ],
      "stateMutability": "nonpayable",
      "type": "function"
    },
    {
      "inputs": [
        {
          "internalType": "address",
          "name": "newOwner",
          "type": "address"
        }
      ],
      "name": "transferOwnership",
      "outputs": [],
      "stateMutability": "nonpayable",
      "type": "function"
    },
    {
      "inputs": [],
      "name": "cap",
      "outputs": [
        {
          "internalType": "uint256",
          "name": "",
          "type": "uint256"
        }
      ],
      "stateMutability": "view",
      "type": "function"
    },
    {
      "inputs": [
        {
          "internalType": "address",
          "name": "to",
          "type": "address"
        },
        {
          "internalType": "uint256",
          "name": "amount",
          "type": "uint256"
        }
      ],
      "name": "mint",
      "outputs": [],
      "stateMutability": "nonpayable",
      "type": "function"
    },
    {
      "inputs": [
        {
          "internalType": "address",
          "name": "from",
          "type": "address"
        },
        {
          "internalType": "uint256",
          "name": "amount",
          "type": "uint256"
        }
      ],
      "name": "burn",
      "outputs": [],
      "stateMutability": "nonpayable",
      "type": "function"
    },
    {
      "inputs": [
        {
          "internalType": "address",
          "name": "controller",
          "type": "address"
        }
      ],
      "name": "addController",
      "outputs": [],
      "stateMutability": "nonpayable",
      "type": "function"
    },
    {
      "inputs": [
        {
          "internalType": "address",
          "name": "controller",
          "type": "address"
        }
      ],
      "name": "removeController",
      "outputs": [],
      "stateMutability": "nonpayable",
      "type": "function"
    }
  ],
  "bytecode": "0x60a06040526b204fce5e3e250261100000006080908152503480156200002457600080fd5b506040518060400160405280600581526020017f426f6f74790000000000000000000000000000000000000000000000000000008152506040518060400160405280600681526020017f24424f4f545900000000000000000000000000000000000000000000000000008152508160039080519060200190620000a9929190620001b9565b508060049080519060200190620000c2929190620001b9565b505050620000e5620000d9620000eb60201b60201c565b620000f360201b60201c565b620002ce565b600033905090565b6000600560009054906101000a900473ffffffffffffffffffffffffffffffffffffffff16905081600560006101000a81548173ffffffffffffffffffffffffffffffffffffffff021916908373ffffffffffffffffffffffffffffffffffffffff1602179055508173ffffffffffffffffffffffffffffffffffffffff168173ffffffffffffffffffffffffffffffffffffffff167f8be0079c531659141344cd1fd0a4f28419497f9722a3daafe3b4186f6b6457e060405160405180910390a35050565b828054620001c79062000298565b90600052602060002090601f016020900481019282620001eb576000855562000237565b82601f106200020657805160ff191683800117855562000237565b8280016001018555821562000237579182015b828111156200023657825182559160200191906001019062000219565b5b5090506200024691906200024a565b5090565b5b80821115620002655760008160009055506001016200024b565b5090565b7f4e487b7100000000000000000000000000000000000000000000000000000000600052602260045260246000fd5b60006002820490506001821680620002b157607f821691505b60208210811415620002c857620002c762000269565b5b50919050565b608051612266620002ea60003960006105ba01526122666000f3fe608060405234801561001057600080fd5b506004361061012c5760003560e01c80638da5cb5b116100ad578063a9059cbb11610071578063a9059cbb14610333578063da8c229e14610363578063dd62ed3e14610393578063f2fde38b146103c3578063f6a74ed7146103df5761012c565b80638da5cb5b1461028f57806395d89b41146102ad5780639dc29fac146102cb578063a457c2d7146102e7578063a7fc7a07146103175761012c565b8063355274ea116100f4578063355274ea146101eb578063395093511461020957806340c10f191461023957806370a0823114610255578063715018a6146102855761012c565b806306fdde0314610131578063095ea7b31461014f57806318160ddd1461017f57806323b872dd1461019d578063313ce567146101cd575b600080fd5b6101396103fb565b6040516101469190611736565b60405180910390f35b610169600480360381019061016491906117f1565b61048d565b604051610176919061184c565b60405180910390f35b6101876104ab565b6040516101949190611876565b60405180910390f35b6101b760048036038101906101b29190611891565b6104b5565b6040516101c4919061184c565b60405180910390f35b6101d56105ad565b6040516101e29190611900565b60405180910390f35b6101f36105b6565b6040516102009190611876565b60405180910390f35b610223600480360381019061021e91906117f1565b6105de565b604051610230919061184c565b60405180910390f35b610253600480360381019061024e91906117f1565b61068a565b005b61026f600480360381019061026a919061191b565b6107b0565b60405161027c9190611876565b60405180910390f35b61028d6107f8565b005b610297610880565b6040516102a49190611957565b60405180910390f35b6102b56108aa565b6040516102c29190611736565b60405180910390f35b6102e560048036038101906102e091906117f1565b61093c565b005b61030160048036038101906102fc91906117f1565b6109d6565b60405161030e919061184c565b60405180910390f35b610331600480360381019061032c919061191b565b610ac1565b005b61034d600480360381019061034891906117f1565b610b98565b60405161035a919061184c565b60405180910390f35b61037d6004803603810190610378919061191b565b610bb6565b60405161038a919061184c565b60405180910390f35b6103ad60048036038101906103a89190611972565b610bd6565b6040516103ba9190611876565b60405180910390f35b6103dd60048036038101906103d8919061191b565b610c5d565b005b6103f960048036038101906103f4919061191b565b610d55565b005b60606003805461040a906119e1565b80601f0160208091040260200160405190810160405280929190818152602001828054610436906119e1565b80156104835780601f1061045857610100808354040283529160200191610483565b820191906000526020600020905b81548152906001019060200180831161046657829003601f168201915b5050505050905090565b60006104a161049a610e2c565b8484610e34565b6001905092915050565b6000600254905090565b60006104c2848484610fff565b6000600160008673ffffffffffffffffffffffffffffffffffffffff1673ffffffffffffffffffffffffffffffffffffffff168152602001908152602001600020600061050d610e2c565b73ffffffffffffffffffffffffffffffffffffffff1673ffffffffffffffffffffffffffffffffffffffff1681526020019081526020016000205490508281101561058d576040517f08c379a000000000000000000000000000000000000000000000000000000000815260040161058490611a85565b60405180910390fd5b6105a185610599610e2c565b858403610e34565b60019150509392505050565b60006012905090565b60007f0000000000000000000000000000000000000000000000000000000000000000905090565b60006106806105eb610e2c565b8484600160006105f9610e2c565b73ffffffffffffffffffffffffffffffffffffffff1673ffffffffffffffffffffffffffffffffffffffff16815260200190815260200160002060008873ffffffffffffffffffffffffffffffffffffffff1673ffffffffffffffffffffffffffffffffffffffff1681526020019081526020016000205461067b9190611ad4565b610e34565b6001905092915050565b600660003373ffffffffffffffffffffffffffffffffffffffff1673ffffffffffffffffffffffffffffffffffffffff16815260200190815260200160002060009054906101000a900460ff16610716576040517f08c379a000000000000000000000000000000000000000000000000000000000815260040161070d90611b76565b60405180910390fd5b61071e6105b6565b6107388261072a6104ab565b61128090919063ffffffff16565b111561077a5760006107486105b6565b610762836107546104ab565b61128090919063ffffffff16565b61076c9190611b96565b90506107788382611296565b505b6107826105b6565b61079c8261078e6104ab565b61128090919063ffffffff16565b116107ac576107ab8282611296565b5b5050565b60008060008373ffffffffffffffffffffffffffffffffffffffff1673ffffffffffffffffffffffffffffffffffffffff168152602001908152602001600020549050919050565b610800610e2c565b73ffffffffffffffffffffffffffffffffffffffff1661081e610880565b73ffffffffffffffffffffffffffffffffffffffff1614610874576040517f08c379a000000000000000000000000000000000000000000000000000000000815260040161086b90611c16565b60405180910390fd5b61087e60006113f6565b565b6000600560009054906101000a900473ffffffffffffffffffffffffffffffffffffffff16905090565b6060600480546108b9906119e1565b80601f01602080910402602001604051908101604052809291908181526020018280546108e5906119e1565b80156109325780601f1061090757610100808354040283529160200191610932565b820191906000526020600020905b81548152906001019060200180831161091557829003601f168201915b5050505050905090565b600660003373ffffffffffffffffffffffffffffffffffffffff1673ffffffffffffffffffffffffffffffffffffffff16815260200190815260200160002060009054906101000a900460ff166109c8576040517f08c379a00000000000000000000000000000000000000000000000000000000081526004016109bf90611c82565b60405180910390fd5b6109d282826114bc565b5050565b600080600160006109e5610e2c565b73ffffffffffffffffffffffffffffffffffffffff1673ffffffffffffffffffffffffffffffffffffffff16815260200190815260200160002060008573ffffffffffffffffffffffffffffffffffffffff1673ffffffffffffffffffffffffffffffffffffffff16815260200190815260200160002054905082811015610aa2576040517f08c379a0000000000000000000000000000000000000000000000000000000008152600401610a9990611d14565b60405180910390fd5b610ab6610aad610e2c565b85858403610e34565b600191505092915050565b610ac9610e2c565b73ffffffffffffffffffffffffffffffffffffffff16610ae7610880565b73ffffffffffffffffffffffffffffffffffffffff1614610b3d576040517f08c379a0000000000000000000000000000000000000000000000000000000008152600401610b3490611c16565b60405180910390fd5b6001600660008373ffffffffffffffffffffffffffffffffffffffff1673ffffffffffffffffffffffffffffffffffffffff16815260200190815260200160002060006101000a81548160ff02191690831515021790555050565b6000610bac610ba5610e2c565b8484610fff565b6001905092915050565b60066020528060005260406000206000915054906101000a900460ff1681565b6000600160008473ffffffffffffffffffffffffffffffffffffffff1673ffffffffffffffffffffffffffffffffffffffff16815260200190815260200160002060008373ffffffffffffffffffffffffffffffffffffffff1673ffffffffffffffffffffffffffffffffffffffff16815260200190815260200160002054905092915050565b610c65610e2c565b73ffffffffffffffffffffffffffffffffffffffff16610c83610880565b73ffffffffffffffffffffffffffffffffffffffff1614610cd9576040517f08c379a0000000000000000000000000000000000000000000000000000000008152600401610cd090611c16565b60405180910390fd5b600073ffffffffffffffffffffffffffffffffffffffff168173ffffffffffffffffffffffffffffffffffffffff161415610d49576040517f08c379a0000000000000000000000000000000000000000000000000000000008152600401610d4090611da6565b60405180910390fd5b610d52816113f6565b50565b610d5d610e2c565b73ffffffffffffffffffffffffffffffffffffffff16610d7b610880565b73ffffffffffffffffffffffffffffffffffffffff1614610dd1576040517f08c379a0000000000000000000000000000000000000000000000000000000008152600401610dc890611c16565b60405180910390fd5b6000600660008373ffffffffffffffffffffffffffffffffffffffff1673ffffffffffffffffffffffffffffffffffffffff16815260200190815260200160002060006101000a81548160ff02191690831515021790555050565b600033905090565b600073ffffffffffffffffffffffffffffffffffffffff168373ffffffffffffffffffffffffffffffffffffffff161415610ea4576040517f08c379a0000000000000000000000000000000000000000000000000000000008152600401610e9b90611e38565b60405180910390fd5b600073ffffffffffffffffffffffffffffffffffffffff168273ffffffffffffffffffffffffffffffffffffffff161415610f14576040517f08c379a0000000000000000000000000000000000000000000000000000000008152600401610f0b90611eca565b60405180910390fd5b80600160008573ffffffffffffffffffffffffffffffffffffffff1673ffffffffffffffffffffffffffffffffffffffff16815260200190815260200160002060008473ffffffffffffffffffffffffffffffffffffffff1673ffffffffffffffffffffffffffffffffffffffff168152602001908152602001600020819055508173ffffffffffffffffffffffffffffffffffffffff168373ffffffffffffffffffffffffffffffffffffffff167f8c5be1e5ebec7d5bd14f71427d1e84f3dd0314c0f7b2291e5b200ac8c7c3b92583604051610ff29190611876565b60405180910390a3505050565b600073ffffffffffffffffffffffffffffffffffffffff168373ffffffffffffffffffffffffffffffffffffffff16141561106f576040517f08c379a000000000000000000000000000000000000000000000000000000000815260040161106690611f5c565b60405180910390fd5b600073ffffffffffffffffffffffffffffffffffffffff168273ffffffffffffffffffffffffffffffffffffffff1614156110df576040517f08c379a00000000000000000000000000000000000000000000000000000000081526004016110d690611fee565b60405180910390fd5b6110ea838383611693565b60008060008573ffffffffffffffffffffffffffffffffffffffff1673ffffffffffffffffffffffffffffffffffffffff16815260200190815260200160002054905081811015611170576040517f08c379a000000000000000000000000000000000000000000000000000000000815260040161116790612080565b60405180910390fd5b8181036000808673ffffffffffffffffffffffffffffffffffffffff1673ffffffffffffffffffffffffffffffffffffffff16815260200190815260200160002081905550816000808573ffffffffffffffffffffffffffffffffffffffff1673ffffffffffffffffffffffffffffffffffffffff16815260200190815260200160002060008282546112039190611ad4565b925050819055508273ffffffffffffffffffffffffffffffffffffffff168473ffffffffffffffffffffffffffffffffffffffff167fddf252ad1be2c89b69c2b068fc378daa952ba7f163c4a11628f55a4df523b3ef846040516112679190611876565b60405180910390a361127a848484611698565b50505050565b6000818361128e9190611ad4565b905092915050565b600073ffffffffffffffffffffffffffffffffffffffff168273ffffffffffffffffffffffffffffffffffffffff161415611306576040517f08c379a00000000000000000000000000000000000000000000000000000000081526004016112fd906120ec565b60405180910390fd5b61131260008383611693565b80600260008282546113249190611ad4565b92505081905550806000808473ffffffffffffffffffffffffffffffffffffffff1673ffffffffffffffffffffffffffffffffffffffff16815260200190815260200160002060008282546113799190611ad4565b925050819055508173ffffffffffffffffffffffffffffffffffffffff16600073ffffffffffffffffffffffffffffffffffffffff167fddf252ad1be2c89b69c2b068fc378daa952ba7f163c4a11628f55a4df523b3ef836040516113de9190611876565b60405180910390a36113f260008383611698565b5050565b6000600560009054906101000a900473ffffffffffffffffffffffffffffffffffffffff16905081600560006101000a81548173ffffffffffffffffffffffffffffffffffffffff021916908373ffffffffffffffffffffffffffffffffffffffff1602179055508173ffffffffffffffffffffffffffffffffffffffff168173ffffffffffffffffffffffffffffffffffffffff167f8be0079c531659141344cd1fd0a4f28419497f9722a3daafe3b4186f6b6457e060405160405180910390a35050565b600073ffffffffffffffffffffffffffffffffffffffff168273ffffffffffffffffffffffffffffffffffffffff16141561152c576040517f08c379a00000000000000000000000000000000000000000000000000000000081526004016115239061217e565b60405180910390fd5b61153882600083611693565b60008060008473ffffffffffffffffffffffffffffffffffffffff1673ffffffffffffffffffffffffffffffffffffffff168152602001908152602001600020549050818110156115be576040517f08c379a00000000000000000000000000000000000000000000000000000000081526004016115b590612210565b60405180910390fd5b8181036000808573ffffffffffffffffffffffffffffffffffffffff1673ffffffffffffffffffffffffffffffffffffffff1681526020019081526020016000208190555081600260008282546116159190611b96565b92505081905550600073ffffffffffffffffffffffffffffffffffffffff168373ffffffffffffffffffffffffffffffffffffffff167fddf252ad1be2c89b69c2b068fc378daa952ba7f163c4a11628f55a4df523b3ef8460405161167a9190611876565b60405180910390a361168e83600084611698565b505050565b505050565b505050565b600081519050919050565b600082825260208201905092915050565b60005b838110156116d75780820151818401526020810190506116bc565b838111156116e6576000848401525b50505050565b6000601f19601f8301169050919050565b60006117088261169d565b61171281856116a8565b93506117228185602086016116b9565b61172b816116ec565b840191505092915050565b6000602082019050818103600083015261175081846116fd565b905092915050565b600080fd5b600073ffffffffffffffffffffffffffffffffffffffff82169050919050565b60006117888261175d565b9050919050565b6117988161177d565b81146117a357600080fd5b50565b6000813590506117b58161178f565b92915050565b6000819050919050565b6117ce816117bb565b81146117d957600080fd5b50565b6000813590506117eb816117c5565b92915050565b6000806040838503121561180857611807611758565b5b6000611816858286016117a6565b9250506020611827858286016117dc565b9150509250929050565b60008115159050919050565b61184681611831565b82525050565b6000602082019050611861600083018461183d565b92915050565b611870816117bb565b82525050565b600060208201905061188b6000830184611867565b92915050565b6000806000606084860312156118aa576118a9611758565b5b60006118b8868287016117a6565b93505060206118c9868287016117a6565b92505060406118da868287016117dc565b9150509250925092565b600060ff82169050919050565b6118fa816118e4565b82525050565b600060208201905061191560008301846118f1565b92915050565b60006020828403121561193157611930611758565b5b600061193f848285016117a6565b91505092915050565b6119518161177d565b82525050565b600060208201905061196c6000830184611948565b92915050565b6000806040838503121561198957611988611758565b5b6000611997858286016117a6565b92505060206119a8858286016117a6565b9150509250929050565b7f4e487b7100000000000000000000000000000000000000000000000000000000600052602260045260246000fd5b600060028204905060018216806119f957607f821691505b60208210811415611a0d57611a0c6119b2565b5b50919050565b7f45524332303a207472616e7366657220616d6f756e742065786365656473206160008201527f6c6c6f77616e6365000000000000000000000000000000000000000000000000602082015250565b6000611a6f6028836116a8565b9150611a7a82611a13565b604082019050919050565b60006020820190508181036000830152611a9e81611a62565b9050919050565b7f4e487b7100000000000000000000000000000000000000000000000000000000600052601160045260246000fd5b6000611adf826117bb565b9150611aea836117bb565b9250827fffffffffffffffffffffffffffffffffffffffffffffffffffffffffffffffff03821115611b1f57611b1e611aa5565b5b828201905092915050565b7f4f6e6c7920636f6e74726f6c6c6572732063616e206d696e7400000000000000600082015250565b6000611b606019836116a8565b9150611b6b82611b2a565b602082019050919050565b60006020820190508181036000830152611b8f81611b53565b9050919050565b6000611ba1826117bb565b9150611bac836117bb565b925082821015611bbf57611bbe611aa5565b5b828203905092915050565b7f4f776e61626c653a2063616c6c6572206973206e6f7420746865206f776e6572600082015250565b6000611c006020836116a8565b9150611c0b82611bca565b602082019050919050565b60006020820190508181036000830152611c2f81611bf3565b9050919050565b7f4f6e6c7920636f6e74726f6c6c6572732063616e206275726e00000000000000600082015250565b6000611c6c6019836116a8565b9150611c7782611c36565b602082019050919050565b60006020820190508181036000830152611c9b81611c5f565b9050919050565b7f45524332303a2064656372656173656420616c6c6f77616e63652062656c6f7760008201527f207a65726f000000000000000000000000000000000000000000000000000000602082015250565b6000611cfe6025836116a8565b9150611d0982611ca2565b604082019050919050565b60006020820190508181036000830152611d2d81611cf1565b9050919050565b7f4f776e61626c653a206e6577206f776e657220697320746865207a65726f206160008201527f6464726573730000000000000000000000000000000000000000000000000000602082015250565b6000611d906026836116a8565b9150611d9b82611d34565b604082019050919050565b60006020820190508181036000830152611dbf81611d83565b9050919050565b7f45524332303a20617070726f76652066726f6d20746865207a65726f2061646460008201527f7265737300000000000000000000000000000000000000000000000000000000602082015250565b6000611e226024836116a8565b9150611e2d82611dc6565b604082019050919050565b60006020820190508181036000830152611e5181611e15565b9050919050565b7f45524332303a20617070726f766520746f20746865207a65726f20616464726560008201527f7373000000000000000000000000000000000000000000000000000000000000602082015250565b6000611eb46022836116a8565b9150611ebf82611e58565b604082019050919050565b60006020820190508181036000830152611ee381611ea7565b9050919050565b7f45524332303a207472616e736665722066726f6d20746865207a65726f20616460008201527f6472657373000000000000000000000000000000000000000000000000000000602082015250565b6000611f466025836116a8565b9150611f5182611eea565b604082019050919050565b60006020820190508181036000830152611f7581611f39565b9050919050565b7f45524332303a207472616e7366657220746f20746865207a65726f206164647260008201527f6573730000000000000000000000000000000000000000000000000000000000602082015250565b6000611fd86023836116a8565b9150611fe382611f7c565b604082019050919050565b6000602082019050818103600083015261200781611fcb565b9050919050565b7f45524332303a207472616e7366657220616d6f756e742065786365656473206260008201527f616c616e63650000000000000000000000000000000000000000000000000000602082015250565b600061206a6026836116a8565b91506120758261200e565b604082019050919050565b600060208201905081810360008301526120998161205d565b9050919050565b7f45524332303a206d696e7420746f20746865207a65726f206164647265737300600082015250565b60006120d6601f836116a8565b91506120e1826120a0565b602082019050919050565b60006020820190508181036000830152612105816120c9565b9050919050565b7f45524332303a206275726e2066726f6d20746865207a65726f2061646472657360008201527f7300000000000000000000000000000000000000000000000000000000000000602082015250565b60006121686021836116a8565b91506121738261210c565b604082019050919050565b600060208201905081810360008301526121978161215b565b9050919050565b7f45524332303a206275726e20616d6f756e7420657863656564732062616c616e60008201527f6365000000000000000000000000000000000000000000000000000000000000602082015250565b60006121fa6022836116a8565b91506122058261219e565b604082019050919050565b60006020820190508181036000830152612229816121ed565b905091905056fea2646970667358221220633e99ee03a271e0766fba90ca634aa459907e4d218b818689a70759e4660ecb64736f6c634300080a0033",
  "immutableReferences": {
    "3020": [
      {
        "length": 32,
        "start": 1466
      }
    ]
  },
  "source": "pragma solidity ^0.8.0;\r\n\r\n// SPDX-License-Identifier: MIT\r\n\r\nimport \"@openzeppelin/contracts/access/Ownable.sol\";\r\nimport \"@openzeppelin/contracts/utils/math/SafeMath.sol\";\r\nimport \"@openzeppelin/contracts/token/ERC20/ERC20.sol\";\r\n\r\ncontract Booty is ERC20, Ownable {\r\n    using SafeMath for uint256;\r\n\r\n    uint256 private immutable _cap = 10000000000 ether;//1e28;\r\n\r\n    // Allowlist of addresses to mint or burn\r\n    mapping(address => bool) public controllers;\r\n\r\n    constructor() ERC20(\"Booty\", \"$BOOTY\") {}\r\n\r\n    /**\r\n     * @dev Returns the cap on the token's total supply.\r\n    */\r\n    function cap() public view virtual returns (uint256) {\r\n        return _cap;\r\n    }\r\n\r\n    /**\r\n     * Mint $BOOTY to a recipient.\r\n     * @param to the recipient of the $BOOTY\r\n    * @param amount the amount of $BOOTY to mint\r\n    */\r\n    function mint(address to, uint256 amount) external {\r\n        require(controllers[msg.sender], \"Only controllers can mint\");\r\n\r\n        if (ERC20.totalSupply().add(amount) > cap()) {\r\n            uint256 lastMintableAmount = ERC20.totalSupply().add(amount) - cap();\r\n            super._mint(to, lastMintableAmount);\r\n        }\r\n\r\n        if (ERC20.totalSupply().add(amount) <= cap()) {\r\n            super._mint(to, amount);\r\n        }\r\n    }\r\n\r\n    /**\r\n     * Burn $BOOTY from a holder.\r\n     * @param from the holder of the $BOOTY\r\n     * @param amount the amount of $BOOTY to burn\r\n     */\r\n    function burn(address from, uint256 amount) external {\r\n        require(controllers[msg.sender], \"Only controllers can burn\");\r\n        _burn(from, amount);\r\n    }\r\n\r\n    /**\r\n     * Enables an address to mint / burn.\r\n     * @param controller the address to enable\r\n    */\r\n    function addController(address controller) external onlyOwner {\r\n        controllers[controller] = true;\r\n    }\r\n\r\n    /**\r\n     * Disables an address from minting / burning.\r\n     * @param controller the address to disbale\r\n    */\r\n    function removeController(address controller) external onlyOwner {\r\n        controllers[controller] = false;\r\n    }\r\n}\r\n",
  "sourcePath": "E:\\work\\Blockchain\\review-code\\contract\\piratehunternftsolidity\\contracts\\Booty.sol",
  "compiler": {
    "name": "solc",
    "version": "0.8.10+commit.fc410830.Emscripten.clang"
  },
  "schemaVersion": "3.4.3",
  "updatedAt": "2021-12-30T00:56:38.520Z",
  "devdoc": {
    "kind": "dev",
    "methods": {
      "addController(address)": {
        "params": {
          "controller": "the address to enable"
        }
      },
      "allowance(address,address)": {
        "details": "See {IERC20-allowance}."
      },
      "approve(address,uint256)": {
        "details": "See {IERC20-approve}. Requirements: - `spender` cannot be the zero address."
      },
      "balanceOf(address)": {
        "details": "See {IERC20-balanceOf}."
      },
      "burn(address,uint256)": {
        "params": {
          "amount": "the amount of $BOOTY to burn",
          "from": "the holder of the $BOOTY"
        }
      },
      "cap()": {
        "details": "Returns the cap on the token's total supply."
      },
      "decimals()": {
        "details": "Returns the number of decimals used to get its user representation. For example, if `decimals` equals `2`, a balance of `505` tokens should be displayed to a user as `5.05` (`505 / 10 ** 2`). Tokens usually opt for a value of 18, imitating the relationship between Ether and Wei. This is the value {ERC20} uses, unless this function is overridden; NOTE: This information is only used for _display_ purposes: it in no way affects any of the arithmetic of the contract, including {IERC20-balanceOf} and {IERC20-transfer}."
      },
      "decreaseAllowance(address,uint256)": {
        "details": "Atomically decreases the allowance granted to `spender` by the caller. This is an alternative to {approve} that can be used as a mitigation for problems described in {IERC20-approve}. Emits an {Approval} event indicating the updated allowance. Requirements: - `spender` cannot be the zero address. - `spender` must have allowance for the caller of at least `subtractedValue`."
      },
      "increaseAllowance(address,uint256)": {
        "details": "Atomically increases the allowance granted to `spender` by the caller. This is an alternative to {approve} that can be used as a mitigation for problems described in {IERC20-approve}. Emits an {Approval} event indicating the updated allowance. Requirements: - `spender` cannot be the zero address."
      },
      "mint(address,uint256)": {
        "params": {
          "amount": "the amount of $BOOTY to mint",
          "to": "the recipient of the $BOOTY"
        }
      },
      "name()": {
        "details": "Returns the name of the token."
      },
      "owner()": {
        "details": "Returns the address of the current owner."
      },
      "removeController(address)": {
        "params": {
          "controller": "the address to disbale"
        }
      },
      "renounceOwnership()": {
        "details": "Leaves the contract without owner. It will not be possible to call `onlyOwner` functions anymore. Can only be called by the current owner. NOTE: Renouncing ownership will leave the contract without an owner, thereby removing any functionality that is only available to the owner."
      },
      "symbol()": {
        "details": "Returns the symbol of the token, usually a shorter version of the name."
      },
      "totalSupply()": {
        "details": "See {IERC20-totalSupply}."
      },
      "transfer(address,uint256)": {
        "details": "See {IERC20-transfer}. Requirements: - `recipient` cannot be the zero address. - the caller must have a balance of at least `amount`."
      },
      "transferFrom(address,address,uint256)": {
        "details": "See {IERC20-transferFrom}. Emits an {Approval} event indicating the updated allowance. This is not required by the EIP. See the note at the beginning of {ERC20}. Requirements: - `sender` and `recipient` cannot be the zero address. - `sender` must have a balance of at least `amount`. - the caller must have allowance for ``sender``'s tokens of at least `amount`."
      },
      "transferOwnership(address)": {
        "details": "Transfers ownership of the contract to a new account (`newOwner`). Can only be called by the current owner."
      }
    },
    "version": 1
  },
  "userdoc": {
    "kind": "user",
    "methods": {
      "addController(address)": {
        "notice": "Enables an address to mint / burn."
      },
      "burn(address,uint256)": {
        "notice": "Burn $BOOTY from a holder."
      },
      "mint(address,uint256)": {
        "notice": "Mint $BOOTY to a recipient."
      },
      "removeController(address)": {
        "notice": "Disables an address from minting / burning."
      }
    },
    "version": 1
  }
}