{
  "contractName": "PirateHunters",
  "abi": [
    {
      "inputs": [],
      "stateMutability": "nonpayable",
      "type": "constructor"
    },
    {
      "anonymous": false,
      "inputs": [
        {
          "indexed": true,
          "internalType": "address",
          "name": "owner",
          "type": "address"
        },
        {
          "indexed": true,
          "internalType": "address",
          "name": "approved",
          "type": "address"
        },
        {
          "indexed": true,
          "internalType": "uint256",
          "name": "tokenId",
          "type": "uint256"
        }
      ],
      "name": "Approval",
      "type": "event"
    },
    {
      "anonymous": false,
      "inputs": [
        {
          "indexed": true,
          "internalType": "address",
          "name": "owner",
          "type": "address"
        },
        {
          "indexed": true,
          "internalType": "address",
          "name": "operator",
          "type": "address"
        },
        {
          "indexed": false,
          "internalType": "bool",
          "name": "approved",
          "type": "bool"
        }
      ],
      "name": "ApprovalForAll",
      "type": "event"
    },
    {
      "anonymous": false,
      "inputs": [
        {
          "indexed": true,
          "internalType": "address",
          "name": "previousOwner",
          "type": "address"
        },
        {
          "indexed": true,
          "internalType": "address",
          "name": "newOwner",
          "type": "address"
        }
      ],
      "name": "OwnershipTransferred",
      "type": "event"
    },
    {
      "anonymous": false,
      "inputs": [
        {
          "indexed": true,
          "internalType": "address",
          "name": "from",
          "type": "address"
        },
        {
          "indexed": true,
          "internalType": "address",
          "name": "to",
          "type": "address"
        },
        {
          "indexed": true,
          "internalType": "uint256",
          "name": "tokenId",
          "type": "uint256"
        }
      ],
      "name": "Transfer",
      "type": "event"
    },
    {
      "inputs": [],
      "name": "MAX_PER_TX",
      "outputs": [
        {
          "internalType": "uint256",
          "name": "",
          "type": "uint256"
        }
      ],
      "stateMutability": "view",
      "type": "function"
    },
    {
      "inputs": [],
      "name": "MAX_TOKENS",
      "outputs": [
        {
          "internalType": "uint256",
          "name": "",
          "type": "uint256"
        }
      ],
      "stateMutability": "view",
      "type": "function"
    },
    {
      "inputs": [
        {
          "internalType": "address",
          "name": "to",
          "type": "address"
        },
        {
          "internalType": "uint256",
          "name": "tokenId",
          "type": "uint256"
        }
      ],
      "name": "approve",
      "outputs": [],
      "stateMutability": "nonpayable",
      "type": "function"
    },
    {
      "inputs": [
        {
          "internalType": "address",
          "name": "owner",
          "type": "address"
        }
      ],
      "name": "balanceOf",
      "outputs": [
        {
          "internalType": "uint256",
          "name": "",
          "type": "uint256"
        }
      ],
      "stateMutability": "view",
      "type": "function"
    },
    {
      "inputs": [],
      "name": "bootyChest",
      "outputs": [
        {
          "internalType": "contract IBootyChest",
          "name": "",
          "type": "address"
        }
      ],
      "stateMutability": "view",
      "type": "function"
    },
    {
      "inputs": [
        {
          "internalType": "uint256",
          "name": "tokenId",
          "type": "uint256"
        }
      ],
      "name": "getApproved",
      "outputs": [
        {
          "internalType": "address",
          "name": "",
          "type": "address"
        }
      ],
      "stateMutability": "view",
      "type": "function"
    },
    {
      "inputs": [
        {
          "internalType": "address",
          "name": "owner",
          "type": "address"
        },
        {
          "internalType": "address",
          "name": "operator",
          "type": "address"
        }
      ],
      "name": "isApprovedForAll",
      "outputs": [
        {
          "internalType": "bool",
          "name": "",
          "type": "bool"
        }
      ],
      "stateMutability": "view",
      "type": "function"
    },
    {
      "inputs": [],
      "name": "name",
      "outputs": [
        {
          "internalType": "string",
          "name": "",
          "type": "string"
        }
      ],
      "stateMutability": "view",
      "type": "function"
    },
    {
      "inputs": [],
      "name": "owner",
      "outputs": [
        {
          "internalType": "address",
          "name": "",
          "type": "address"
        }
      ],
      "stateMutability": "view",
      "type": "function"
    },
    {
      "inputs": [
        {
          "internalType": "uint256",
          "name": "tokenId",
          "type": "uint256"
        }
      ],
      "name": "ownerOf",
      "outputs": [
        {
          "internalType": "address",
          "name": "",
          "type": "address"
        }
      ],
      "stateMutability": "view",
      "type": "function"
    },
    {
      "inputs": [],
      "name": "pirateMinted",
      "outputs": [
        {
          "internalType": "uint16",
          "name": "",
          "type": "uint16"
        }
      ],
      "stateMutability": "view",
      "type": "function"
    },
    {
      "inputs": [],
      "name": "price",
      "outputs": [
        {
          "internalType": "uint256",
          "name": "",
          "type": "uint256"
        }
      ],
      "stateMutability": "view",
      "type": "function"
    },
    {
      "inputs": [],
      "name": "privateSale",
      "outputs": [
        {
          "internalType": "bool",
          "name": "",
          "type": "bool"
        }
      ],
      "stateMutability": "view",
      "type": "function"
    },
    {
      "inputs": [],
      "name": "publicSale",
      "outputs": [
        {
          "internalType": "bool",
          "name": "",
          "type": "bool"
        }
      ],
      "stateMutability": "view",
      "type": "function"
    },
    {
      "inputs": [],
      "name": "renounceOwnership",
      "outputs": [],
      "stateMutability": "nonpayable",
      "type": "function"
    },
    {
      "inputs": [
        {
          "internalType": "address",
          "name": "from",
          "type": "address"
        },
        {
          "internalType": "address",
          "name": "to",
          "type": "address"
        },
        {
          "internalType": "uint256",
          "name": "tokenId",
          "type": "uint256"
        }
      ],
      "name": "safeTransferFrom",
      "outputs": [],
      "stateMutability": "nonpayable",
      "type": "function"
    },
    {
      "inputs": [
        {
          "internalType": "address",
          "name": "from",
          "type": "address"
        },
        {
          "internalType": "address",
          "name": "to",
          "type": "address"
        },
        {
          "internalType": "uint256",
          "name": "tokenId",
          "type": "uint256"
        },
        {
          "internalType": "bytes",
          "name": "_data",
          "type": "bytes"
        }
      ],
      "name": "safeTransferFrom",
      "outputs": [],
      "stateMutability": "nonpayable",
      "type": "function"
    },
    {
      "inputs": [
        {
          "internalType": "address",
          "name": "operator",
          "type": "address"
        },
        {
          "internalType": "bool",
          "name": "approved",
          "type": "bool"
        }
      ],
      "name": "setApprovalForAll",
      "outputs": [],
      "stateMutability": "nonpayable",
      "type": "function"
    },
    {
      "inputs": [],
      "name": "signer",
      "outputs": [
        {
          "internalType": "address",
          "name": "",
          "type": "address"
        }
      ],
      "stateMutability": "view",
      "type": "function"
    },
    {
      "inputs": [
        {
          "internalType": "bytes4",
          "name": "interfaceId",
          "type": "bytes4"
        }
      ],
      "name": "supportsInterface",
      "outputs": [
        {
          "internalType": "bool",
          "name": "",
          "type": "bool"
        }
      ],
      "stateMutability": "view",
      "type": "function"
    },
    {
      "inputs": [],
      "name": "symbol",
      "outputs": [
        {
          "internalType": "string",
          "name": "",
          "type": "string"
        }
      ],
      "stateMutability": "view",
      "type": "function"
    },
    {
      "inputs": [
        {
          "internalType": "uint256",
          "name": "tokenId",
          "type": "uint256"
        }
      ],
      "name": "tokenURI",
      "outputs": [
        {
          "internalType": "string",
          "name": "",
          "type": "string"
        }
      ],
      "stateMutability": "view",
      "type": "function"
    },
    {
      "inputs": [],
      "name": "tokensMinted",
      "outputs": [
        {
          "internalType": "uint256",
          "name": "",
          "type": "uint256"
        }
      ],
      "stateMutability": "view",
      "type": "function"
    },
    {
      "inputs": [
        {
          "internalType": "address",
          "name": "newOwner",
          "type": "address"
        }
      ],
      "name": "transferOwnership",
      "outputs": [],
      "stateMutability": "nonpayable",
      "type": "function"
    },
    {
      "inputs": [],
      "name": "paused",
      "outputs": [
        {
          "internalType": "bool",
          "name": "",
          "type": "bool"
        }
      ],
      "stateMutability": "view",
      "type": "function"
    },
    {
      "inputs": [
        {
          "internalType": "bool",
          "name": "_state",
          "type": "bool"
        }
      ],
      "name": "setPaused",
      "outputs": [],
      "stateMutability": "nonpayable",
      "type": "function"
    },
    {
      "inputs": [
        {
          "internalType": "uint16",
          "name": "_from",
          "type": "uint16"
        },
        {
          "internalType": "uint16",
          "name": "_to",
          "type": "uint16"
        }
      ],
      "name": "addAvailableTokens",
      "outputs": [],
      "stateMutability": "nonpayable",
      "type": "function"
    },
    {
      "inputs": [
        {
          "internalType": "uint256",
          "name": "_amount",
          "type": "uint256"
        },
        {
          "internalType": "address",
          "name": "_address",
          "type": "address"
        }
      ],
      "name": "giveAway",
      "outputs": [],
      "stateMutability": "nonpayable",
      "type": "function"
    },
    {
      "inputs": [
        {
          "internalType": "uint256",
          "name": "_amount",
          "type": "uint256"
        },
        {
          "internalType": "bool",
          "name": "_stake",
          "type": "bool"
        },
        {
          "internalType": "bytes",
          "name": "signature",
          "type": "bytes"
        }
      ],
      "name": "privateSaleMint",
      "outputs": [],
      "stateMutability": "payable",
      "type": "function"
    },
    {
      "inputs": [
        {
          "internalType": "uint256",
          "name": "_amount",
          "type": "uint256"
        },
        {
          "internalType": "bool",
          "name": "_stake",
          "type": "bool"
        }
      ],
      "name": "mint",
      "outputs": [],
      "stateMutability": "payable",
      "type": "function"
    },
    {
      "inputs": [
        {
          "internalType": "uint256",
          "name": "_amount",
          "type": "uint256"
        }
      ],
      "name": "mintCost",
      "outputs": [
        {
          "internalType": "uint256",
          "name": "",
          "type": "uint256"
        }
      ],
      "stateMutability": "view",
      "type": "function"
    },
    {
      "inputs": [
        {
          "internalType": "uint16",
          "name": "id",
          "type": "uint16"
        }
      ],
      "name": "isPirate",
      "outputs": [
        {
          "internalType": "bool",
          "name": "",
          "type": "bool"
        }
      ],
      "stateMutability": "view",
      "type": "function"
    },
    {
      "inputs": [
        {
          "internalType": "uint256",
          "name": "_seed",
          "type": "uint256"
        },
        {
          "internalType": "uint256",
          "name": "_max",
          "type": "uint256"
        }
      ],
      "name": "shuffleSeeds",
      "outputs": [],
      "stateMutability": "nonpayable",
      "type": "function"
    },
    {
      "inputs": [
        {
          "internalType": "uint16",
          "name": "id",
          "type": "uint16"
        },
        {
          "internalType": "bool",
          "name": "special",
          "type": "bool"
        }
      ],
      "name": "setPirateId",
      "outputs": [],
      "stateMutability": "nonpayable",
      "type": "function"
    },
    {
      "inputs": [
        {
          "internalType": "uint16[]",
          "name": "ids",
          "type": "uint16[]"
        }
      ],
      "name": "setPirateIds",
      "outputs": [],
      "stateMutability": "nonpayable",
      "type": "function"
    },
    {
      "inputs": [
        {
          "internalType": "address",
          "name": "_iBootyChest",
          "type": "address"
        }
      ],
      "name": "setBootyChest",
      "outputs": [],
      "stateMutability": "nonpayable",
      "type": "function"
    },
    {
      "inputs": [
        {
          "internalType": "uint256",
          "name": "_weiPrice",
          "type": "uint256"
        }
      ],
      "name": "setPrice",
      "outputs": [],
      "stateMutability": "nonpayable",
      "type": "function"
    },
    {
      "inputs": [
        {
          "internalType": "address",
          "name": "from",
          "type": "address"
        },
        {
          "internalType": "address",
          "name": "to",
          "type": "address"
        },
        {
          "internalType": "uint256",
          "name": "tokenId",
          "type": "uint256"
        }
      ],
      "name": "transferFrom",
      "outputs": [],
      "stateMutability": "nonpayable",
      "type": "function"
    },
    {
      "inputs": [],
      "name": "totalSupply",
      "outputs": [
        {
          "internalType": "uint256",
          "name": "",
          "type": "uint256"
        }
      ],
      "stateMutability": "view",
      "type": "function"
    },
    {
      "inputs": [
        {
          "internalType": "string",
          "name": "uri",
          "type": "string"
        }
      ],
      "name": "setBaseURI",
      "outputs": [],
      "stateMutability": "nonpayable",
      "type": "function"
    },
    {
      "inputs": [
        {
          "internalType": "uint16",
          "name": "_id",
          "type": "uint16"
        },
        {
          "internalType": "address",
          "name": "_address",
          "type": "address"
        }
      ],
      "name": "changeRandomSource",
      "outputs": [],
      "stateMutability": "nonpayable",
      "type": "function"
    },
    {
      "inputs": [
        {
          "internalType": "address",
          "name": "_signer",
          "type": "address"
        }
      ],
      "name": "setSigner",
      "outputs": [],
      "stateMutability": "nonpayable",
      "type": "function"
    },
    {
      "inputs": [],
      "name": "togglePublicSale",
      "outputs": [],
      "stateMutability": "nonpayable",
      "type": "function"
    },
    {
      "inputs": [],
      "name": "togglePrivateSale",
      "outputs": [],
      "stateMutability": "nonpayable",
      "type": "function"
    },
    {
      "inputs": [
        {
          "internalType": "address",
          "name": "to",
          "type": "address"
        }
      ],
      "name": "withdraw",
      "outputs": [],
      "stateMutability": "nonpayable",
      "type": "function"
    }
  ],
  "bytecode": "0x608060405261271060075560006008556000600960006101000a81548161ffff021916908361ffff16021790555066b1a2bc2ec50000600a556000600b60006101000a81548160ff0219169083151502179055506001600b60016101000a81548160ff0219169083151502179055506000600b60026101000a81548160ff0219169083151502179055506040518060400160405280601e81526020017f68747470733a2f2f6f7969737761702e6865726f6b756170702e636f6d2f0000815250600d9080519060200190620000d692919062000ab4565b506000601060006101000a81548161ffff021916908361ffff16021790555060006011553480156200010757600080fd5b506040518060400160405280600d81526020017f50697261746548756e74657273000000000000000000000000000000000000008152506040518060400160405280600281526020017f504800000000000000000000000000000000000000000000000000000000000081525081600090805190602001906200018c92919062000ab4565b508060019080519060200190620001a592919062000ab4565b505050620001c8620001bc6200053e60201b60201c565b6200054660201b60201c565b620001db3360006200060c60201b60201c565b600160086000828254620001f0919062000b9d565b9250508190555073c02aaa39b223fe8d0a0e5c4f27ead9083c756cc2601260008061ffff16815260200190815260200160002060006101000a81548173ffffffffffffffffffffffffffffffffffffffff021916908373ffffffffffffffffffffffffffffffffffffffff160217905550733cd751e6b0078be393132286c442345e5dc4969960126000600161ffff16815260200190815260200160002060006101000a81548173ffffffffffffffffffffffffffffffffffffffff021916908373ffffffffffffffffffffffffffffffffffffffff16021790555073b5d85cbf7cb3ee0d56b3bb207d5fc4b82f43f51160126000600261ffff16815260200190815260200160002060006101000a81548173ffffffffffffffffffffffffffffffffffffffff021916908373ffffffffffffffffffffffffffffffffffffffff16021790555073c098b2a3aa256d2140208c3de6543aaef5cd3a9460126000600361ffff16815260200190815260200160002060006101000a81548173ffffffffffffffffffffffffffffffffffffffff021916908373ffffffffffffffffffffffffffffffffffffffff1602179055507328c6c06298d514db089934071355e5743bf21d6060126000600461ffff16815260200190815260200160002060006101000a81548173ffffffffffffffffffffffffffffffffffffffff021916908373ffffffffffffffffffffffffffffffffffffffff160217905550732faf487a4414fe77e2327f0bf4ae2a264a776ad260126000600561ffff16815260200190815260200160002060006101000a81548173ffffffffffffffffffffffffffffffffffffffff021916908373ffffffffffffffffffffffffffffffffffffffff16021790555073267be1c1d684f78cb4f6a176c4911b741e4ffdc060126000600661ffff16815260200190815260200160002060006101000a81548173ffffffffffffffffffffffffffffffffffffffff021916908373ffffffffffffffffffffffffffffffffffffffff1602179055507332c4dcc4e542ac947e8e5c3218f34838d0d12309600b60036101000a81548173ffffffffffffffffffffffffffffffffffffffff021916908373ffffffffffffffffffffffffffffffffffffffff16021790555062000fce565b600033905090565b6000600660009054906101000a900473ffffffffffffffffffffffffffffffffffffffff16905081600660006101000a81548173ffffffffffffffffffffffffffffffffffffffff021916908373ffffffffffffffffffffffffffffffffffffffff1602179055508173ffffffffffffffffffffffffffffffffffffffff168173ffffffffffffffffffffffffffffffffffffffff167f8be0079c531659141344cd1fd0a4f28419497f9722a3daafe3b4186f6b6457e060405160405180910390a35050565b6200062e8282604051806020016040528060008152506200063260201b60201c565b5050565b620006448383620006a060201b60201c565b6200065960008484846200088660201b60201c565b6200069b576040517f08c379a0000000000000000000000000000000000000000000000000000000008152600401620006929062000c81565b60405180910390fd5b505050565b600073ffffffffffffffffffffffffffffffffffffffff168273ffffffffffffffffffffffffffffffffffffffff16141562000713576040517f08c379a00000000000000000000000000000000000000000000000000000000081526004016200070a9062000cf3565b60405180910390fd5b620007248162000a3060201b60201c565b1562000767576040517f08c379a00000000000000000000000000000000000000000000000000000000081526004016200075e9062000d65565b60405180910390fd5b6200077b6000838362000a9c60201b60201c565b6001600360008473ffffffffffffffffffffffffffffffffffffffff1673ffffffffffffffffffffffffffffffffffffffff1681526020019081526020016000206000828254620007cd919062000b9d565b92505081905550816002600083815260200190815260200160002060006101000a81548173ffffffffffffffffffffffffffffffffffffffff021916908373ffffffffffffffffffffffffffffffffffffffff160217905550808273ffffffffffffffffffffffffffffffffffffffff16600073ffffffffffffffffffffffffffffffffffffffff167fddf252ad1be2c89b69c2b068fc378daa952ba7f163c4a11628f55a4df523b3ef60405160405180910390a45050565b6000620008b48473ffffffffffffffffffffffffffffffffffffffff1662000aa160201b620021811760201c565b1562000a23578373ffffffffffffffffffffffffffffffffffffffff1663150b7a02620008e66200053e60201b60201c565b8786866040518563ffffffff1660e01b81526004016200090a949392919062000e81565b6020604051808303816000875af19250505080156200094957506040513d601f19601f8201168201806040525081019062000946919062000f37565b60015b620009d2573d80600081146200097c576040519150601f19603f3d011682016040523d82523d6000602084013e62000981565b606091505b50600081511415620009ca576040517f08c379a0000000000000000000000000000000000000000000000000000000008152600401620009c19062000c81565b60405180910390fd5b805181602001fd5b63150b7a0260e01b7bffffffffffffffffffffffffffffffffffffffffffffffffffffffff1916817bffffffffffffffffffffffffffffffffffffffffffffffffffffffff19161491505062000a28565b600190505b949350505050565b60008073ffffffffffffffffffffffffffffffffffffffff166002600084815260200190815260200160002060009054906101000a900473ffffffffffffffffffffffffffffffffffffffff1673ffffffffffffffffffffffffffffffffffffffff1614159050919050565b505050565b600080823b905060008111915050919050565b82805462000ac29062000f98565b90600052602060002090601f01602090048101928262000ae6576000855562000b32565b82601f1062000b0157805160ff191683800117855562000b32565b8280016001018555821562000b32579182015b8281111562000b3157825182559160200191906001019062000b14565b5b50905062000b41919062000b45565b5090565b5b8082111562000b6057600081600090555060010162000b46565b5090565b6000819050919050565b7f4e487b7100000000000000000000000000000000000000000000000000000000600052601160045260246000fd5b600062000baa8262000b64565b915062000bb78362000b64565b9250827fffffffffffffffffffffffffffffffffffffffffffffffffffffffffffffffff0382111562000bef5762000bee62000b6e565b5b828201905092915050565b600082825260208201905092915050565b7f4552433732313a207472616e7366657220746f206e6f6e20455243373231526560008201527f63656976657220696d706c656d656e7465720000000000000000000000000000602082015250565b600062000c6960328362000bfa565b915062000c768262000c0b565b604082019050919050565b6000602082019050818103600083015262000c9c8162000c5a565b9050919050565b7f4552433732313a206d696e7420746f20746865207a65726f2061646472657373600082015250565b600062000cdb60208362000bfa565b915062000ce88262000ca3565b602082019050919050565b6000602082019050818103600083015262000d0e8162000ccc565b9050919050565b7f4552433732313a20746f6b656e20616c7265616479206d696e74656400000000600082015250565b600062000d4d601c8362000bfa565b915062000d5a8262000d15565b602082019050919050565b6000602082019050818103600083015262000d808162000d3e565b9050919050565b600073ffffffffffffffffffffffffffffffffffffffff82169050919050565b600062000db48262000d87565b9050919050565b62000dc68162000da7565b82525050565b62000dd78162000b64565b82525050565b600081519050919050565b600082825260208201905092915050565b60005b8381101562000e1957808201518184015260208101905062000dfc565b8381111562000e29576000848401525b50505050565b6000601f19601f8301169050919050565b600062000e4d8262000ddd565b62000e59818562000de8565b935062000e6b81856020860162000df9565b62000e768162000e2f565b840191505092915050565b600060808201905062000e98600083018762000dbb565b62000ea7602083018662000dbb565b62000eb6604083018562000dcc565b818103606083015262000eca818462000e40565b905095945050505050565b600080fd5b60007fffffffff0000000000000000000000000000000000000000000000000000000082169050919050565b62000f118162000eda565b811462000f1d57600080fd5b50565b60008151905062000f318162000f06565b92915050565b60006020828403121562000f505762000f4f62000ed5565b5b600062000f608482850162000f20565b91505092915050565b7f4e487b7100000000000000000000000000000000000000000000000000000000600052602260045260246000fd5b6000600282049050600182168062000fb157607f821691505b6020821081141562000fc85762000fc762000f69565b5b50919050565b615df58062000fde6000396000f3fe6080604052600436106102725760003560e01c8063703731731161014f578063b488b636116100c1578063e985e9c51161007a578063e985e9c51461090a578063efb3d00814610947578063f2fde38b14610970578063f43a22dc14610999578063f47c84c5146109c4578063fe170c94146109ef57610272565b8063b488b63614610820578063b88d4fde1461084b578063ba1f879f14610874578063c87b56dd1461089f578063dfe5dd68146108dc578063e222c7f9146108f357610272565b806391b7f5ed1161011357806391b7f5ed1461072457806392b242291461074d57806395d89b41146107765780639d4223a1146107a1578063a035b1fe146107cc578063a22cb465146107f757610272565b8063703731731461065357806370a082311461067c578063715018a6146106b957806386b854c8146106d05780638da5cb5b146106f957610272565b806327de8f27116101e857806355f804b3116101ac57806355f804b3146105525780635c975abb1461057b5780636352211e146105a657806367f68fac146105e35780636c19e783146105ff5780636de9f32b1461062857610272565b806327de8f271461045b5780632c12395b1461049857806333bc1c5c146104d557806342842e0e1461050057806351cff8d91461052957610272565b806317ae83f31161023a57806317ae83f31461036e57806318160ddd1461038a5780631adbc550146103b5578063238ac933146103de57806323b872dd14610409578063261d3b211461043257610272565b806301ffc9a71461027757806306fdde03146102b4578063081812fc146102df578063095ea7b31461031c57806316c38b3c14610345575b600080fd5b34801561028357600080fd5b5061029e60048036038101906102999190613b8a565b610a18565b6040516102ab9190613bd2565b60405180910390f35b3480156102c057600080fd5b506102c9610afa565b6040516102d69190613c86565b60405180910390f35b3480156102eb57600080fd5b5061030660048036038101906103019190613cde565b610b8c565b6040516103139190613d4c565b60405180910390f35b34801561032857600080fd5b50610343600480360381019061033e9190613d93565b610c11565b005b34801561035157600080fd5b5061036c60048036038101906103679190613dff565b610d29565b005b61038860048036038101906103839190613f61565b610dc2565b005b34801561039657600080fd5b5061039f610f16565b6040516103ac9190613fdf565b60405180910390f35b3480156103c157600080fd5b506103dc60048036038101906103d79190614034565b610f20565b005b3480156103ea57600080fd5b506103f3610fd3565b6040516104009190613d4c565b60405180910390f35b34801561041557600080fd5b50610430600480360381019061042b9190614074565b610ff9565b005b34801561043e57600080fd5b50610459600480360381019061045491906140c7565b6110b6565b005b34801561046757600080fd5b50610482600480360381019061047d9190613cde565b61120a565b60405161048f9190613fdf565b60405180910390f35b3480156104a457600080fd5b506104bf60048036038101906104ba9190614107565b611221565b6040516104cc9190613bd2565b60405180910390f35b3480156104e157600080fd5b506104ea611253565b6040516104f79190613bd2565b60405180910390f35b34801561050c57600080fd5b5061052760048036038101906105229190614074565b611266565b005b34801561053557600080fd5b50610550600480360381019061054b9190614134565b611286565b005b34801561055e57600080fd5b5061057960048036038101906105749190614202565b6113e4565b005b34801561058757600080fd5b5061059061147a565b60405161059d9190613bd2565b60405180910390f35b3480156105b257600080fd5b506105cd60048036038101906105c89190613cde565b611491565b6040516105da9190613d4c565b60405180910390f35b6105fd60048036038101906105f8919061424b565b611543565b005b34801561060b57600080fd5b5061062660048036038101906106219190614134565b6115e8565b005b34801561063457600080fd5b5061063d6116a8565b60405161064a9190613fdf565b60405180910390f35b34801561065f57600080fd5b5061067a600480360381019061067591906142eb565b6116ae565b005b34801561068857600080fd5b506106a3600480360381019061069e9190614134565b6117ab565b6040516106b09190613fdf565b60405180910390f35b3480156106c557600080fd5b506106ce611863565b005b3480156106dc57600080fd5b506106f760048036038101906106f29190614338565b6118eb565b005b34801561070557600080fd5b5061070e6119c5565b60405161071b9190613d4c565b60405180910390f35b34801561073057600080fd5b5061074b60048036038101906107469190613cde565b6119ef565b005b34801561075957600080fd5b50610774600480360381019061076f9190614378565b611a75565b005b34801561078257600080fd5b5061078b611b4c565b6040516107989190613c86565b60405180910390f35b3480156107ad57600080fd5b506107b6611bde565b6040516107c39190614417565b60405180910390f35b3480156107d857600080fd5b506107e1611c04565b6040516107ee9190613fdf565b60405180910390f35b34801561080357600080fd5b5061081e60048036038101906108199190614432565b611c0a565b005b34801561082c57600080fd5b50610835611c20565b6040516108429190614481565b60405180910390f35b34801561085757600080fd5b50610872600480360381019061086d919061449c565b611c34565b005b34801561088057600080fd5b50610889611c96565b6040516108969190613bd2565b60405180910390f35b3480156108ab57600080fd5b506108c660048036038101906108c19190613cde565b611ca9565b6040516108d39190613c86565b60405180910390f35b3480156108e857600080fd5b506108f1611d50565b005b3480156108ff57600080fd5b50610908611df8565b005b34801561091657600080fd5b50610931600480360381019061092c919061451f565b611ea0565b60405161093e9190613bd2565b60405180910390f35b34801561095357600080fd5b5061096e6004803603810190610969919061455f565b611f34565b005b34801561097c57600080fd5b5061099760048036038101906109929190614134565b611fbe565b005b3480156109a557600080fd5b506109ae6120b6565b6040516109bb9190613fdf565b60405180910390f35b3480156109d057600080fd5b506109d96120bb565b6040516109e69190613fdf565b60405180910390f35b3480156109fb57600080fd5b50610a166004803603810190610a119190614134565b6120c1565b005b60007f80ac58cd000000000000000000000000000000000000000000000000000000007bffffffffffffffffffffffffffffffffffffffffffffffffffffffff1916827bffffffffffffffffffffffffffffffffffffffffffffffffffffffff19161480610ae357507f5b5e139f000000000000000000000000000000000000000000000000000000007bffffffffffffffffffffffffffffffffffffffffffffffffffffffff1916827bffffffffffffffffffffffffffffffffffffffffffffffffffffffff1916145b80610af35750610af282612194565b5b9050919050565b606060008054610b09906145ce565b80601f0160208091040260200160405190810160405280929190818152602001828054610b35906145ce565b8015610b825780601f10610b5757610100808354040283529160200191610b82565b820191906000526020600020905b815481529060010190602001808311610b6557829003601f168201915b5050505050905090565b6000610b97826121fe565b610bd6576040517f08c379a0000000000000000000000000000000000000000000000000000000008152600401610bcd90614672565b60405180910390fd5b6004600083815260200190815260200160002060009054906101000a900473ffffffffffffffffffffffffffffffffffffffff169050919050565b6000610c1c82611491565b90508073ffffffffffffffffffffffffffffffffffffffff168373ffffffffffffffffffffffffffffffffffffffff161415610c8d576040517f08c379a0000000000000000000000000000000000000000000000000000000008152600401610c8490614704565b60405180910390fd5b8073ffffffffffffffffffffffffffffffffffffffff16610cac61226a565b73ffffffffffffffffffffffffffffffffffffffff161480610cdb5750610cda81610cd561226a565b611ea0565b5b610d1a576040517f08c379a0000000000000000000000000000000000000000000000000000000008152600401610d1190614796565b60405180910390fd5b610d248383612272565b505050565b610d3161226a565b73ffffffffffffffffffffffffffffffffffffffff16610d4f6119c5565b73ffffffffffffffffffffffffffffffffffffffff1614610da5576040517f08c379a0000000000000000000000000000000000000000000000000000000008152600401610d9c90614802565b60405180910390fd5b80600b60006101000a81548160ff02191690831515021790555050565b600b60029054906101000a900460ff16610e11576040517f08c379a0000000000000000000000000000000000000000000000000000000008152600401610e0890614894565b60405180910390fd5b6000610e1d338361232b565b9050600b60039054906101000a900473ffffffffffffffffffffffffffffffffffffffff1673ffffffffffffffffffffffffffffffffffffffff168173ffffffffffffffffffffffffffffffffffffffff1614610eaf576040517f08c379a0000000000000000000000000000000000000000000000000000000008152600401610ea690614926565b60405180910390fd5b600a84610ebb336117ab565b610ec59190614975565b1115610f06576040517f08c379a0000000000000000000000000000000000000000000000000000000008152600401610efd90614a3d565b60405180910390fd5b610f108484612355565b50505050565b6000600854905090565b610f2861226a565b73ffffffffffffffffffffffffffffffffffffffff16610f466119c5565b73ffffffffffffffffffffffffffffffffffffffff1614610f9c576040517f08c379a0000000000000000000000000000000000000000000000000000000008152600401610f9390614802565b60405180910390fd5b80600e60008461ffff1661ffff16815260200190815260200160002060006101000a81548160ff0219169083151502179055505050565b600b60039054906101000a900473ffffffffffffffffffffffffffffffffffffffff1681565b600c60009054906101000a900473ffffffffffffffffffffffffffffffffffffffff1673ffffffffffffffffffffffffffffffffffffffff1661103a61226a565b73ffffffffffffffffffffffffffffffffffffffff16146110a65761106661106061226a565b82612770565b6110a5576040517f08c379a000000000000000000000000000000000000000000000000000000000815260040161109c90614acf565b60405180910390fd5b5b6110b183838361284e565b505050565b6110be61226a565b73ffffffffffffffffffffffffffffffffffffffff166110dc6119c5565b73ffffffffffffffffffffffffffffffffffffffff1614611132576040517f08c379a000000000000000000000000000000000000000000000000000000000815260040161112990614802565b60405180910390fd5b600754826008546111439190614975565b1115611184576040517f08c379a000000000000000000000000000000000000000000000000000000000815260040161117b90614b3b565b60405180910390fd5b6000600f80549050116111cc576040517f08c379a00000000000000000000000000000000000000000000000000000000081526004016111c390614bcd565b60405180910390fd5b60005b828110156112055760006111e1612aaa565b90506111f1838261ffff16612bd7565b5080806111fd90614bed565b9150506111cf565b505050565b6000600a548261121a9190614c36565b9050919050565b6000600e60008361ffff1661ffff16815260200190815260200160002060009054906101000a900460ff169050919050565b600b60019054906101000a900460ff1681565b61128183838360405180602001604052806000815250611c34565b505050565b61128e61226a565b73ffffffffffffffffffffffffffffffffffffffff166112ac6119c5565b73ffffffffffffffffffffffffffffffffffffffff1614611302576040517f08c379a00000000000000000000000000000000000000000000000000000000081526004016112f990614802565b60405180910390fd5b6000479050600060646005836113189190614c36565b6113229190614cbf565b9050600b60039054906101000a900473ffffffffffffffffffffffffffffffffffffffff1673ffffffffffffffffffffffffffffffffffffffff166108fc829081150290604051600060405180830381858888f1935050505015801561138c573d6000803e3d6000fd5b508273ffffffffffffffffffffffffffffffffffffffff166108fc82846113b39190614cf0565b9081150290604051600060405180830381858888f193505050501580156113de573d6000803e3d6000fd5b50505050565b6113ec61226a565b73ffffffffffffffffffffffffffffffffffffffff1661140a6119c5565b73ffffffffffffffffffffffffffffffffffffffff1614611460576040517f08c379a000000000000000000000000000000000000000000000000000000000815260040161145790614802565b60405180910390fd5b80600d9080519060200190611476929190613a7b565b5050565b6000600b60009054906101000a900460ff16905090565b6000806002600084815260200190815260200160002060009054906101000a900473ffffffffffffffffffffffffffffffffffffffff169050600073ffffffffffffffffffffffffffffffffffffffff168173ffffffffffffffffffffffffffffffffffffffff16141561153a576040517f08c379a000000000000000000000000000000000000000000000000000000000815260040161153190614d96565b60405180910390fd5b80915050919050565b61154b61147a565b1561158b576040517f08c379a000000000000000000000000000000000000000000000000000000000815260040161158290614e02565b60405180910390fd5b600b60019054906101000a900460ff166115da576040517f08c379a00000000000000000000000000000000000000000000000000000000081526004016115d190614e94565b60405180910390fd5b6115e48282612355565b5050565b6115f061226a565b73ffffffffffffffffffffffffffffffffffffffff1661160e6119c5565b73ffffffffffffffffffffffffffffffffffffffff1614611664576040517f08c379a000000000000000000000000000000000000000000000000000000000815260040161165b90614802565b60405180910390fd5b80600b60036101000a81548173ffffffffffffffffffffffffffffffffffffffff021916908373ffffffffffffffffffffffffffffffffffffffff16021790555050565b60085481565b6116b661226a565b73ffffffffffffffffffffffffffffffffffffffff166116d46119c5565b73ffffffffffffffffffffffffffffffffffffffff161461172a576040517f08c379a000000000000000000000000000000000000000000000000000000000815260040161172190614802565b60405180910390fd5b60005b828290508110156117a6576001600e600085858581811061175157611750614eb4565b5b90506020020160208101906117669190614107565b61ffff1661ffff16815260200190815260200160002060006101000a81548160ff021916908315150217905550808061179e90614bed565b91505061172d565b505050565b60008073ffffffffffffffffffffffffffffffffffffffff168273ffffffffffffffffffffffffffffffffffffffff16141561181c576040517f08c379a000000000000000000000000000000000000000000000000000000000815260040161181390614f55565b60405180910390fd5b600360008373ffffffffffffffffffffffffffffffffffffffff1673ffffffffffffffffffffffffffffffffffffffff168152602001908152602001600020549050919050565b61186b61226a565b73ffffffffffffffffffffffffffffffffffffffff166118896119c5565b73ffffffffffffffffffffffffffffffffffffffff16146118df576040517f08c379a00000000000000000000000000000000000000000000000000000000081526004016118d690614802565b60405180910390fd5b6118e96000612bf5565b565b6118f361226a565b73ffffffffffffffffffffffffffffffffffffffff166119116119c5565b73ffffffffffffffffffffffffffffffffffffffff1614611967576040517f08c379a000000000000000000000000000000000000000000000000000000000815260040161195e90614802565b60405180910390fd5b80601260008461ffff1661ffff16815260200190815260200160002060006101000a81548173ffffffffffffffffffffffffffffffffffffffff021916908373ffffffffffffffffffffffffffffffffffffffff1602179055505050565b6000600660009054906101000a900473ffffffffffffffffffffffffffffffffffffffff16905090565b6119f761226a565b73ffffffffffffffffffffffffffffffffffffffff16611a156119c5565b73ffffffffffffffffffffffffffffffffffffffff1614611a6b576040517f08c379a0000000000000000000000000000000000000000000000000000000008152600401611a6290614802565b60405180910390fd5b80600a8190555050565b611a7d61226a565b73ffffffffffffffffffffffffffffffffffffffff16611a9b6119c5565b73ffffffffffffffffffffffffffffffffffffffff1614611af1576040517f08c379a0000000000000000000000000000000000000000000000000000000008152600401611ae890614802565b60405180910390fd5b6000611afd8383612cbb565b61ffff16905080601060006101000a81548161ffff021916908361ffff16021790555060005b81811015611b4657611b33612dcb565b8080611b3e90614bed565b915050611b23565b50505050565b606060018054611b5b906145ce565b80601f0160208091040260200160405190810160405280929190818152602001828054611b87906145ce565b8015611bd45780601f10611ba957610100808354040283529160200191611bd4565b820191906000526020600020905b815481529060010190602001808311611bb757829003601f168201915b5050505050905090565b600c60009054906101000a900473ffffffffffffffffffffffffffffffffffffffff1681565b600a5481565b611c1c611c1561226a565b8383612e5d565b5050565b600960009054906101000a900461ffff1681565b611c45611c3f61226a565b83612770565b611c84576040517f08c379a0000000000000000000000000000000000000000000000000000000008152600401611c7b90614acf565b60405180910390fd5b611c9084848484612fca565b50505050565b600b60029054906101000a900460ff1681565b6060611cb4826121fe565b611cf3576040517f08c379a0000000000000000000000000000000000000000000000000000000008152600401611cea90614fe7565b60405180910390fd5b6000611cfd613026565b90506000815111611d1d5760405180602001604052806000815250611d48565b80611d27846130b8565b604051602001611d38929190615043565b6040516020818303038152906040525b915050919050565b611d5861226a565b73ffffffffffffffffffffffffffffffffffffffff16611d766119c5565b73ffffffffffffffffffffffffffffffffffffffff1614611dcc576040517f08c379a0000000000000000000000000000000000000000000000000000000008152600401611dc390614802565b60405180910390fd5b600b60029054906101000a900460ff1615600b60026101000a81548160ff021916908315150217905550565b611e0061226a565b73ffffffffffffffffffffffffffffffffffffffff16611e1e6119c5565b73ffffffffffffffffffffffffffffffffffffffff1614611e74576040517f08c379a0000000000000000000000000000000000000000000000000000000008152600401611e6b90614802565b60405180910390fd5b600b60019054906101000a900460ff1615600b60016101000a81548160ff021916908315150217905550565b6000600560008473ffffffffffffffffffffffffffffffffffffffff1673ffffffffffffffffffffffffffffffffffffffff16815260200190815260200160002060008373ffffffffffffffffffffffffffffffffffffffff1673ffffffffffffffffffffffffffffffffffffffff16815260200190815260200160002060009054906101000a900460ff16905092915050565b611f3c61226a565b73ffffffffffffffffffffffffffffffffffffffff16611f5a6119c5565b73ffffffffffffffffffffffffffffffffffffffff1614611fb0576040517f08c379a0000000000000000000000000000000000000000000000000000000008152600401611fa790614802565b60405180910390fd5b611fba8282613219565b5050565b611fc661226a565b73ffffffffffffffffffffffffffffffffffffffff16611fe46119c5565b73ffffffffffffffffffffffffffffffffffffffff161461203a576040517f08c379a000000000000000000000000000000000000000000000000000000000815260040161203190614802565b60405180910390fd5b600073ffffffffffffffffffffffffffffffffffffffff168173ffffffffffffffffffffffffffffffffffffffff1614156120aa576040517f08c379a00000000000000000000000000000000000000000000000000000000081526004016120a1906150d9565b60405180910390fd5b6120b381612bf5565b50565b601481565b60075481565b6120c961226a565b73ffffffffffffffffffffffffffffffffffffffff166120e76119c5565b73ffffffffffffffffffffffffffffffffffffffff161461213d576040517f08c379a000000000000000000000000000000000000000000000000000000000815260040161213490614802565b60405180910390fd5b80600c60006101000a81548173ffffffffffffffffffffffffffffffffffffffff021916908373ffffffffffffffffffffffffffffffffffffffff16021790555050565b600080823b905060008111915050919050565b60007f01ffc9a7000000000000000000000000000000000000000000000000000000007bffffffffffffffffffffffffffffffffffffffffffffffffffffffff1916827bffffffffffffffffffffffffffffffffffffffffffffffffffffffff1916149050919050565b60008073ffffffffffffffffffffffffffffffffffffffff166002600084815260200190815260200160002060009054906101000a900473ffffffffffffffffffffffffffffffffffffffff1673ffffffffffffffffffffffffffffffffffffffff1614159050919050565b600033905090565b816004600083815260200190815260200160002060006101000a81548173ffffffffffffffffffffffffffffffffffffffff021916908373ffffffffffffffffffffffffffffffffffffffff160217905550808273ffffffffffffffffffffffffffffffffffffffff166122e583611491565b73ffffffffffffffffffffffffffffffffffffffff167f8c5be1e5ebec7d5bd14f71427d1e84f3dd0314c0f7b2291e5b200ac8c7c3b92560405160405180910390a45050565b60008061233784613290565b905061234c83826132eb90919063ffffffff16565b91505092915050565b3373ffffffffffffffffffffffffffffffffffffffff163273ffffffffffffffffffffffffffffffffffffffff16146123c3576040517f08c379a00000000000000000000000000000000000000000000000000000000081526004016123ba90615145565b60405180910390fd5b600754826008546123d49190614975565b1115612415576040517f08c379a000000000000000000000000000000000000000000000000000000000815260040161240c906151d7565b60405180910390fd5b600082118015612426575060148211155b612465576040517f08c379a000000000000000000000000000000000000000000000000000000000815260040161245c90615243565b60405180910390fd5b6000600f80549050116124ad576040517f08c379a00000000000000000000000000000000000000000000000000000000081526004016124a490614bcd565b60405180910390fd5b6124b56119c5565b73ffffffffffffffffffffffffffffffffffffffff163373ffffffffffffffffffffffffffffffffffffffff161461253257346124f18361120a565b14612531576040517f08c379a0000000000000000000000000000000000000000000000000000000008152600401612528906152af565b60405180910390fd5b5b81600860008282546125449190614975565b925050819055506000816125a157600067ffffffffffffffff81111561256d5761256c613e36565b5b60405190808252806020026020018201604052801561259b5781602001602082028036833780820191505090505b506125eb565b8267ffffffffffffffff8111156125bb576125ba613e36565b5b6040519080825280602002602001820160405280156125e95781602001602082028036833780820191505090505b505b905060005b838110156126d4576000612602612aaa565b905061260d81611221565b1561264d576001600960008282829054906101000a900461ffff1661263291906152cf565b92506101000a81548161ffff021916908361ffff1602179055505b8361266557612660338261ffff16612bd7565b6126c0565b612695600c60009054906101000a900473ffffffffffffffffffffffffffffffffffffffff168261ffff16612bd7565b808383815181106126a9576126a8614eb4565b5b602002602001019061ffff16908161ffff16815250505b5080806126cc90614bed565b9150506125f0565b50811561276b57600c60009054906101000a900473ffffffffffffffffffffffffffffffffffffffff1673ffffffffffffffffffffffffffffffffffffffff1663e21f4cbe33836040518363ffffffff1660e01b81526004016127389291906153c5565b600060405180830381600087803b15801561275257600080fd5b505af1158015612766573d6000803e3d6000fd5b505050505b505050565b600061277b826121fe565b6127ba576040517f08c379a00000000000000000000000000000000000000000000000000000000081526004016127b190615467565b60405180910390fd5b60006127c583611491565b90508073ffffffffffffffffffffffffffffffffffffffff168473ffffffffffffffffffffffffffffffffffffffff16148061283457508373ffffffffffffffffffffffffffffffffffffffff1661281c84610b8c565b73ffffffffffffffffffffffffffffffffffffffff16145b8061284557506128448185611ea0565b5b91505092915050565b8273ffffffffffffffffffffffffffffffffffffffff1661286e82611491565b73ffffffffffffffffffffffffffffffffffffffff16146128c4576040517f08c379a00000000000000000000000000000000000000000000000000000000081526004016128bb906154f9565b60405180910390fd5b600073ffffffffffffffffffffffffffffffffffffffff168273ffffffffffffffffffffffffffffffffffffffff161415612934576040517f08c379a000000000000000000000000000000000000000000000000000000000815260040161292b9061558b565b60405180910390fd5b61293f838383613312565b61294a600082612272565b6001600360008573ffffffffffffffffffffffffffffffffffffffff1673ffffffffffffffffffffffffffffffffffffffff168152602001908152602001600020600082825461299a9190614cf0565b925050819055506001600360008473ffffffffffffffffffffffffffffffffffffffff1673ffffffffffffffffffffffffffffffffffffffff16815260200190815260200160002060008282546129f19190614975565b92505081905550816002600083815260200190815260200160002060006101000a81548173ffffffffffffffffffffffffffffffffffffffff021916908373ffffffffffffffffffffffffffffffffffffffff160217905550808273ffffffffffffffffffffffffffffffffffffffff168473ffffffffffffffffffffffffffffffffffffffff167fddf252ad1be2c89b69c2b068fc378daa952ba7f163c4a11628f55a4df523b3ef60405160405180910390a4505050565b600080612ac1600f80549050600f80549050612cbb565b61ffff1690506000600f8281548110612add57612adc614eb4565b5b90600052602060002090601091828204019190066002029054906101000a900461ffff169050600f6001600f80549050612b179190614cf0565b81548110612b2857612b27614eb4565b5b90600052602060002090601091828204019190066002029054906101000a900461ffff16600f8381548110612b6057612b5f614eb4565b5b90600052602060002090601091828204019190066002026101000a81548161ffff021916908361ffff160217905550600f805480612ba157612ba06155ab565b5b60019003818190600052602060002090601091828204019190066002026101000a81549061ffff02191690559055809250505090565b612bf1828260405180602001604052806000815250613317565b5050565b6000600660009054906101000a900473ffffffffffffffffffffffffffffffffffffffff16905081600660006101000a81548173ffffffffffffffffffffffffffffffffffffffff021916908373ffffffffffffffffffffffffffffffffffffffff1602179055508173ffffffffffffffffffffffffffffffffffffffff168173ffffffffffffffffffffffffffffffffffffffff167f8be0079c531659141344cd1fd0a4f28419497f9722a3daafe3b4186f6b6457e060405160405180910390a35050565b6000806000905060005b60078161ffff161015612d555760126000601060009054906101000a900461ffff1661ffff1661ffff16815260200190815260200160002060009054906101000a900473ffffffffffffffffffffffffffffffffffffffff1673ffffffffffffffffffffffffffffffffffffffff163182612d409190614975565b91508080612d4d906155da565b915050612cc5565b50600084600143612d669190614cf0565b4041443360085487601154601060009054906101000a900461ffff16604051602001612d9a9998979695949392919061570a565b6040516020818303038152906040528051906020012060001c90508381612dc191906157ad565b9250505092915050565b6001601060008282829054906101000a900461ffff16612deb91906152cf565b92506101000a81548161ffff021916908361ffff160217905550600160116000828254612e189190614975565b925050819055506006601060009054906101000a900461ffff1661ffff161115612e5b576000601060006101000a81548161ffff021916908361ffff1602179055505b565b8173ffffffffffffffffffffffffffffffffffffffff168373ffffffffffffffffffffffffffffffffffffffff161415612ecc576040517f08c379a0000000000000000000000000000000000000000000000000000000008152600401612ec39061582a565b60405180910390fd5b80600560008573ffffffffffffffffffffffffffffffffffffffff1673ffffffffffffffffffffffffffffffffffffffff16815260200190815260200160002060008473ffffffffffffffffffffffffffffffffffffffff1673ffffffffffffffffffffffffffffffffffffffff16815260200190815260200160002060006101000a81548160ff0219169083151502179055508173ffffffffffffffffffffffffffffffffffffffff168373ffffffffffffffffffffffffffffffffffffffff167f17307eab39ab6107e8899845ad3d59bd9653f200f220920489ca2b5937696c3183604051612fbd9190613bd2565b60405180910390a3505050565b612fd584848461284e565b612fe184848484613372565b613020576040517f08c379a0000000000000000000000000000000000000000000000000000000008152600401613017906158bc565b60405180910390fd5b50505050565b6060600d8054613035906145ce565b80601f0160208091040260200160405190810160405280929190818152602001828054613061906145ce565b80156130ae5780601f10613083576101008083540402835291602001916130ae565b820191906000526020600020905b81548152906001019060200180831161309157829003601f168201915b5050505050905090565b60606000821415613100576040518060400160405280600181526020017f30000000000000000000000000000000000000000000000000000000000000008152509050613214565b600082905060005b6000821461313257808061311b90614bed565b915050600a8261312b9190614cbf565b9150613108565b60008167ffffffffffffffff81111561314e5761314d613e36565b5b6040519080825280601f01601f1916602001820160405280156131805781602001600182028036833780820191505090505b5090505b6000851461320d576001826131999190614cf0565b9150600a856131a891906157ad565b60306131b49190614975565b60f81b8183815181106131ca576131c9614eb4565b5b60200101907effffffffffffffffffffffffffffffffffffffffffffffffffffffffffffff1916908160001a905350600a856132069190614cbf565b9450613184565b8093505050505b919050565b60008290505b8161ffff168161ffff161161328b57600f8190806001815401808255809150506001900390600052602060002090601091828204019190066002029091909190916101000a81548161ffff021916908361ffff1602179055508080613283906155da565b91505061321f565b505050565b600080826040516020016132a491906158dc565b604051602081830303815290604052805190602001209050806040516020016132cd9190615943565b60405160208183030381529060405280519060200120915050919050565b60008060006132fa85856134fa565b915091506133078161357d565b819250505092915050565b505050565b6133218383613752565b61332e6000848484613372565b61336d576040517f08c379a0000000000000000000000000000000000000000000000000000000008152600401613364906158bc565b60405180910390fd5b505050565b60006133938473ffffffffffffffffffffffffffffffffffffffff16612181565b156134ed578373ffffffffffffffffffffffffffffffffffffffff1663150b7a026133bc61226a565b8786866040518563ffffffff1660e01b81526004016133de94939291906159be565b6020604051808303816000875af192505050801561341a57506040513d601f19601f820116820180604052508101906134179190615a1f565b60015b61349d573d806000811461344a576040519150601f19603f3d011682016040523d82523d6000602084013e61344f565b606091505b50600081511415613495576040517f08c379a000000000000000000000000000000000000000000000000000000000815260040161348c906158bc565b60405180910390fd5b805181602001fd5b63150b7a0260e01b7bffffffffffffffffffffffffffffffffffffffffffffffffffffffff1916817bffffffffffffffffffffffffffffffffffffffffffffffffffffffff1916149150506134f2565b600190505b949350505050565b60008060418351141561353c5760008060006020860151925060408601519150606086015160001a905061353087828585613920565b94509450505050613576565b60408351141561356d576000806020850151915060408501519050613562868383613a2d565b935093505050613576565b60006002915091505b9250929050565b6000600481111561359157613590615a4c565b5b8160048111156135a4576135a3615a4c565b5b14156135af5761374f565b600160048111156135c3576135c2615a4c565b5b8160048111156135d6576135d5615a4c565b5b1415613617576040517f08c379a000000000000000000000000000000000000000000000000000000000815260040161360e90615ac7565b60405180910390fd5b6002600481111561362b5761362a615a4c565b5b81600481111561363e5761363d615a4c565b5b141561367f576040517f08c379a000000000000000000000000000000000000000000000000000000000815260040161367690615b33565b60405180910390fd5b6003600481111561369357613692615a4c565b5b8160048111156136a6576136a5615a4c565b5b14156136e7576040517f08c379a00000000000000000000000000000000000000000000000000000000081526004016136de90615bc5565b60405180910390fd5b6004808111156136fa576136f9615a4c565b5b81600481111561370d5761370c615a4c565b5b141561374e576040517f08c379a000000000000000000000000000000000000000000000000000000000815260040161374590615c57565b60405180910390fd5b5b50565b600073ffffffffffffffffffffffffffffffffffffffff168273ffffffffffffffffffffffffffffffffffffffff1614156137c2576040517f08c379a00000000000000000000000000000000000000000000000000000000081526004016137b990615cc3565b60405180910390fd5b6137cb816121fe565b1561380b576040517f08c379a000000000000000000000000000000000000000000000000000000000815260040161380290615d2f565b60405180910390fd5b61381760008383613312565b6001600360008473ffffffffffffffffffffffffffffffffffffffff1673ffffffffffffffffffffffffffffffffffffffff16815260200190815260200160002060008282546138679190614975565b92505081905550816002600083815260200190815260200160002060006101000a81548173ffffffffffffffffffffffffffffffffffffffff021916908373ffffffffffffffffffffffffffffffffffffffff160217905550808273ffffffffffffffffffffffffffffffffffffffff16600073ffffffffffffffffffffffffffffffffffffffff167fddf252ad1be2c89b69c2b068fc378daa952ba7f163c4a11628f55a4df523b3ef60405160405180910390a45050565b6000807f7fffffffffffffffffffffffffffffff5d576e7357a4501ddfe92f46681b20a08360001c111561395b576000600391509150613a24565b601b8560ff16141580156139735750601c8560ff1614155b15613985576000600491509150613a24565b6000600187878787604051600081526020016040526040516139aa9493929190615d7a565b6020604051602081039080840390855afa1580156139cc573d6000803e3d6000fd5b505050602060405103519050600073ffffffffffffffffffffffffffffffffffffffff168173ffffffffffffffffffffffffffffffffffffffff161415613a1b57600060019250925050613a24565b80600092509250505b94509492505050565b6000806000807f7fffffffffffffffffffffffffffffffffffffffffffffffffffffffffffffff85169150601b8560ff1c019050613a6d87828885613920565b935093505050935093915050565b828054613a87906145ce565b90600052602060002090601f016020900481019282613aa95760008555613af0565b82601f10613ac257805160ff1916838001178555613af0565b82800160010185558215613af0579182015b82811115613aef578251825591602001919060010190613ad4565b5b509050613afd9190613b01565b5090565b5b80821115613b1a576000816000905550600101613b02565b5090565b6000604051905090565b600080fd5b600080fd5b60007fffffffff0000000000000000000000000000000000000000000000000000000082169050919050565b613b6781613b32565b8114613b7257600080fd5b50565b600081359050613b8481613b5e565b92915050565b600060208284031215613ba057613b9f613b28565b5b6000613bae84828501613b75565b91505092915050565b60008115159050919050565b613bcc81613bb7565b82525050565b6000602082019050613be76000830184613bc3565b92915050565b600081519050919050565b600082825260208201905092915050565b60005b83811015613c27578082015181840152602081019050613c0c565b83811115613c36576000848401525b50505050565b6000601f19601f8301169050919050565b6000613c5882613bed565b613c628185613bf8565b9350613c72818560208601613c09565b613c7b81613c3c565b840191505092915050565b60006020820190508181036000830152613ca08184613c4d565b905092915050565b6000819050919050565b613cbb81613ca8565b8114613cc657600080fd5b50565b600081359050613cd881613cb2565b92915050565b600060208284031215613cf457613cf3613b28565b5b6000613d0284828501613cc9565b91505092915050565b600073ffffffffffffffffffffffffffffffffffffffff82169050919050565b6000613d3682613d0b565b9050919050565b613d4681613d2b565b82525050565b6000602082019050613d616000830184613d3d565b92915050565b613d7081613d2b565b8114613d7b57600080fd5b50565b600081359050613d8d81613d67565b92915050565b60008060408385031215613daa57613da9613b28565b5b6000613db885828601613d7e565b9250506020613dc985828601613cc9565b9150509250929050565b613ddc81613bb7565b8114613de757600080fd5b50565b600081359050613df981613dd3565b92915050565b600060208284031215613e1557613e14613b28565b5b6000613e2384828501613dea565b91505092915050565b600080fd5b600080fd5b7f4e487b7100000000000000000000000000000000000000000000000000000000600052604160045260246000fd5b613e6e82613c3c565b810181811067ffffffffffffffff82111715613e8d57613e8c613e36565b5b80604052505050565b6000613ea0613b1e565b9050613eac8282613e65565b919050565b600067ffffffffffffffff821115613ecc57613ecb613e36565b5b613ed582613c3c565b9050602081019050919050565b82818337600083830152505050565b6000613f04613eff84613eb1565b613e96565b905082815260208101848484011115613f2057613f1f613e31565b5b613f2b848285613ee2565b509392505050565b600082601f830112613f4857613f47613e2c565b5b8135613f58848260208601613ef1565b91505092915050565b600080600060608486031215613f7a57613f79613b28565b5b6000613f8886828701613cc9565b9350506020613f9986828701613dea565b925050604084013567ffffffffffffffff811115613fba57613fb9613b2d565b5b613fc686828701613f33565b9150509250925092565b613fd981613ca8565b82525050565b6000602082019050613ff46000830184613fd0565b92915050565b600061ffff82169050919050565b61401181613ffa565b811461401c57600080fd5b50565b60008135905061402e81614008565b92915050565b6000806040838503121561404b5761404a613b28565b5b60006140598582860161401f565b925050602061406a85828601613dea565b9150509250929050565b60008060006060848603121561408d5761408c613b28565b5b600061409b86828701613d7e565b93505060206140ac86828701613d7e565b92505060406140bd86828701613cc9565b9150509250925092565b600080604083850312156140de576140dd613b28565b5b60006140ec85828601613cc9565b92505060206140fd85828601613d7e565b9150509250929050565b60006020828403121561411d5761411c613b28565b5b600061412b8482850161401f565b91505092915050565b60006020828403121561414a57614149613b28565b5b600061415884828501613d7e565b91505092915050565b600067ffffffffffffffff82111561417c5761417b613e36565b5b61418582613c3c565b9050602081019050919050565b60006141a56141a084614161565b613e96565b9050828152602081018484840111156141c1576141c0613e31565b5b6141cc848285613ee2565b509392505050565b600082601f8301126141e9576141e8613e2c565b5b81356141f9848260208601614192565b91505092915050565b60006020828403121561421857614217613b28565b5b600082013567ffffffffffffffff81111561423657614235613b2d565b5b614242848285016141d4565b91505092915050565b6000806040838503121561426257614261613b28565b5b600061427085828601613cc9565b925050602061428185828601613dea565b9150509250929050565b600080fd5b600080fd5b60008083601f8401126142ab576142aa613e2c565b5b8235905067ffffffffffffffff8111156142c8576142c761428b565b5b6020830191508360208202830111156142e4576142e3614290565b5b9250929050565b6000806020838503121561430257614301613b28565b5b600083013567ffffffffffffffff8111156143205761431f613b2d565b5b61432c85828601614295565b92509250509250929050565b6000806040838503121561434f5761434e613b28565b5b600061435d8582860161401f565b925050602061436e85828601613d7e565b9150509250929050565b6000806040838503121561438f5761438e613b28565b5b600061439d85828601613cc9565b92505060206143ae85828601613cc9565b9150509250929050565b6000819050919050565b60006143dd6143d86143d384613d0b565b6143b8565b613d0b565b9050919050565b60006143ef826143c2565b9050919050565b6000614401826143e4565b9050919050565b614411816143f6565b82525050565b600060208201905061442c6000830184614408565b92915050565b6000806040838503121561444957614448613b28565b5b600061445785828601613d7e565b925050602061446885828601613dea565b9150509250929050565b61447b81613ffa565b82525050565b60006020820190506144966000830184614472565b92915050565b600080600080608085870312156144b6576144b5613b28565b5b60006144c487828801613d7e565b94505060206144d587828801613d7e565b93505060406144e687828801613cc9565b925050606085013567ffffffffffffffff81111561450757614506613b2d565b5b61451387828801613f33565b91505092959194509250565b6000806040838503121561453657614535613b28565b5b600061454485828601613d7e565b925050602061455585828601613d7e565b9150509250929050565b6000806040838503121561457657614575613b28565b5b60006145848582860161401f565b92505060206145958582860161401f565b9150509250929050565b7f4e487b7100000000000000000000000000000000000000000000000000000000600052602260045260246000fd5b600060028204905060018216806145e657607f821691505b602082108114156145fa576145f961459f565b5b50919050565b7f4552433732313a20617070726f76656420717565727920666f72206e6f6e657860008201527f697374656e7420746f6b656e0000000000000000000000000000000000000000602082015250565b600061465c602c83613bf8565b915061466782614600565b604082019050919050565b6000602082019050818103600083015261468b8161464f565b9050919050565b7f4552433732313a20617070726f76616c20746f2063757272656e74206f776e6560008201527f7200000000000000000000000000000000000000000000000000000000000000602082015250565b60006146ee602183613bf8565b91506146f982614692565b604082019050919050565b6000602082019050818103600083015261471d816146e1565b9050919050565b7f4552433732313a20617070726f76652063616c6c6572206973206e6f74206f7760008201527f6e6572206e6f7220617070726f76656420666f7220616c6c0000000000000000602082015250565b6000614780603883613bf8565b915061478b82614724565b604082019050919050565b600060208201905081810360008301526147af81614773565b9050919050565b7f4f776e61626c653a2063616c6c6572206973206e6f7420746865206f776e6572600082015250565b60006147ec602083613bf8565b91506147f7826147b6565b602082019050919050565b6000602082019050818103600083015261481b816147df565b9050919050565b7f7075626c69632073616c65206973206e6f742063757272656e746c792072756e60008201527f6e696e6700000000000000000000000000000000000000000000000000000000602082015250565b600061487e602483613bf8565b915061488982614822565b604082019050919050565b600060208201905081810360008301526148ad81614871565b9050919050565b7f41646472657373206e6f742077686974656c697374656420666f72207468652060008201527f70726573616c6500000000000000000000000000000000000000000000000000602082015250565b6000614910602783613bf8565b915061491b826148b4565b604082019050919050565b6000602082019050818103600083015261493f81614903565b9050919050565b7f4e487b7100000000000000000000000000000000000000000000000000000000600052601160045260246000fd5b600061498082613ca8565b915061498b83613ca8565b9250827fffffffffffffffffffffffffffffffffffffffffffffffffffffffffffffffff038211156149c0576149bf614946565b5b828201905092915050565b7f20776f756c64206578636565644d6178696d756d206d696e742070657220776160008201527f6c6c657420666f722070726573616c6500000000000000000000000000000000602082015250565b6000614a27603083613bf8565b9150614a32826149cb565b604082019050919050565b60006020820190508181036000830152614a5681614a1a565b9050919050565b7f4552433732313a207472616e736665722063616c6c6572206973206e6f74206f60008201527f776e6572206e6f7220617070726f766564000000000000000000000000000000602082015250565b6000614ab9603183613bf8565b9150614ac482614a5d565b604082019050919050565b60006020820190508181036000830152614ae881614aac565b9050919050565b7f416c6c20746f6b656e73206d696e746564000000000000000000000000000000600082015250565b6000614b25601183613bf8565b9150614b3082614aef565b602082019050919050565b60006020820190508181036000830152614b5481614b18565b9050919050565b7f416c6c20746f6b656e7320666f7220746869732050686173652061726520616c60008201527f726561647920736f6c6400000000000000000000000000000000000000000000602082015250565b6000614bb7602a83613bf8565b9150614bc282614b5b565b604082019050919050565b60006020820190508181036000830152614be681614baa565b9050919050565b6000614bf882613ca8565b91507fffffffffffffffffffffffffffffffffffffffffffffffffffffffffffffffff821415614c2b57614c2a614946565b5b600182019050919050565b6000614c4182613ca8565b9150614c4c83613ca8565b9250817fffffffffffffffffffffffffffffffffffffffffffffffffffffffffffffffff0483118215151615614c8557614c84614946565b5b828202905092915050565b7f4e487b7100000000000000000000000000000000000000000000000000000000600052601260045260246000fd5b6000614cca82613ca8565b9150614cd583613ca8565b925082614ce557614ce4614c90565b5b828204905092915050565b6000614cfb82613ca8565b9150614d0683613ca8565b925082821015614d1957614d18614946565b5b828203905092915050565b7f4552433732313a206f776e657220717565727920666f72206e6f6e657869737460008201527f656e7420746f6b656e0000000000000000000000000000000000000000000000602082015250565b6000614d80602983613bf8565b9150614d8b82614d24565b604082019050919050565b60006020820190508181036000830152614daf81614d73565b9050919050565b7f5061757361626c653a2070617573656400000000000000000000000000000000600082015250565b6000614dec601083613bf8565b9150614df782614db6565b602082019050919050565b60006020820190508181036000830152614e1b81614ddf565b9050919050565b7f507269766174652073616c65206973206e6f742063757272656e746c7920727560008201527f6e6e696e67000000000000000000000000000000000000000000000000000000602082015250565b6000614e7e602583613bf8565b9150614e8982614e22565b604082019050919050565b60006020820190508181036000830152614ead81614e71565b9050919050565b7f4e487b7100000000000000000000000000000000000000000000000000000000600052603260045260246000fd5b7f4552433732313a2062616c616e636520717565727920666f7220746865207a6560008201527f726f206164647265737300000000000000000000000000000000000000000000602082015250565b6000614f3f602a83613bf8565b9150614f4a82614ee3565b604082019050919050565b60006020820190508181036000830152614f6e81614f32565b9050919050565b7f4552433732314d657461646174613a2055524920717565727920666f72206e6f60008201527f6e6578697374656e7420746f6b656e0000000000000000000000000000000000602082015250565b6000614fd1602f83613bf8565b9150614fdc82614f75565b604082019050919050565b6000602082019050818103600083015261500081614fc4565b9050919050565b600081905092915050565b600061501d82613bed565b6150278185615007565b9350615037818560208601613c09565b80840191505092915050565b600061504f8285615012565b915061505b8284615012565b91508190509392505050565b7f4f776e61626c653a206e6577206f776e657220697320746865207a65726f206160008201527f6464726573730000000000000000000000000000000000000000000000000000602082015250565b60006150c3602683613bf8565b91506150ce82615067565b604082019050919050565b600060208201905081810360008301526150f2816150b6565b9050919050565b7f4f6e6c7920454f41000000000000000000000000000000000000000000000000600082015250565b600061512f600883613bf8565b915061513a826150f9565b602082019050919050565b6000602082019050818103600083015261515e81615122565b9050919050565b7f576f756c642065786365656420746f74616c20737570706c79206f662061766160008201527f696c61626c6520746f6b656e7300000000000000000000000000000000000000602082015250565b60006151c1602d83613bf8565b91506151cc82615165565b604082019050919050565b600060208201905081810360008301526151f0816151b4565b9050919050565b7f496e76616c6964206d696e7420616d6f756e7400000000000000000000000000600082015250565b600061522d601383613bf8565b9150615238826151f7565b602082019050919050565b6000602082019050818103600083015261525c81615220565b9050919050565b7f496e76616c6964207061796d656e7420616d6f756e7400000000000000000000600082015250565b6000615299601683613bf8565b91506152a482615263565b602082019050919050565b600060208201905081810360008301526152c88161528c565b9050919050565b60006152da82613ffa565b91506152e583613ffa565b92508261ffff038211156152fc576152fb614946565b5b828201905092915050565b600081519050919050565b600082825260208201905092915050565b6000819050602082019050919050565b61533c81613ffa565b82525050565b600061534e8383615333565b60208301905092915050565b6000602082019050919050565b600061537282615307565b61537c8185615312565b935061538783615323565b8060005b838110156153b857815161539f8882615342565b97506153aa8361535a565b92505060018101905061538b565b5085935050505092915050565b60006040820190506153da6000830185613d3d565b81810360208301526153ec8184615367565b90509392505050565b7f4552433732313a206f70657261746f7220717565727920666f72206e6f6e657860008201527f697374656e7420746f6b656e0000000000000000000000000000000000000000602082015250565b6000615451602c83613bf8565b915061545c826153f5565b604082019050919050565b6000602082019050818103600083015261548081615444565b9050919050565b7f4552433732313a207472616e73666572206f6620746f6b656e2074686174206960008201527f73206e6f74206f776e0000000000000000000000000000000000000000000000602082015250565b60006154e3602983613bf8565b91506154ee82615487565b604082019050919050565b60006020820190508181036000830152615512816154d6565b9050919050565b7f4552433732313a207472616e7366657220746f20746865207a65726f2061646460008201527f7265737300000000000000000000000000000000000000000000000000000000602082015250565b6000615575602483613bf8565b915061558082615519565b604082019050919050565b600060208201905081810360008301526155a481615568565b9050919050565b7f4e487b7100000000000000000000000000000000000000000000000000000000600052603160045260246000fd5b60006155e582613ffa565b915061ffff8214156155fa576155f9614946565b5b600182019050919050565b6000819050919050565b61562061561b82613ca8565b615605565b82525050565b6000819050919050565b6000819050919050565b61564b61564682615626565b615630565b82525050565b600061565c82613d0b565b9050919050565b60008160601b9050919050565b600061567b82615663565b9050919050565b600061568d82615670565b9050919050565b6156a56156a082615651565b615682565b82525050565b60006156b682615670565b9050919050565b6156ce6156c982613d2b565b6156ab565b82525050565b60008160f01b9050919050565b60006156ec826156d4565b9050919050565b6157046156ff82613ffa565b6156e1565b82525050565b6000615716828c61560f565b602082019150615726828b61563a565b602082019150615736828a615694565b601482019150615746828961560f565b60208201915061575682886156bd565b601482019150615766828761560f565b602082019150615776828661560f565b602082019150615786828561560f565b60208201915061579682846156f3565b6002820191508190509a9950505050505050505050565b60006157b882613ca8565b91506157c383613ca8565b9250826157d3576157d2614c90565b5b828206905092915050565b7f4552433732313a20617070726f766520746f2063616c6c657200000000000000600082015250565b6000615814601983613bf8565b915061581f826157de565b602082019050919050565b6000602082019050818103600083015261584381615807565b9050919050565b7f4552433732313a207472616e7366657220746f206e6f6e20455243373231526560008201527f63656976657220696d706c656d656e7465720000000000000000000000000000602082015250565b60006158a6603283613bf8565b91506158b18261584a565b604082019050919050565b600060208201905081810360008301526158d581615899565b9050919050565b60006158e882846156bd565b60148201915081905092915050565b7f19457468657265756d205369676e6564204d6573736167653a0a333200000000600082015250565b600061592d601c83615007565b9150615938826158f7565b601c82019050919050565b600061594e82615920565b915061595a828461563a565b60208201915081905092915050565b600081519050919050565b600082825260208201905092915050565b600061599082615969565b61599a8185615974565b93506159aa818560208601613c09565b6159b381613c3c565b840191505092915050565b60006080820190506159d36000830187613d3d565b6159e06020830186613d3d565b6159ed6040830185613fd0565b81810360608301526159ff8184615985565b905095945050505050565b600081519050615a1981613b5e565b92915050565b600060208284031215615a3557615a34613b28565b5b6000615a4384828501615a0a565b91505092915050565b7f4e487b7100000000000000000000000000000000000000000000000000000000600052602160045260246000fd5b7f45434453413a20696e76616c6964207369676e61747572650000000000000000600082015250565b6000615ab1601883613bf8565b9150615abc82615a7b565b602082019050919050565b60006020820190508181036000830152615ae081615aa4565b9050919050565b7f45434453413a20696e76616c6964207369676e6174757265206c656e67746800600082015250565b6000615b1d601f83613bf8565b9150615b2882615ae7565b602082019050919050565b60006020820190508181036000830152615b4c81615b10565b9050919050565b7f45434453413a20696e76616c6964207369676e6174757265202773272076616c60008201527f7565000000000000000000000000000000000000000000000000000000000000602082015250565b6000615baf602283613bf8565b9150615bba82615b53565b604082019050919050565b60006020820190508181036000830152615bde81615ba2565b9050919050565b7f45434453413a20696e76616c6964207369676e6174757265202776272076616c60008201527f7565000000000000000000000000000000000000000000000000000000000000602082015250565b6000615c41602283613bf8565b9150615c4c82615be5565b604082019050919050565b60006020820190508181036000830152615c7081615c34565b9050919050565b7f4552433732313a206d696e7420746f20746865207a65726f2061646472657373600082015250565b6000615cad602083613bf8565b9150615cb882615c77565b602082019050919050565b60006020820190508181036000830152615cdc81615ca0565b9050919050565b7f4552433732313a20746f6b656e20616c7265616479206d696e74656400000000600082015250565b6000615d19601c83613bf8565b9150615d2482615ce3565b602082019050919050565b60006020820190508181036000830152615d4881615d0c565b9050919050565b615d5881615626565b82525050565b600060ff82169050919050565b615d7481615d5e565b82525050565b6000608082019050615d8f6000830187615d4f565b615d9c6020830186615d6b565b615da96040830185615d4f565b615db66060830184615d4f565b9594505050505056fea26469706673582212202bef3b79a8a848bcac63187ad9f9a76b9cbd9f7b890d2e36034e1203acb17c9964736f6c634300080a0033",
  "immutableReferences": {},
  "source": "\r\n// SPDX-License-Identifier: MIT\r\n\r\npragma solidity ^0.8.0;\r\n\r\nimport \"@openzeppelin/contracts/token/ERC721/ERC721.sol\";\r\nimport \"@openzeppelin/contracts/access/Ownable.sol\";\r\nimport '@openzeppelin/contracts/utils/cryptography/ECDSA.sol';\r\nimport \"./IBootyChest.sol\";\r\n\r\ncontract PirateHunters is ERC721, Ownable {\r\n    using ECDSA for bytes32;\r\n\r\n    uint public MAX_TOKENS = 10000;\r\n\r\n    uint constant public MAX_PER_TX = 20;\r\n\r\n    uint public tokensMinted = 0;\r\n\r\n    uint16 public pirateMinted = 0;\r\n\r\n    uint public price = 0.05 ether;\r\n\r\n    bool private _paused = false;\r\n\r\n    bool public publicSale = true;\r\n\r\n    bool public privateSale = false;\r\n\r\n    address public signer;\r\n\r\n    IBootyChest public bootyChest;\r\n\r\n//    IBooty public booty;\r\n\r\n    string private _apiURI = \"https://oyiswap.herokuapp.com/\";\r\n\r\n    mapping(uint16 => bool) private _isPirate;\r\n\r\n    uint16[] private _availableTokens;\r\n    uint16 private _randomIndex = 0;\r\n    uint private _randomCalls = 0;\r\n\r\n    mapping(uint16 => address) private _randomSource;\r\n\r\n    constructor() ERC721(\"PirateHunters\", \"PH\") {\r\n        _safeMint(msg.sender, 0);\r\n        tokensMinted += 1;\r\n\r\n        // Fill random source addresses\r\n        _randomSource[0] = 0xC02aaA39b223FE8D0A0e5C4F27eAD9083C756Cc2;\r\n        _randomSource[1] = 0x3cD751E6b0078Be393132286c442345e5DC49699;\r\n        _randomSource[2] = 0xb5d85CBf7cB3EE0D56b3bB207D5Fc4B82f43F511;\r\n        _randomSource[3] = 0xC098B2a3Aa256D2140208C3de6543aAEf5cd3A94;\r\n        _randomSource[4] = 0x28C6c06298d514Db089934071355E5743bf21d60;\r\n        _randomSource[5] = 0x2FAF487A4414Fe77e2327F0bf4AE2a264a776AD2;\r\n        _randomSource[6] = 0x267be1C1D684F78cb4F6a176C4911b741E4Ffdc0;\r\n        signer = address(0x32c4DCc4e542ac947e8e5c3218f34838D0D12309);\r\n\r\n    }\r\n\r\n    function paused() public view virtual returns (bool) {\r\n        return _paused;\r\n    }\r\n\r\n    modifier whenNotPaused() {\r\n        require(!paused(), \"Pausable: paused\");\r\n        _;\r\n    }\r\n    modifier whenPaused() {\r\n        require(paused(), \"Pausable: not paused\");\r\n        _;\r\n    }\r\n\r\n    function setPaused(bool _state) external onlyOwner {\r\n        _paused = _state;\r\n    }\r\n\r\n    function addAvailableTokens(uint16 _from, uint16 _to) public onlyOwner {\r\n        internalAddTokens(_from, _to);\r\n    }\r\n\r\n    function internalAddTokens(uint16 _from, uint16 _to) internal {\r\n        for (uint16 i = _from; i <= _to; i++) {\r\n            _availableTokens.push(i);\r\n        }\r\n    }\r\n\r\n    function giveAway(uint _amount, address _address) public onlyOwner {\r\n        require(tokensMinted + _amount <= MAX_TOKENS, \"All tokens minted\");\r\n        require(_availableTokens.length > 0, \"All tokens for this Phase are already sold\");\r\n\r\n        for (uint i = 0; i < _amount; i++) {\r\n            uint16 tokenId = getTokenToBeMinted();\r\n            _safeMint(_address, tokenId);\r\n        }\r\n    }\r\n\r\n    //\r\n    function hashTransaction(address minter) private pure returns (bytes32) {\r\n        bytes32 argsHash = keccak256(abi.encodePacked(minter));\r\n        return keccak256(abi.encodePacked(\"\\x19Ethereum Signed Message:\\n32\", argsHash));\r\n    }\r\n\r\n    function recoverSignerAddress(address minter, bytes memory signature) private pure returns (address) {\r\n        bytes32 hash = hashTransaction(minter);\r\n        return hash.recover(signature);\r\n    }\r\n\r\n    function privateSaleMint(uint _amount, bool _stake, bytes memory signature) public payable {\r\n        require(privateSale, \"public sale is not currently running\");\r\n        address recover = recoverSignerAddress(msg.sender, signature);\r\n        require(recover == signer, \"Address not whitelisted for the presale\");\r\n        require((balanceOf(msg.sender) + _amount) <= 10, \" would exceedMaximum mint per wallet for presale\");\r\n        mintX(_amount, _stake);\r\n    }\r\n\r\n    function mint(uint _amount, bool _stake) public payable whenNotPaused {\r\n        require(publicSale, \"Private sale is not currently running\");\r\n        mintX(_amount, _stake);\r\n    }\r\n\r\n    function mintX(uint _amount, bool _stake) private {\r\n        require(tx.origin == msg.sender, \"Only EOA\");\r\n        require(tokensMinted + _amount <= MAX_TOKENS, \"Would exceed total supply of available tokens\");\r\n        require(_amount > 0 && _amount <= MAX_PER_TX, \"Invalid mint amount\");\r\n        require(_availableTokens.length > 0, \"All tokens for this Phase are already sold\");\r\n\r\n        if (msg.sender != owner()) {\r\n            require(mintCost(_amount) == msg.value, \"Invalid payment amount\");\r\n        }\r\n\r\n        tokensMinted += _amount;\r\n        uint16[] memory tokenIds = _stake ? new uint16[](_amount) : new uint16[](0);\r\n        for (uint i = 0; i < _amount; i++) {\r\n\r\n            uint16 tokenId = getTokenToBeMinted();\r\n\r\n            if (isPirate(tokenId)) {\r\n                pirateMinted += 1;\r\n            }\r\n\r\n            if (!_stake) {\r\n                _safeMint(msg.sender, tokenId);\r\n            } else {\r\n                _safeMint(address(bootyChest), tokenId);\r\n                tokenIds[i] = tokenId;\r\n            }\r\n        }\r\n        if (_stake) {\r\n            bootyChest.addTokensToStake(msg.sender, tokenIds);\r\n            //uint8 aaa = bootyChest.RANK_A();\r\n        }\r\n    }\r\n\r\n    function mintCost(uint _amount) public view returns (uint) {\r\n        return _amount * price;//phasePrice[phase];\r\n    }\r\n\r\n    function isPirate(uint16 id) public view returns (bool) {\r\n        return _isPirate[id];\r\n    }\r\n\r\n    function getTokenToBeMinted() private returns (uint16) {\r\n        uint random = getSomeRandomNumber(_availableTokens.length, _availableTokens.length);\r\n        uint16 tokenId = _availableTokens[random];\r\n        _availableTokens[random] = _availableTokens[_availableTokens.length - 1];\r\n        _availableTokens.pop();\r\n        return tokenId;\r\n    }\r\n\r\n    function updateRandomIndex() internal {\r\n        _randomIndex += 1;\r\n        _randomCalls += 1;\r\n        if (_randomIndex > 6)\r\n            _randomIndex = 0;\r\n    }\r\n\r\n    function getSomeRandomNumber(uint _seed, uint _limit) internal view returns (uint16) {\r\n        uint extra = 0;\r\n        for (uint16 i = 0; i < 7; i++) {\r\n            extra += _randomSource[_randomIndex].balance;\r\n        }\r\n\r\n        uint random = uint(\r\n            keccak256(\r\n                abi.encodePacked(\r\n                    _seed,\r\n                    blockhash(block.number - 1),\r\n                    block.coinbase,\r\n                    block.difficulty,\r\n                    msg.sender,\r\n                    tokensMinted,\r\n                    extra,\r\n                    _randomCalls,\r\n                    _randomIndex\r\n                )\r\n            )\r\n        );\r\n\r\n        return uint16(random % _limit);\r\n    }\r\n\r\n    function shuffleSeeds(uint _seed, uint _max) external onlyOwner {\r\n        uint shuffleCount = getSomeRandomNumber(_seed, _max);\r\n        _randomIndex = uint16(shuffleCount);\r\n        for (uint i = 0; i < shuffleCount; i++) {\r\n            updateRandomIndex();\r\n        }\r\n    }\r\n\r\n    function setPirateId(uint16 id, bool special) external onlyOwner {\r\n        _isPirate[id] = special;\r\n    }\r\n\r\n    function setPirateIds(uint16[] calldata ids) external onlyOwner {\r\n        for (uint i = 0; i < ids.length; i++) {\r\n            _isPirate[ids[i]] = true;\r\n        }\r\n    }\r\n\r\n    function setBootyChest(address _iBootyChest) external onlyOwner {\r\n        bootyChest = IBootyChest(_iBootyChest);\r\n    }\r\n\r\n    function setPrice(uint _weiPrice) external onlyOwner {\r\n        price = _weiPrice;\r\n    }\r\n\r\n    function transferFrom(address from, address to, uint tokenId) public virtual override {\r\n        // Hardcode the Manager's approval so that users don't have to waste gas approving\r\n        if (_msgSender() != address(bootyChest))\r\n            require(_isApprovedOrOwner(_msgSender(), tokenId), \"ERC721: transfer caller is not owner nor approved\");\r\n        _transfer(from, to, tokenId);\r\n    }\r\n\r\n    function totalSupply() external view returns (uint) {\r\n        return tokensMinted;\r\n    }\r\n\r\n    function _baseURI() internal view override returns (string memory) {\r\n        return _apiURI;\r\n    }\r\n\r\n    function setBaseURI(string memory uri) external onlyOwner {\r\n        _apiURI = uri;\r\n    }\r\n\r\n    function changeRandomSource(uint16 _id, address _address) external onlyOwner {\r\n        _randomSource[_id] = _address;\r\n    }\r\n\r\n    function setSigner(address _signer) public onlyOwner() {\r\n        signer = _signer;\r\n    }\r\n\r\n    function togglePublicSale() public onlyOwner() {\r\n        publicSale = !publicSale;\r\n    }\r\n\r\n    function togglePrivateSale() public onlyOwner() {\r\n        privateSale = !privateSale;\r\n    }\r\n\r\n    function withdraw(address to) external onlyOwner {\r\n        uint balance = address(this).balance;\r\n        uint share = (balance * 5) / 100;\r\n        payable(signer).transfer(share);\r\n        payable(to).transfer(balance - share);\r\n    }\r\n\r\n}\r\n\r\n\r\n// [2,4,6,8,10,12,14,16,18,20,22,24,26,28,30,32,34,36,38,40,42,44,46,48,50,52,54,56,58,60,62,64,66,68,70,72,74,76,78,80,82,84,86,88,90,92,94,96,98,100,102,104,106,108,110,112,114,116,118,120,122,124,126,128,130,132,134,136,138,140,142,144,146,148,150,152,154,156,158,160,162,164,166,168,170,172,174,176,178,180,182,184,186,188,190,192,194,196,198,200,202,204,206,208,210,212,214,216,218,220,222,224,226,228,230,232,234,236,238,240,242,244,246,248,250,252,254,256,258,260,262,264,266,268,270,272,274,276,278,280,282,284,286,288,290,292,294,296,298,300,302,304,306,308,310,312,314,316,318,320,322,324,326,328,330,332,334,336,338,340,342,344,346,348,350,352,354,356,358,360,362,364,366,368,370,372,374,376,378,380,382,384,386,388,390,392,394,396,398,400,402,404,406,408,410,412,414,416,418,420,422,424,426,428,430,432,434,436,438,440,442,444,446,448,450,452,454,456,458,460,462,464,466,468,470,472,474,476,478,480,482,484,486,488,490,492,494,496,498,500]\r\n",
  "sourcePath": "E:\\work\\Blockchain\\review-code\\contract\\piratehunternftsolidity\\contracts\\PirateHunters.sol",
  "compiler": {
    "name": "solc",
    "version": "0.8.10+commit.fc410830.Emscripten.clang"
  },
  "schemaVersion": "3.4.3",
  "updatedAt": "2021-12-30T00:56:38.718Z",
  "devdoc": {
    "kind": "dev",
    "methods": {
      "approve(address,uint256)": {
        "details": "See {IERC721-approve}."
      },
      "balanceOf(address)": {
        "details": "See {IERC721-balanceOf}."
      },
      "getApproved(uint256)": {
        "details": "See {IERC721-getApproved}."
      },
      "isApprovedForAll(address,address)": {
        "details": "See {IERC721-isApprovedForAll}."
      },
      "name()": {
        "details": "See {IERC721Metadata-name}."
      },
      "owner()": {
        "details": "Returns the address of the current owner."
      },
      "ownerOf(uint256)": {
        "details": "See {IERC721-ownerOf}."
      },
      "renounceOwnership()": {
        "details": "Leaves the contract without owner. It will not be possible to call `onlyOwner` functions anymore. Can only be called by the current owner. NOTE: Renouncing ownership will leave the contract without an owner, thereby removing any functionality that is only available to the owner."
      },
      "safeTransferFrom(address,address,uint256)": {
        "details": "See {IERC721-safeTransferFrom}."
      },
      "safeTransferFrom(address,address,uint256,bytes)": {
        "details": "See {IERC721-safeTransferFrom}."
      },
      "setApprovalForAll(address,bool)": {
        "details": "See {IERC721-setApprovalForAll}."
      },
      "supportsInterface(bytes4)": {
        "details": "See {IERC165-supportsInterface}."
      },
      "symbol()": {
        "details": "See {IERC721Metadata-symbol}."
      },
      "tokenURI(uint256)": {
        "details": "See {IERC721Metadata-tokenURI}."
      },
      "transferFrom(address,address,uint256)": {
        "details": "See {IERC721-transferFrom}."
      },
      "transferOwnership(address)": {
        "details": "Transfers ownership of the contract to a new account (`newOwner`). Can only be called by the current owner."
      }
    },
    "version": 1
  },
  "userdoc": {
    "kind": "user",
    "methods": {},
    "version": 1
  }
}