{
  "contractName": "Shop",
  "abi": [
    {
      "inputs": [],
      "stateMutability": "nonpayable",
      "type": "constructor"
    },
    {
      "anonymous": false,
      "inputs": [
        {
          "indexed": true,
          "internalType": "address",
          "name": "previousOwner",
          "type": "address"
        },
        {
          "indexed": true,
          "internalType": "address",
          "name": "newOwner",
          "type": "address"
        }
      ],
      "name": "OwnershipTransferred",
      "type": "event"
    },
    {
      "inputs": [],
      "name": "booty",
      "outputs": [
        {
          "internalType": "contract IBooty",
          "name": "",
          "type": "address"
        }
      ],
      "stateMutability": "view",
      "type": "function"
    },
    {
      "inputs": [],
      "name": "bootyChest",
      "outputs": [
        {
          "internalType": "contract IBootyChest",
          "name": "",
          "type": "address"
        }
      ],
      "stateMutability": "view",
      "type": "function"
    },
    {
      "inputs": [
        {
          "internalType": "uint256",
          "name": "",
          "type": "uint256"
        }
      ],
      "name": "bounties",
      "outputs": [
        {
          "internalType": "string",
          "name": "name",
          "type": "string"
        },
        {
          "internalType": "uint8",
          "name": "id",
          "type": "uint8"
        },
        {
          "internalType": "bool",
          "name": "offensive",
          "type": "bool"
        },
        {
          "internalType": "bool",
          "name": "percentage",
          "type": "bool"
        },
        {
          "internalType": "uint256",
          "name": "value",
          "type": "uint256"
        },
        {
          "internalType": "uint256",
          "name": "expired",
          "type": "uint256"
        },
        {
          "internalType": "uint256",
          "name": "price",
          "type": "uint256"
        },
        {
          "internalType": "uint256",
          "name": "supply",
          "type": "uint256"
        },
        {
          "internalType": "string",
          "name": "img",
          "type": "string"
        },
        {
          "internalType": "bool",
          "name": "valid",
          "type": "bool"
        }
      ],
      "stateMutability": "view",
      "type": "function"
    },
    {
      "inputs": [
        {
          "internalType": "address",
          "name": "",
          "type": "address"
        },
        {
          "internalType": "uint256",
          "name": "",
          "type": "uint256"
        }
      ],
      "name": "bountiesPurchased",
      "outputs": [
        {
          "internalType": "string",
          "name": "name",
          "type": "string"
        },
        {
          "internalType": "uint8",
          "name": "id",
          "type": "uint8"
        },
        {
          "internalType": "bool",
          "name": "offensive",
          "type": "bool"
        },
        {
          "internalType": "bool",
          "name": "percentage",
          "type": "bool"
        },
        {
          "internalType": "uint256",
          "name": "value",
          "type": "uint256"
        },
        {
          "internalType": "uint256",
          "name": "expired",
          "type": "uint256"
        },
        {
          "internalType": "uint256",
          "name": "price",
          "type": "uint256"
        },
        {
          "internalType": "uint256",
          "name": "supply",
          "type": "uint256"
        },
        {
          "internalType": "string",
          "name": "img",
          "type": "string"
        },
        {
          "internalType": "bool",
          "name": "valid",
          "type": "bool"
        }
      ],
      "stateMutability": "view",
      "type": "function"
    },
    {
      "inputs": [],
      "name": "name",
      "outputs": [
        {
          "internalType": "string",
          "name": "",
          "type": "string"
        }
      ],
      "stateMutability": "view",
      "type": "function"
    },
    {
      "inputs": [],
      "name": "owner",
      "outputs": [
        {
          "internalType": "address",
          "name": "",
          "type": "address"
        }
      ],
      "stateMutability": "view",
      "type": "function"
    },
    {
      "inputs": [
        {
          "internalType": "uint256",
          "name": "",
          "type": "uint256"
        }
      ],
      "name": "pirateItems",
      "outputs": [
        {
          "internalType": "string",
          "name": "name",
          "type": "string"
        },
        {
          "internalType": "uint8",
          "name": "id",
          "type": "uint8"
        },
        {
          "internalType": "bool",
          "name": "offensive",
          "type": "bool"
        },
        {
          "internalType": "bool",
          "name": "percentage",
          "type": "bool"
        },
        {
          "internalType": "uint256",
          "name": "value",
          "type": "uint256"
        },
        {
          "internalType": "uint256",
          "name": "expired",
          "type": "uint256"
        },
        {
          "internalType": "uint256",
          "name": "noOfTime",
          "type": "uint256"
        },
        {
          "internalType": "uint256",
          "name": "price",
          "type": "uint256"
        },
        {
          "internalType": "uint256",
          "name": "supply",
          "type": "uint256"
        },
        {
          "internalType": "string",
          "name": "img",
          "type": "string"
        },
        {
          "internalType": "bool",
          "name": "valid",
          "type": "bool"
        }
      ],
      "stateMutability": "view",
      "type": "function"
    },
    {
      "inputs": [
        {
          "internalType": "address",
          "name": "",
          "type": "address"
        },
        {
          "internalType": "uint256",
          "name": "",
          "type": "uint256"
        }
      ],
      "name": "pirateItemsPurchased",
      "outputs": [
        {
          "internalType": "uint16",
          "name": "tokenId",
          "type": "uint16"
        },
        {
          "internalType": "uint8",
          "name": "itemId",
          "type": "uint8"
        },
        {
          "internalType": "uint256",
          "name": "time",
          "type": "uint256"
        },
        {
          "internalType": "uint256",
          "name": "expired",
          "type": "uint256"
        }
      ],
      "stateMutability": "view",
      "type": "function"
    },
    {
      "inputs": [
        {
          "internalType": "uint256",
          "name": "",
          "type": "uint256"
        }
      ],
      "name": "rankUps",
      "outputs": [
        {
          "internalType": "string",
          "name": "name",
          "type": "string"
        },
        {
          "internalType": "uint256",
          "name": "id",
          "type": "uint256"
        },
        {
          "internalType": "uint256",
          "name": "requireId",
          "type": "uint256"
        },
        {
          "internalType": "uint256",
          "name": "price",
          "type": "uint256"
        },
        {
          "internalType": "string",
          "name": "img",
          "type": "string"
        }
      ],
      "stateMutability": "view",
      "type": "function"
    },
    {
      "inputs": [],
      "name": "renounceOwnership",
      "outputs": [],
      "stateMutability": "nonpayable",
      "type": "function"
    },
    {
      "inputs": [],
      "name": "symbol",
      "outputs": [
        {
          "internalType": "string",
          "name": "",
          "type": "string"
        }
      ],
      "stateMutability": "view",
      "type": "function"
    },
    {
      "inputs": [
        {
          "internalType": "address",
          "name": "newOwner",
          "type": "address"
        }
      ],
      "name": "transferOwnership",
      "outputs": [],
      "stateMutability": "nonpayable",
      "type": "function"
    },
    {
      "inputs": [
        {
          "internalType": "uint256[]",
          "name": "tokenIds",
          "type": "uint256[]"
        },
        {
          "internalType": "uint256",
          "name": "itemId",
          "type": "uint256"
        }
      ],
      "name": "purchasePirateItem",
      "outputs": [],
      "stateMutability": "payable",
      "type": "function"
    },
    {
      "inputs": [
        {
          "internalType": "address",
          "name": "owner",
          "type": "address"
        }
      ],
      "name": "getOwnerValidPurchasedItems",
      "outputs": [
        {
          "components": [
            {
              "internalType": "uint16",
              "name": "tokenId",
              "type": "uint16"
            },
            {
              "internalType": "uint8",
              "name": "itemId",
              "type": "uint8"
            },
            {
              "internalType": "uint256",
              "name": "time",
              "type": "uint256"
            },
            {
              "internalType": "uint256",
              "name": "expired",
              "type": "uint256"
            }
          ],
          "internalType": "struct SharedStructs.PurchasedPirateItem[]",
          "name": "",
          "type": "tuple[]"
        }
      ],
      "stateMutability": "nonpayable",
      "type": "function"
    },
    {
      "inputs": [
        {
          "internalType": "address",
          "name": "owner",
          "type": "address"
        }
      ],
      "name": "getOwnerPurchasedItems",
      "outputs": [
        {
          "components": [
            {
              "internalType": "uint16",
              "name": "tokenId",
              "type": "uint16"
            },
            {
              "internalType": "uint8",
              "name": "itemId",
              "type": "uint8"
            },
            {
              "internalType": "uint256",
              "name": "time",
              "type": "uint256"
            },
            {
              "internalType": "uint256",
              "name": "expired",
              "type": "uint256"
            }
          ],
          "internalType": "struct SharedStructs.PurchasedPirateItem[]",
          "name": "",
          "type": "tuple[]"
        }
      ],
      "stateMutability": "view",
      "type": "function"
    },
    {
      "inputs": [
        {
          "internalType": "uint16",
          "name": "tokenId",
          "type": "uint16"
        },
        {
          "internalType": "uint256",
          "name": "bootyRate",
          "type": "uint256"
        },
        {
          "internalType": "uint256",
          "name": "owed",
          "type": "uint256"
        }
      ],
      "name": "useOffensiveItems",
      "outputs": [
        {
          "internalType": "uint256",
          "name": "",
          "type": "uint256"
        }
      ],
      "stateMutability": "nonpayable",
      "type": "function"
    },
    {
      "inputs": [
        {
          "internalType": "uint16",
          "name": "tokenId",
          "type": "uint16"
        },
        {
          "internalType": "uint256",
          "name": "tax",
          "type": "uint256"
        }
      ],
      "name": "useDefensiveItems",
      "outputs": [
        {
          "internalType": "uint256",
          "name": "",
          "type": "uint256"
        }
      ],
      "stateMutability": "nonpayable",
      "type": "function"
    },
    {
      "inputs": [
        {
          "internalType": "uint16",
          "name": "tokenId",
          "type": "uint16"
        },
        {
          "internalType": "uint256",
          "name": "bootyRate",
          "type": "uint256"
        },
        {
          "internalType": "uint256",
          "name": "owed",
          "type": "uint256"
        }
      ],
      "name": "estOffensiveItems",
      "outputs": [
        {
          "internalType": "uint256",
          "name": "",
          "type": "uint256"
        }
      ],
      "stateMutability": "view",
      "type": "function"
    },
    {
      "inputs": [
        {
          "internalType": "uint16",
          "name": "tokenId",
          "type": "uint16"
        },
        {
          "internalType": "uint256",
          "name": "tax",
          "type": "uint256"
        }
      ],
      "name": "estDefensiveItems",
      "outputs": [
        {
          "internalType": "uint256",
          "name": "",
          "type": "uint256"
        }
      ],
      "stateMutability": "view",
      "type": "function"
    },
    {
      "inputs": [
        {
          "internalType": "address",
          "name": "owner",
          "type": "address"
        },
        {
          "internalType": "uint16",
          "name": "idx",
          "type": "uint16"
        },
        {
          "internalType": "uint16",
          "name": "tokenId",
          "type": "uint16"
        }
      ],
      "name": "usePirateItem",
      "outputs": [
        {
          "components": [
            {
              "internalType": "string",
              "name": "name",
              "type": "string"
            },
            {
              "internalType": "uint8",
              "name": "id",
              "type": "uint8"
            },
            {
              "internalType": "bool",
              "name": "offensive",
              "type": "bool"
            },
            {
              "internalType": "bool",
              "name": "percentage",
              "type": "bool"
            },
            {
              "internalType": "uint256",
              "name": "value",
              "type": "uint256"
            },
            {
              "internalType": "uint256",
              "name": "expired",
              "type": "uint256"
            },
            {
              "internalType": "uint256",
              "name": "noOfTime",
              "type": "uint256"
            },
            {
              "internalType": "uint256",
              "name": "price",
              "type": "uint256"
            },
            {
              "internalType": "uint256",
              "name": "supply",
              "type": "uint256"
            },
            {
              "internalType": "string",
              "name": "img",
              "type": "string"
            },
            {
              "internalType": "bool",
              "name": "valid",
              "type": "bool"
            }
          ],
          "internalType": "struct SharedStructs.PirateItem",
          "name": "",
          "type": "tuple"
        }
      ],
      "stateMutability": "nonpayable",
      "type": "function"
    },
    {
      "inputs": [
        {
          "internalType": "uint256[]",
          "name": "tokenIds",
          "type": "uint256[]"
        },
        {
          "internalType": "uint256",
          "name": "itemId",
          "type": "uint256"
        }
      ],
      "name": "purchaseBounty",
      "outputs": [],
      "stateMutability": "payable",
      "type": "function"
    },
    {
      "inputs": [
        {
          "internalType": "uint256[]",
          "name": "tokenIds",
          "type": "uint256[]"
        },
        {
          "internalType": "uint256",
          "name": "itemId",
          "type": "uint256"
        }
      ],
      "name": "purchaseRank",
      "outputs": [],
      "stateMutability": "payable",
      "type": "function"
    },
    {
      "inputs": [
        {
          "internalType": "address",
          "name": "owner",
          "type": "address"
        }
      ],
      "name": "deleteExpiredBounty",
      "outputs": [],
      "stateMutability": "nonpayable",
      "type": "function"
    },
    {
      "inputs": [
        {
          "components": [
            {
              "internalType": "string",
              "name": "name",
              "type": "string"
            },
            {
              "internalType": "uint8",
              "name": "id",
              "type": "uint8"
            },
            {
              "internalType": "bool",
              "name": "offensive",
              "type": "bool"
            },
            {
              "internalType": "bool",
              "name": "percentage",
              "type": "bool"
            },
            {
              "internalType": "uint256",
              "name": "value",
              "type": "uint256"
            },
            {
              "internalType": "uint256",
              "name": "expired",
              "type": "uint256"
            },
            {
              "internalType": "uint256",
              "name": "noOfTime",
              "type": "uint256"
            },
            {
              "internalType": "uint256",
              "name": "price",
              "type": "uint256"
            },
            {
              "internalType": "uint256",
              "name": "supply",
              "type": "uint256"
            },
            {
              "internalType": "string",
              "name": "img",
              "type": "string"
            },
            {
              "internalType": "bool",
              "name": "valid",
              "type": "bool"
            }
          ],
          "internalType": "struct SharedStructs.PirateItem",
          "name": "_item",
          "type": "tuple"
        }
      ],
      "name": "addPirateItem",
      "outputs": [],
      "stateMutability": "nonpayable",
      "type": "function"
    },
    {
      "inputs": [
        {
          "internalType": "uint256",
          "name": "_idx",
          "type": "uint256"
        }
      ],
      "name": "deletePirateItem",
      "outputs": [],
      "stateMutability": "nonpayable",
      "type": "function"
    },
    {
      "inputs": [
        {
          "internalType": "uint256",
          "name": "_idx",
          "type": "uint256"
        },
        {
          "components": [
            {
              "internalType": "string",
              "name": "name",
              "type": "string"
            },
            {
              "internalType": "uint8",
              "name": "id",
              "type": "uint8"
            },
            {
              "internalType": "bool",
              "name": "offensive",
              "type": "bool"
            },
            {
              "internalType": "bool",
              "name": "percentage",
              "type": "bool"
            },
            {
              "internalType": "uint256",
              "name": "value",
              "type": "uint256"
            },
            {
              "internalType": "uint256",
              "name": "expired",
              "type": "uint256"
            },
            {
              "internalType": "uint256",
              "name": "noOfTime",
              "type": "uint256"
            },
            {
              "internalType": "uint256",
              "name": "price",
              "type": "uint256"
            },
            {
              "internalType": "uint256",
              "name": "supply",
              "type": "uint256"
            },
            {
              "internalType": "string",
              "name": "img",
              "type": "string"
            },
            {
              "internalType": "bool",
              "name": "valid",
              "type": "bool"
            }
          ],
          "internalType": "struct SharedStructs.PirateItem",
          "name": "_item",
          "type": "tuple"
        }
      ],
      "name": "replaceHunterItem",
      "outputs": [],
      "stateMutability": "nonpayable",
      "type": "function"
    },
    {
      "inputs": [
        {
          "components": [
            {
              "internalType": "string",
              "name": "name",
              "type": "string"
            },
            {
              "internalType": "uint8",
              "name": "id",
              "type": "uint8"
            },
            {
              "internalType": "bool",
              "name": "offensive",
              "type": "bool"
            },
            {
              "internalType": "bool",
              "name": "percentage",
              "type": "bool"
            },
            {
              "internalType": "uint256",
              "name": "value",
              "type": "uint256"
            },
            {
              "internalType": "uint256",
              "name": "expired",
              "type": "uint256"
            },
            {
              "internalType": "uint256",
              "name": "price",
              "type": "uint256"
            },
            {
              "internalType": "uint256",
              "name": "supply",
              "type": "uint256"
            },
            {
              "internalType": "string",
              "name": "img",
              "type": "string"
            },
            {
              "internalType": "bool",
              "name": "valid",
              "type": "bool"
            }
          ],
          "internalType": "struct Shop.Bounty",
          "name": "_item",
          "type": "tuple"
        }
      ],
      "name": "addBounty",
      "outputs": [],
      "stateMutability": "nonpayable",
      "type": "function"
    },
    {
      "inputs": [
        {
          "internalType": "uint256",
          "name": "_idx",
          "type": "uint256"
        }
      ],
      "name": "deleteBounty",
      "outputs": [],
      "stateMutability": "nonpayable",
      "type": "function"
    },
    {
      "inputs": [
        {
          "internalType": "uint256",
          "name": "_idx",
          "type": "uint256"
        },
        {
          "components": [
            {
              "internalType": "string",
              "name": "name",
              "type": "string"
            },
            {
              "internalType": "uint8",
              "name": "id",
              "type": "uint8"
            },
            {
              "internalType": "bool",
              "name": "offensive",
              "type": "bool"
            },
            {
              "internalType": "bool",
              "name": "percentage",
              "type": "bool"
            },
            {
              "internalType": "uint256",
              "name": "value",
              "type": "uint256"
            },
            {
              "internalType": "uint256",
              "name": "expired",
              "type": "uint256"
            },
            {
              "internalType": "uint256",
              "name": "price",
              "type": "uint256"
            },
            {
              "internalType": "uint256",
              "name": "supply",
              "type": "uint256"
            },
            {
              "internalType": "string",
              "name": "img",
              "type": "string"
            },
            {
              "internalType": "bool",
              "name": "valid",
              "type": "bool"
            }
          ],
          "internalType": "struct Shop.Bounty",
          "name": "_item",
          "type": "tuple"
        }
      ],
      "name": "replaceBounty",
      "outputs": [],
      "stateMutability": "nonpayable",
      "type": "function"
    },
    {
      "inputs": [
        {
          "internalType": "address",
          "name": "_iBootyChest",
          "type": "address"
        }
      ],
      "name": "setBootyChest",
      "outputs": [],
      "stateMutability": "nonpayable",
      "type": "function"
    },
    {
      "inputs": [
        {
          "internalType": "address",
          "name": "_iBooty",
          "type": "address"
        }
      ],
      "name": "setBooty",
      "outputs": [],
      "stateMutability": "nonpayable",
      "type": "function"
    },
    {
      "inputs": [
        {
          "components": [
            {
              "internalType": "string",
              "name": "name",
              "type": "string"
            },
            {
              "internalType": "uint256",
              "name": "id",
              "type": "uint256"
            },
            {
              "internalType": "uint256",
              "name": "requireId",
              "type": "uint256"
            },
            {
              "internalType": "uint256",
              "name": "price",
              "type": "uint256"
            },
            {
              "internalType": "string",
              "name": "img",
              "type": "string"
            }
          ],
          "internalType": "struct Shop.RankUp",
          "name": "_item",
          "type": "tuple"
        }
      ],
      "name": "addRank",
      "outputs": [],
      "stateMutability": "nonpayable",
      "type": "function"
    },
    {
      "inputs": [
        {
          "internalType": "uint256",
          "name": "_idx",
          "type": "uint256"
        },
        {
          "components": [
            {
              "internalType": "string",
              "name": "name",
              "type": "string"
            },
            {
              "internalType": "uint256",
              "name": "id",
              "type": "uint256"
            },
            {
              "internalType": "uint256",
              "name": "requireId",
              "type": "uint256"
            },
            {
              "internalType": "uint256",
              "name": "price",
              "type": "uint256"
            },
            {
              "internalType": "string",
              "name": "img",
              "type": "string"
            }
          ],
          "internalType": "struct Shop.RankUp",
          "name": "_item",
          "type": "tuple"
        }
      ],
      "name": "replaceRank",
      "outputs": [],
      "stateMutability": "nonpayable",
      "type": "function"
    }
  ],
  "bytecode": "0x60806040523480156200001157600080fd5b5062000032620000266200003860201b60201c565b6200004060201b60201c565b62000104565b600033905090565b60008060009054906101000a900473ffffffffffffffffffffffffffffffffffffffff169050816000806101000a81548173ffffffffffffffffffffffffffffffffffffffff021916908373ffffffffffffffffffffffffffffffffffffffff1602179055508173ffffffffffffffffffffffffffffffffffffffff168173ffffffffffffffffffffffffffffffffffffffff167f8be0079c531659141344cd1fd0a4f28419497f9722a3daafe3b4186f6b6457e060405160405180910390a35050565b615c5f80620001146000396000f3fe6080604052600436106101ee5760003560e01c80636651a8e11161010d5780639d4223a1116100a0578063f10d5c921161006f578063f10d5c9214610735578063f2fde38b14610751578063f532b8d21461077a578063f7a0f210146107b7578063fe170c94146107f7576101ee565b80639d4223a11461065e578063a32d740a14610689578063d08ef150146106b2578063dc2f8744146106ef576101ee565b8063891af85a116100dc578063891af85a1461058a5780638da5cb5b146105cb57806395d89b41146105f6578063982a5db714610621576101ee565b80636651a8e1146104c65780636d00d75c146104ef578063715018a61461052c578063722b304214610543576101ee565b80633ed681fc116101855780634bcda684116101545780634bcda684146104035780634dba92101461042e578063543f29c2146104575780635ef5ee4514610480576101ee565b80633ed681fc1461034b57806343bb4ebe14610388578063451cee44146103b15780634a1e767e146103da576101ee565b80631b79dac9116101c15780631b79dac91461028c578063353fdd63146102c9578063363076d6146102f257806339e50abc1461032f576101ee565b806305b8ce74146101f357806306fdde031461021c57806307ae666c146102475780631141f72314610270575b600080fd5b3480156101ff57600080fd5b5061021a60048036038101906102159190613be6565b610820565b005b34801561022857600080fd5b506102316108d2565b60405161023e9190613cdb565b60405180910390f35b34801561025357600080fd5b5061026e60048036038101906102699190613d5b565b61090b565b005b61028a60048036038101906102859190613ded565b6109cb565b005b34801561029857600080fd5b506102b360048036038101906102ae9190613d5b565b611020565b6040516102c09190613f99565b60405180910390f35b3480156102d557600080fd5b506102f060048036038101906102eb9190613fbb565b61119f565b005b3480156102fe57600080fd5b5061031960048036038101906103149190614014565b61153d565b6040516103269190614063565b60405180910390f35b61034960048036038101906103449190613ded565b6115d8565b005b34801561035757600080fd5b50610372600480360381019061036d9190613d5b565b6115dd565b60405161037f9190613f99565b60405180910390f35b34801561039457600080fd5b506103af60048036038101906103aa919061434a565b611ab8565b005b3480156103bd57600080fd5b506103d860048036038101906103d39190614457565b611c67565b005b3480156103e657600080fd5b5061040160048036038101906103fc91906144bf565b611d81565b005b34801561040f57600080fd5b50610418611e33565b604051610425919061457a565b60405180910390f35b34801561043a57600080fd5b5061045560048036038101906104509190613fbb565b611e59565b005b34801561046357600080fd5b5061047e600480360381019061047991906146d9565b6121e2565b005b34801561048c57600080fd5b506104a760048036038101906104a29190614722565b61239c565b6040516104bd9a99989796959493929190614780565b60405180910390f35b3480156104d257600080fd5b506104ed60048036038101906104e8919061484a565b612551565b005b3480156104fb57600080fd5b50610516600480360381019061051191906148a6565b612603565b6040516105239190614063565b60405180910390f35b34801561053857600080fd5b5061054161269f565b005b34801561054f57600080fd5b5061056a60048036038101906105659190613fbb565b612727565b6040516105819b9a999897969594939291906148f9565b60405180910390f35b34801561059657600080fd5b506105b160048036038101906105ac9190613fbb565b6128d5565b6040516105c29594939291906149b2565b60405180910390f35b3480156105d757600080fd5b506105e0612a2b565b6040516105ed9190614a22565b60405180910390f35b34801561060257600080fd5b5061060b612a54565b6040516106189190613cdb565b60405180910390f35b34801561062d57600080fd5b5061064860048036038101906106439190614a3d565b612a8d565b6040516106559190614bdf565b60405180910390f35b34801561066a57600080fd5b50610673612f7d565b6040516106809190614c22565b60405180910390f35b34801561069557600080fd5b506106b060048036038101906106ab9190613d5b565b612fa3565b005b3480156106be57600080fd5b506106d960048036038101906106d491906148a6565b612fa6565b6040516106e69190614063565b60405180910390f35b3480156106fb57600080fd5b5061071660048036038101906107119190613fbb565b613042565b60405161072c9a99989796959493929190614780565b60405180910390f35b61074f600480360381019061074a9190613ded565b6131ea565b005b34801561075d57600080fd5b5061077860048036038101906107739190613d5b565b6134a9565b005b34801561078657600080fd5b506107a1600480360381019061079c9190614014565b6135a1565b6040516107ae9190614063565b60405180910390f35b3480156107c357600080fd5b506107de60048036038101906107d99190614722565b61363c565b6040516107ee9493929190614c4c565b60405180910390f35b34801561080357600080fd5b5061081e60048036038101906108199190613d5b565b6136a4565b005b610828613764565b73ffffffffffffffffffffffffffffffffffffffff16610846612a2b565b73ffffffffffffffffffffffffffffffffffffffff161461089c576040517f08c379a000000000000000000000000000000000000000000000000000000000815260040161089390614cdd565b60405180910390fd5b80600183815481106108b1576108b0614cfd565b5b906000526020600020906009020181816108cb919061540c565b9050505050565b6040518060400160405280601381526020017f5069726174652048756e746572732053686f700000000000000000000000000081525081565b610913613764565b73ffffffffffffffffffffffffffffffffffffffff16610931612a2b565b73ffffffffffffffffffffffffffffffffffffffff1614610987576040517f08c379a000000000000000000000000000000000000000000000000000000000815260040161097e90614cdd565b60405180910390fd5b80600760006101000a81548173ffffffffffffffffffffffffffffffffffffffff021916908373ffffffffffffffffffffffffffffffffffffffff16021790555050565b600660009054906101000a900473ffffffffffffffffffffffffffffffffffffffff1673ffffffffffffffffffffffffffffffffffffffff16639ac016e284846000818110610a1d57610a1c614cfd565b5b90506020020135336040518363ffffffff1660e01b8152600401610a4292919061541a565b602060405180830381865afa158015610a5f573d6000803e3d6000fd5b505050506040513d601f19601f82011682018060405250810190610a839190615458565b610ac2576040517f08c379a0000000000000000000000000000000000000000000000000000000008152600401610ab9906154f7565b60405180910390fd5b6000610ad1828585905061376c565b9050600760009054906101000a900473ffffffffffffffffffffffffffffffffffffffff1673ffffffffffffffffffffffffffffffffffffffff166370a08231336040518263ffffffff1660e01b8152600401610b2e9190614a22565b602060405180830381865afa158015610b4b573d6000803e3d6000fd5b505050506040513d601f19601f82011682018060405250810190610b6f919061552c565b8110610bb0576040517f08c379a0000000000000000000000000000000000000000000000000000000008152600401610ba7906155a5565b60405180910390fd5b8383905060018381548110610bc857610bc7614cfd565b5b9060005260206000209060090201600601541015610c1b576040517f08c379a0000000000000000000000000000000000000000000000000000000008152600401610c1290615637565b60405180910390fd5b600060018381548110610c3157610c30614cfd565b5b906000526020600020906009020160405180610160016040529081600082018054610c5b90614dd8565b80601f0160208091040260200160405190810160405280929190818152602001828054610c8790614dd8565b8015610cd45780601f10610ca957610100808354040283529160200191610cd4565b820191906000526020600020905b815481529060010190602001808311610cb757829003601f168201915b505050505081526020016001820160009054906101000a900460ff1660ff1660ff1681526020016001820160019054906101000a900460ff161515151581526020016001820160029054906101000a900460ff161515151581526020016002820154815260200160038201548152602001600482015481526020016005820154815260200160068201548152602001600782018054610d7290614dd8565b80601f0160208091040260200160405190810160405280929190818152602001828054610d9e90614dd8565b8015610deb5780601f10610dc057610100808354040283529160200191610deb565b820191906000526020600020905b815481529060010190602001808311610dce57829003601f168201915b505050505081526020016008820160009054906101000a900460ff161515151581525050905084849050816101000151610e259190615686565b816101000181815250508060018481548110610e4457610e43614cfd565b5b90600052602060002090600902016000820151816000019080519060200190610e6e929190613a71565b5060208201518160010160006101000a81548160ff021916908360ff16021790555060408201518160010160016101000a81548160ff02191690831515021790555060608201518160010160026101000a81548160ff0219169083151502179055506080820151816002015560a0820151816003015560c0820151816004015560e082015181600501556101008201518160060155610120820151816007019080519060200190610f20929190613a71565b506101408201518160080160006101000a81548160ff021916908315150217905550905050600760009054906101000a900473ffffffffffffffffffffffffffffffffffffffff1673ffffffffffffffffffffffffffffffffffffffff16639dc29fac33846040518363ffffffff1660e01b8152600401610fa29291906156ba565b600060405180830381600087803b158015610fbc57600080fd5b505af1158015610fd0573d6000803e3d6000fd5b5050505060005b8585905081101561101857611005868683818110610ff857610ff7614cfd565b5b90506020020135856137a7565b8080611010906156e3565b915050610fd7565b505050505050565b6060600660009054906101000a900473ffffffffffffffffffffffffffffffffffffffff1673ffffffffffffffffffffffffffffffffffffffff163373ffffffffffffffffffffffffffffffffffffffff16146110b2576040517f08c379a00000000000000000000000000000000000000000000000000000000081526004016110a9906154f7565b60405180910390fd5b600260008373ffffffffffffffffffffffffffffffffffffffff1673ffffffffffffffffffffffffffffffffffffffff168152602001908152602001600020805480602002602001604051908101604052809291908181526020016000905b8282101561119457838290600052602060002090600302016040518060800160405290816000820160009054906101000a900461ffff1661ffff1661ffff1681526020016000820160029054906101000a900460ff1660ff1660ff1681526020016001820154815260200160028201548152505081526020019060010190611111565b505050509050919050565b6111a7613764565b73ffffffffffffffffffffffffffffffffffffffff166111c5612a2b565b73ffffffffffffffffffffffffffffffffffffffff161461121b576040517f08c379a000000000000000000000000000000000000000000000000000000000815260040161121290614cdd565b60405180910390fd5b60006001828154811061123157611230614cfd565b5b90600052602060002090600902016040518061016001604052908160008201805461125b90614dd8565b80601f016020809104026020016040519081016040528092919081815260200182805461128790614dd8565b80156112d45780601f106112a9576101008083540402835291602001916112d4565b820191906000526020600020905b8154815290600101906020018083116112b757829003601f168201915b505050505081526020016001820160009054906101000a900460ff1660ff1660ff1681526020016001820160019054906101000a900460ff161515151581526020016001820160029054906101000a900460ff16151515158152602001600282015481526020016003820154815260200160048201548152602001600582015481526020016006820154815260200160078201805461137290614dd8565b80601f016020809104026020016040519081016040528092919081815260200182805461139e90614dd8565b80156113eb5780601f106113c0576101008083540402835291602001916113eb565b820191906000526020600020905b8154815290600101906020018083116113ce57829003601f168201915b505050505081526020016008820160009054906101000a900460ff1615151515815250509050600081610140019015159081151581525050806001838154811061143857611437614cfd565b5b90600052602060002090600902016000820151816000019080519060200190611462929190613a71565b5060208201518160010160006101000a81548160ff021916908360ff16021790555060408201518160010160016101000a81548160ff02191690831515021790555060608201518160010160026101000a81548160ff0219169083151502179055506080820151816002015560a0820151816003015560c0820151816004015560e082015181600501556101008201518160060155610120820151816007019080519060200190611514929190613a71565b506101408201518160080160006101000a81548160ff0219169083151502179055509050505050565b6000600660009054906101000a900473ffffffffffffffffffffffffffffffffffffffff1673ffffffffffffffffffffffffffffffffffffffff163373ffffffffffffffffffffffffffffffffffffffff16146115cf576040517f08c379a00000000000000000000000000000000000000000000000000000000081526004016115c6906154f7565b60405180910390fd5b81905092915050565b505050565b6060600660009054906101000a900473ffffffffffffffffffffffffffffffffffffffff1673ffffffffffffffffffffffffffffffffffffffff163373ffffffffffffffffffffffffffffffffffffffff161461166f576040517f08c379a0000000000000000000000000000000000000000000000000000000008152600401611666906154f7565b60405180910390fd5b60005b600260008473ffffffffffffffffffffffffffffffffffffffff1673ffffffffffffffffffffffffffffffffffffffff168152602001908152602001600020805490508160ff1610156119ca57600260008473ffffffffffffffffffffffffffffffffffffffff1673ffffffffffffffffffffffffffffffffffffffff1681526020019081526020016000208160ff168154811061171357611712614cfd565b5b906000526020600020906003020160020154600260008573ffffffffffffffffffffffffffffffffffffffff1673ffffffffffffffffffffffffffffffffffffffff1681526020019081526020016000208260ff168154811061177957611778614cfd565b5b906000526020600020906003020160010154106119b757600260008473ffffffffffffffffffffffffffffffffffffffff1673ffffffffffffffffffffffffffffffffffffffff1681526020019081526020016000206001600260008673ffffffffffffffffffffffffffffffffffffffff1673ffffffffffffffffffffffffffffffffffffffff1681526020019081526020016000208054905061181e9190615686565b8154811061182f5761182e614cfd565b5b9060005260206000209060030201600260008573ffffffffffffffffffffffffffffffffffffffff1673ffffffffffffffffffffffffffffffffffffffff1681526020019081526020016000208260ff168154811061189157611890614cfd565b5b90600052602060002090600302016000820160009054906101000a900461ffff168160000160006101000a81548161ffff021916908361ffff1602179055506000820160029054906101000a900460ff168160000160026101000a81548160ff021916908360ff1602179055506001820154816001015560028201548160020155905050600260008473ffffffffffffffffffffffffffffffffffffffff1673ffffffffffffffffffffffffffffffffffffffff1681526020019081526020016000208054806119645761196361572c565b5b6001900381819060005260206000209060030201600080820160006101000a81549061ffff02191690556000820160026101000a81549060ff021916905560018201600090556002820160009055505090555b80806119c29061575b565b915050611672565b50600260008373ffffffffffffffffffffffffffffffffffffffff1673ffffffffffffffffffffffffffffffffffffffff168152602001908152602001600020805480602002602001604051908101604052809291908181526020016000905b82821015611aad57838290600052602060002090600302016040518060800160405290816000820160009054906101000a900461ffff1661ffff1661ffff1681526020016000820160029054906101000a900460ff1660ff1660ff1681526020016001820154815260200160028201548152505081526020019060010190611a2a565b505050509050919050565b611ac0613764565b73ffffffffffffffffffffffffffffffffffffffff16611ade612a2b565b73ffffffffffffffffffffffffffffffffffffffff1614611b34576040517f08c379a0000000000000000000000000000000000000000000000000000000008152600401611b2b90614cdd565b60405180910390fd5b6000600380549050905080826020019060ff16908160ff168152505060038290806001815401808255809150506001900390600052602060002090600802016000909190919091506000820151816000019080519060200190611b98929190613a71565b5060208201518160010160006101000a81548160ff021916908360ff16021790555060408201518160010160016101000a81548160ff02191690831515021790555060608201518160010160026101000a81548160ff0219169083151502179055506080820151816002015560a0820151816003015560c0820151816004015560e08201518160050155610100820151816006019080519060200190611c3f929190613a71565b506101208201518160070160006101000a81548160ff02191690831515021790555050505050565b611c6f613764565b73ffffffffffffffffffffffffffffffffffffffff16611c8d612a2b565b73ffffffffffffffffffffffffffffffffffffffff1614611ce3576040517f08c379a0000000000000000000000000000000000000000000000000000000008152600401611cda90614cdd565b60405180910390fd5b600060058054905090508082602001818152505060058290806001815401808255809150506001900390600052602060002090600502016000909190919091506000820151816000019080519060200190611d3f929190613a71565b506020820151816001015560408201518160020155606082015181600301556080820151816004019080519060200190611d7a929190613a71565b5050505050565b611d89613764565b73ffffffffffffffffffffffffffffffffffffffff16611da7612a2b565b73ffffffffffffffffffffffffffffffffffffffff1614611dfd576040517f08c379a0000000000000000000000000000000000000000000000000000000008152600401611df490614cdd565b60405180910390fd5b8060058381548110611e1257611e11614cfd565b5b90600052602060002090600502018181611e2c919061582e565b9050505050565b600760009054906101000a900473ffffffffffffffffffffffffffffffffffffffff1681565b611e61613764565b73ffffffffffffffffffffffffffffffffffffffff16611e7f612a2b565b73ffffffffffffffffffffffffffffffffffffffff1614611ed5576040517f08c379a0000000000000000000000000000000000000000000000000000000008152600401611ecc90614cdd565b60405180910390fd5b600060038281548110611eeb57611eea614cfd565b5b906000526020600020906008020160405180610140016040529081600082018054611f1590614dd8565b80601f0160208091040260200160405190810160405280929190818152602001828054611f4190614dd8565b8015611f8e5780601f10611f6357610100808354040283529160200191611f8e565b820191906000526020600020905b815481529060010190602001808311611f7157829003601f168201915b505050505081526020016001820160009054906101000a900460ff1660ff1660ff1681526020016001820160019054906101000a900460ff161515151581526020016001820160029054906101000a900460ff161515151581526020016002820154815260200160038201548152602001600482015481526020016005820154815260200160068201805461202290614dd8565b80601f016020809104026020016040519081016040528092919081815260200182805461204e90614dd8565b801561209b5780601f106120705761010080835404028352916020019161209b565b820191906000526020600020905b81548152906001019060200180831161207e57829003601f168201915b505050505081526020016007820160009054906101000a900460ff161515151581525050905060008161012001901515908115158152505080600383815481106120e8576120e7614cfd565b5b90600052602060002090600802016000820151816000019080519060200190612112929190613a71565b5060208201518160010160006101000a81548160ff021916908360ff16021790555060408201518160010160016101000a81548160ff02191690831515021790555060608201518160010160026101000a81548160ff0219169083151502179055506080820151816002015560a0820151816003015560c0820151816004015560e082015181600501556101008201518160060190805190602001906121b9929190613a71565b506101208201518160070160006101000a81548160ff0219169083151502179055509050505050565b6121ea613764565b73ffffffffffffffffffffffffffffffffffffffff16612208612a2b565b73ffffffffffffffffffffffffffffffffffffffff161461225e576040517f08c379a000000000000000000000000000000000000000000000000000000000815260040161225590614cdd565b60405180910390fd5b6000600180549050905080826020019060ff16908160ff1681525050600182908060018154018082558091505060019003906000526020600020906009020160009091909190915060008201518160000190805190602001906122c2929190613a71565b5060208201518160010160006101000a81548160ff021916908360ff16021790555060408201518160010160016101000a81548160ff02191690831515021790555060608201518160010160026101000a81548160ff0219169083151502179055506080820151816002015560a0820151816003015560c0820151816004015560e082015181600501556101008201518160060155610120820151816007019080519060200190612374929190613a71565b506101408201518160080160006101000a81548160ff02191690831515021790555050505050565b600460205281600052604060002081815481106123b857600080fd5b9060005260206000209060080201600091509150508060000180546123dc90614dd8565b80601f016020809104026020016040519081016040528092919081815260200182805461240890614dd8565b80156124555780601f1061242a57610100808354040283529160200191612455565b820191906000526020600020905b81548152906001019060200180831161243857829003601f168201915b5050505050908060010160009054906101000a900460ff16908060010160019054906101000a900460ff16908060010160029054906101000a900460ff16908060020154908060030154908060040154908060050154908060060180546124bb90614dd8565b80601f01602080910402602001604051908101604052809291908181526020018280546124e790614dd8565b80156125345780601f1061250957610100808354040283529160200191612534565b820191906000526020600020905b81548152906001019060200180831161251757829003601f168201915b5050505050908060070160009054906101000a900460ff1690508a565b612559613764565b73ffffffffffffffffffffffffffffffffffffffff16612577612a2b565b73ffffffffffffffffffffffffffffffffffffffff16146125cd576040517f08c379a00000000000000000000000000000000000000000000000000000000081526004016125c490614cdd565b60405180910390fd5b80600383815481106125e2576125e1614cfd565b5b906000526020600020906008020181816125fc919061598c565b9050505050565b6000600660009054906101000a900473ffffffffffffffffffffffffffffffffffffffff1673ffffffffffffffffffffffffffffffffffffffff163373ffffffffffffffffffffffffffffffffffffffff1614612695576040517f08c379a000000000000000000000000000000000000000000000000000000000815260040161268c906154f7565b60405180910390fd5b8190509392505050565b6126a7613764565b73ffffffffffffffffffffffffffffffffffffffff166126c5612a2b565b73ffffffffffffffffffffffffffffffffffffffff161461271b576040517f08c379a000000000000000000000000000000000000000000000000000000000815260040161271290614cdd565b60405180910390fd5b61272560006138df565b565b6001818154811061273757600080fd5b906000526020600020906009020160009150905080600001805461275a90614dd8565b80601f016020809104026020016040519081016040528092919081815260200182805461278690614dd8565b80156127d35780601f106127a8576101008083540402835291602001916127d3565b820191906000526020600020905b8154815290600101906020018083116127b657829003601f168201915b5050505050908060010160009054906101000a900460ff16908060010160019054906101000a900460ff16908060010160029054906101000a900460ff169080600201549080600301549080600401549080600501549080600601549080600701805461283f90614dd8565b80601f016020809104026020016040519081016040528092919081815260200182805461286b90614dd8565b80156128b85780601f1061288d576101008083540402835291602001916128b8565b820191906000526020600020905b81548152906001019060200180831161289b57829003601f168201915b5050505050908060080160009054906101000a900460ff1690508b565b600581815481106128e557600080fd5b906000526020600020906005020160009150905080600001805461290890614dd8565b80601f016020809104026020016040519081016040528092919081815260200182805461293490614dd8565b80156129815780601f1061295657610100808354040283529160200191612981565b820191906000526020600020905b81548152906001019060200180831161296457829003601f168201915b5050505050908060010154908060020154908060030154908060040180546129a890614dd8565b80601f01602080910402602001604051908101604052809291908181526020018280546129d490614dd8565b8015612a215780601f106129f657610100808354040283529160200191612a21565b820191906000526020600020905b815481529060010190602001808311612a0457829003601f168201915b5050505050905085565b60008060009054906101000a900473ffffffffffffffffffffffffffffffffffffffff16905090565b6040518060400160405280600781526020017f50485f53484f500000000000000000000000000000000000000000000000000081525081565b612a95613af7565b600660009054906101000a900473ffffffffffffffffffffffffffffffffffffffff1673ffffffffffffffffffffffffffffffffffffffff163373ffffffffffffffffffffffffffffffffffffffff1614612b25576040517f08c379a0000000000000000000000000000000000000000000000000000000008152600401612b1c906154f7565b60405180910390fd5b6000600260008673ffffffffffffffffffffffffffffffffffffffff1673ffffffffffffffffffffffffffffffffffffffff1681526020019081526020016000208461ffff1681548110612b7c57612b7b614cfd565b5b90600052602060002090600302016040518060800160405290816000820160009054906101000a900461ffff1661ffff1661ffff1681526020016000820160029054906101000a900460ff1660ff1660ff1681526020016001820154815260200160028201548152505090506000816060015114612c2f576040517f08c379a0000000000000000000000000000000000000000000000000000000008152600401612c2690615a0c565b60405180910390fd5b8261ffff16816000015161ffff1614612c7d576040517f08c379a0000000000000000000000000000000000000000000000000000000008152600401612c7490615a9e565b60405180910390fd5b60006001826020015160ff1681548110612c9a57612c99614cfd565b5b906000526020600020906009020160405180610160016040529081600082018054612cc490614dd8565b80601f0160208091040260200160405190810160405280929190818152602001828054612cf090614dd8565b8015612d3d5780601f10612d1257610100808354040283529160200191612d3d565b820191906000526020600020905b815481529060010190602001808311612d2057829003601f168201915b505050505081526020016001820160009054906101000a900460ff1660ff1660ff1681526020016001820160019054906101000a900460ff161515151581526020016001820160029054906101000a900460ff161515151581526020016002820154815260200160038201548152602001600482015481526020016005820154815260200160068201548152602001600782018054612ddb90614dd8565b80601f0160208091040260200160405190810160405280929190818152602001828054612e0790614dd8565b8015612e545780601f10612e2957610100808354040283529160200191612e54565b820191906000526020600020905b815481529060010190602001808311612e3757829003601f168201915b505050505081526020016008820160009054906101000a900460ff161515151581525050905081606001514210158015612e9657508160600151826040015110155b15612ebb57600081608001818152505060008160a00181815250508092505050612f76565b6000429050600081846060015110612ee257836040015182612edd9190615686565b612ef7565b83604001518460600151612ef69190615686565b5b9050808360a001818152505081600260008a73ffffffffffffffffffffffffffffffffffffffff1673ffffffffffffffffffffffffffffffffffffffff1681526020019081526020016000208861ffff1681548110612f5957612f58614cfd565b5b906000526020600020906003020160010181905550829450505050505b9392505050565b600660009054906101000a900473ffffffffffffffffffffffffffffffffffffffff1681565b50565b6000600660009054906101000a900473ffffffffffffffffffffffffffffffffffffffff1673ffffffffffffffffffffffffffffffffffffffff163373ffffffffffffffffffffffffffffffffffffffff1614613038576040517f08c379a000000000000000000000000000000000000000000000000000000000815260040161302f906154f7565b60405180910390fd5b8190509392505050565b6003818154811061305257600080fd5b906000526020600020906008020160009150905080600001805461307590614dd8565b80601f01602080910402602001604051908101604052809291908181526020018280546130a190614dd8565b80156130ee5780601f106130c3576101008083540402835291602001916130ee565b820191906000526020600020905b8154815290600101906020018083116130d157829003601f168201915b5050505050908060010160009054906101000a900460ff16908060010160019054906101000a900460ff16908060010160029054906101000a900460ff169080600201549080600301549080600401549080600501549080600601805461315490614dd8565b80601f016020809104026020016040519081016040528092919081815260200182805461318090614dd8565b80156131cd5780601f106131a2576101008083540402835291602001916131cd565b820191906000526020600020905b8154815290600101906020018083116131b057829003601f168201915b5050505050908060070160009054906101000a900460ff1690508a565b600660009054906101000a900473ffffffffffffffffffffffffffffffffffffffff1673ffffffffffffffffffffffffffffffffffffffff16639ac016e28484600081811061323c5761323b614cfd565b5b90506020020135336040518363ffffffff1660e01b815260040161326192919061541a565b602060405180830381865afa15801561327e573d6000803e3d6000fd5b505050506040513d601f19601f820116820180604052508101906132a29190615458565b6132e1576040517f08c379a00000000000000000000000000000000000000000000000000000000081526004016132d8906154f7565b60405180910390fd5b60006132f082858590506139a3565b9050600760009054906101000a900473ffffffffffffffffffffffffffffffffffffffff1673ffffffffffffffffffffffffffffffffffffffff166370a08231336040518263ffffffff1660e01b815260040161334d9190614a22565b602060405180830381865afa15801561336a573d6000803e3d6000fd5b505050506040513d601f19601f8201168201806040525081019061338e919061552c565b81106133cf576040517f08c379a00000000000000000000000000000000000000000000000000000000081526004016133c6906155a5565b60405180910390fd5b600760009054906101000a900473ffffffffffffffffffffffffffffffffffffffff1673ffffffffffffffffffffffffffffffffffffffff16639dc29fac33836040518363ffffffff1660e01b815260040161342c9291906156ba565b600060405180830381600087803b15801561344657600080fd5b505af115801561345a573d6000803e3d6000fd5b5050505060005b848490508110156134a25761348f85858381811061348257613481614cfd565b5b90506020020135846139de565b808061349a906156e3565b915050613461565b5050505050565b6134b1613764565b73ffffffffffffffffffffffffffffffffffffffff166134cf612a2b565b73ffffffffffffffffffffffffffffffffffffffff1614613525576040517f08c379a000000000000000000000000000000000000000000000000000000000815260040161351c90614cdd565b60405180910390fd5b600073ffffffffffffffffffffffffffffffffffffffff168173ffffffffffffffffffffffffffffffffffffffff161415613595576040517f08c379a000000000000000000000000000000000000000000000000000000000815260040161358c90615b30565b60405180910390fd5b61359e816138df565b50565b6000600660009054906101000a900473ffffffffffffffffffffffffffffffffffffffff1673ffffffffffffffffffffffffffffffffffffffff163373ffffffffffffffffffffffffffffffffffffffff1614613633576040517f08c379a000000000000000000000000000000000000000000000000000000000815260040161362a906154f7565b60405180910390fd5b81905092915050565b6002602052816000526040600020818154811061365857600080fd5b9060005260206000209060030201600091509150508060000160009054906101000a900461ffff16908060000160029054906101000a900460ff16908060010154908060020154905084565b6136ac613764565b73ffffffffffffffffffffffffffffffffffffffff166136ca612a2b565b73ffffffffffffffffffffffffffffffffffffffff1614613720576040517f08c379a000000000000000000000000000000000000000000000000000000000815260040161371790614cdd565b60405180910390fd5b80600660006101000a81548173ffffffffffffffffffffffffffffffffffffffff021916908373ffffffffffffffffffffffffffffffffffffffff16021790555050565b600033905090565b60006001838154811061378257613781614cfd565b5b9060005260206000209060090201600501548261379f9190615b50565b905092915050565b6000620151809050600081600184815481106137c6576137c5614cfd565b5b9060005260206000209060090201600301546137e29190615b50565b9050600260003373ffffffffffffffffffffffffffffffffffffffff1673ffffffffffffffffffffffffffffffffffffffff16815260200190815260200160002060405180608001604052808661ffff1681526020018560ff16815260200142815260200142846138539190615baa565b815250908060018154018082558091505060019003906000526020600020906003020160009091909190915060008201518160000160006101000a81548161ffff021916908361ffff16021790555060208201518160000160026101000a81548160ff021916908360ff1602179055506040820151816001015560608201518160020155505050505050565b60008060009054906101000a900473ffffffffffffffffffffffffffffffffffffffff169050816000806101000a81548173ffffffffffffffffffffffffffffffffffffffff021916908373ffffffffffffffffffffffffffffffffffffffff1602179055508173ffffffffffffffffffffffffffffffffffffffff168173ffffffffffffffffffffffffffffffffffffffff167f8be0079c531659141344cd1fd0a4f28419497f9722a3daafe3b4186f6b6457e060405160405180910390a35050565b6000600583815481106139b9576139b8614cfd565b5b906000526020600020906005020160030154826139d69190615b50565b905092915050565b600660009054906101000a900473ffffffffffffffffffffffffffffffffffffffff1673ffffffffffffffffffffffffffffffffffffffff16632b13a24883836040518363ffffffff1660e01b8152600401613a3b929190615c00565b600060405180830381600087803b158015613a5557600080fd5b505af1158015613a69573d6000803e3d6000fd5b505050505050565b828054613a7d90614dd8565b90600052602060002090601f016020900481019282613a9f5760008555613ae6565b82601f10613ab857805160ff1916838001178555613ae6565b82800160010185558215613ae6579182015b82811115613ae5578251825591602001919060010190613aca565b5b509050613af39190613b5a565b5090565b60405180610160016040528060608152602001600060ff1681526020016000151581526020016000151581526020016000815260200160008152602001600081526020016000815260200160008152602001606081526020016000151581525090565b5b80821115613b73576000816000905550600101613b5b565b5090565b6000604051905090565b600080fd5b600080fd5b6000819050919050565b613b9e81613b8b565b8114613ba957600080fd5b50565b600081359050613bbb81613b95565b92915050565b600080fd5b60006101608284031215613bdd57613bdc613bc1565b5b81905092915050565b60008060408385031215613bfd57613bfc613b81565b5b6000613c0b85828601613bac565b925050602083013567ffffffffffffffff811115613c2c57613c2b613b86565b5b613c3885828601613bc6565b9150509250929050565b600081519050919050565b600082825260208201905092915050565b60005b83811015613c7c578082015181840152602081019050613c61565b83811115613c8b576000848401525b50505050565b6000601f19601f8301169050919050565b6000613cad82613c42565b613cb78185613c4d565b9350613cc7818560208601613c5e565b613cd081613c91565b840191505092915050565b60006020820190508181036000830152613cf58184613ca2565b905092915050565b600073ffffffffffffffffffffffffffffffffffffffff82169050919050565b6000613d2882613cfd565b9050919050565b613d3881613d1d565b8114613d4357600080fd5b50565b600081359050613d5581613d2f565b92915050565b600060208284031215613d7157613d70613b81565b5b6000613d7f84828501613d46565b91505092915050565b600080fd5b600080fd5b600080fd5b60008083601f840112613dad57613dac613d88565b5b8235905067ffffffffffffffff811115613dca57613dc9613d8d565b5b602083019150836020820283011115613de657613de5613d92565b5b9250929050565b600080600060408486031215613e0657613e05613b81565b5b600084013567ffffffffffffffff811115613e2457613e23613b86565b5b613e3086828701613d97565b93509350506020613e4386828701613bac565b9150509250925092565b600081519050919050565b600082825260208201905092915050565b6000819050602082019050919050565b600061ffff82169050919050565b613e9081613e79565b82525050565b600060ff82169050919050565b613eac81613e96565b82525050565b613ebb81613b8b565b82525050565b608082016000820151613ed76000850182613e87565b506020820151613eea6020850182613ea3565b506040820151613efd6040850182613eb2565b506060820151613f106060850182613eb2565b50505050565b6000613f228383613ec1565b60808301905092915050565b6000602082019050919050565b6000613f4682613e4d565b613f508185613e58565b9350613f5b83613e69565b8060005b83811015613f8c578151613f738882613f16565b9750613f7e83613f2e565b925050600181019050613f5f565b5085935050505092915050565b60006020820190508181036000830152613fb38184613f3b565b905092915050565b600060208284031215613fd157613fd0613b81565b5b6000613fdf84828501613bac565b91505092915050565b613ff181613e79565b8114613ffc57600080fd5b50565b60008135905061400e81613fe8565b92915050565b6000806040838503121561402b5761402a613b81565b5b600061403985828601613fff565b925050602061404a85828601613bac565b9150509250929050565b61405d81613b8b565b82525050565b60006020820190506140786000830184614054565b92915050565b600080fd5b7f4e487b7100000000000000000000000000000000000000000000000000000000600052604160045260246000fd5b6140bb82613c91565b810181811067ffffffffffffffff821117156140da576140d9614083565b5b80604052505050565b60006140ed613b77565b90506140f982826140b2565b919050565b600080fd5b600080fd5b600067ffffffffffffffff82111561412357614122614083565b5b61412c82613c91565b9050602081019050919050565b82818337600083830152505050565b600061415b61415684614108565b6140e3565b90508281526020810184848401111561417757614176614103565b5b614182848285614139565b509392505050565b600082601f83011261419f5761419e613d88565b5b81356141af848260208601614148565b91505092915050565b6141c181613e96565b81146141cc57600080fd5b50565b6000813590506141de816141b8565b92915050565b60008115159050919050565b6141f9816141e4565b811461420457600080fd5b50565b600081359050614216816141f0565b92915050565b600061014082840312156142335761423261407e565b5b61423e6101406140e3565b9050600082013567ffffffffffffffff81111561425e5761425d6140fe565b5b61426a8482850161418a565b600083015250602061427e848285016141cf565b602083015250604061429284828501614207565b60408301525060606142a684828501614207565b60608301525060806142ba84828501613bac565b60808301525060a06142ce84828501613bac565b60a08301525060c06142e284828501613bac565b60c08301525060e06142f684828501613bac565b60e08301525061010082013567ffffffffffffffff81111561431b5761431a6140fe565b5b6143278482850161418a565b6101008301525061012061433d84828501614207565b6101208301525092915050565b6000602082840312156143605761435f613b81565b5b600082013567ffffffffffffffff81111561437e5761437d613b86565b5b61438a8482850161421c565b91505092915050565b600060a082840312156143a9576143a861407e565b5b6143b360a06140e3565b9050600082013567ffffffffffffffff8111156143d3576143d26140fe565b5b6143df8482850161418a565b60008301525060206143f384828501613bac565b602083015250604061440784828501613bac565b604083015250606061441b84828501613bac565b606083015250608082013567ffffffffffffffff81111561443f5761443e6140fe565b5b61444b8482850161418a565b60808301525092915050565b60006020828403121561446d5761446c613b81565b5b600082013567ffffffffffffffff81111561448b5761448a613b86565b5b61449784828501614393565b91505092915050565b600060a082840312156144b6576144b5613bc1565b5b81905092915050565b600080604083850312156144d6576144d5613b81565b5b60006144e485828601613bac565b925050602083013567ffffffffffffffff81111561450557614504613b86565b5b614511858286016144a0565b9150509250929050565b6000819050919050565b600061454061453b61453684613cfd565b61451b565b613cfd565b9050919050565b600061455282614525565b9050919050565b600061456482614547565b9050919050565b61457481614559565b82525050565b600060208201905061458f600083018461456b565b92915050565b600061016082840312156145ac576145ab61407e565b5b6145b76101606140e3565b9050600082013567ffffffffffffffff8111156145d7576145d66140fe565b5b6145e38482850161418a565b60008301525060206145f7848285016141cf565b602083015250604061460b84828501614207565b604083015250606061461f84828501614207565b606083015250608061463384828501613bac565b60808301525060a061464784828501613bac565b60a08301525060c061465b84828501613bac565b60c08301525060e061466f84828501613bac565b60e08301525061010061468484828501613bac565b6101008301525061012082013567ffffffffffffffff8111156146aa576146a96140fe565b5b6146b68482850161418a565b610120830152506101406146cc84828501614207565b6101408301525092915050565b6000602082840312156146ef576146ee613b81565b5b600082013567ffffffffffffffff81111561470d5761470c613b86565b5b61471984828501614595565b91505092915050565b6000806040838503121561473957614738613b81565b5b600061474785828601613d46565b925050602061475885828601613bac565b9150509250929050565b61476b81613e96565b82525050565b61477a816141e4565b82525050565b600061014082019050818103600083015261479b818d613ca2565b90506147aa602083018c614762565b6147b7604083018b614771565b6147c4606083018a614771565b6147d16080830189614054565b6147de60a0830188614054565b6147eb60c0830187614054565b6147f860e0830186614054565b81810361010083015261480b8185613ca2565b905061481b610120830184614771565b9b9a5050505050505050505050565b6000610140828403121561484157614840613bc1565b5b81905092915050565b6000806040838503121561486157614860613b81565b5b600061486f85828601613bac565b925050602083013567ffffffffffffffff8111156148905761488f613b86565b5b61489c8582860161482a565b9150509250929050565b6000806000606084860312156148bf576148be613b81565b5b60006148cd86828701613fff565b93505060206148de86828701613bac565b92505060406148ef86828701613bac565b9150509250925092565b6000610160820190508181036000830152614914818e613ca2565b9050614923602083018d614762565b614930604083018c614771565b61493d606083018b614771565b61494a608083018a614054565b61495760a0830189614054565b61496460c0830188614054565b61497160e0830187614054565b61497f610100830186614054565b8181036101208301526149928185613ca2565b90506149a2610140830184614771565b9c9b505050505050505050505050565b600060a08201905081810360008301526149cc8188613ca2565b90506149db6020830187614054565b6149e86040830186614054565b6149f56060830185614054565b8181036080830152614a078184613ca2565b90509695505050505050565b614a1c81613d1d565b82525050565b6000602082019050614a376000830184614a13565b92915050565b600080600060608486031215614a5657614a55613b81565b5b6000614a6486828701613d46565b9350506020614a7586828701613fff565b9250506040614a8686828701613fff565b9150509250925092565b600082825260208201905092915050565b6000614aac82613c42565b614ab68185614a90565b9350614ac6818560208601613c5e565b614acf81613c91565b840191505092915050565b614ae3816141e4565b82525050565b6000610160830160008301518482036000860152614b078282614aa1565b9150506020830151614b1c6020860182613ea3565b506040830151614b2f6040860182614ada565b506060830151614b426060860182614ada565b506080830151614b556080860182613eb2565b5060a0830151614b6860a0860182613eb2565b5060c0830151614b7b60c0860182613eb2565b5060e0830151614b8e60e0860182613eb2565b50610100830151614ba3610100860182613eb2565b50610120830151848203610120860152614bbd8282614aa1565b915050610140830151614bd4610140860182614ada565b508091505092915050565b60006020820190508181036000830152614bf98184614ae9565b905092915050565b6000614c0c82614547565b9050919050565b614c1c81614c01565b82525050565b6000602082019050614c376000830184614c13565b92915050565b614c4681613e79565b82525050565b6000608082019050614c616000830187614c3d565b614c6e6020830186614762565b614c7b6040830185614054565b614c886060830184614054565b95945050505050565b7f4f776e61626c653a2063616c6c6572206973206e6f7420746865206f776e6572600082015250565b6000614cc7602083613c4d565b9150614cd282614c91565b602082019050919050565b60006020820190508181036000830152614cf681614cba565b9050919050565b7f4e487b7100000000000000000000000000000000000000000000000000000000600052603260045260246000fd5b600080fd5b600080fd5b600080fd5b60008083356001602003843603038112614d5857614d57614d2c565b5b80840192508235915067ffffffffffffffff821115614d7a57614d79614d31565b5b602083019250600182023603831315614d9657614d95614d36565b5b509250929050565b600082905092915050565b7f4e487b7100000000000000000000000000000000000000000000000000000000600052602260045260246000fd5b60006002820490506001821680614df057607f821691505b60208210811415614e0457614e03614da9565b5b50919050565b60008190508160005260206000209050919050565b60006020601f8301049050919050565b600082821b905092915050565b600060088302614e6c7fffffffffffffffffffffffffffffffffffffffffffffffffffffffffffffffff82614e2f565b614e768683614e2f565b95508019841693508086168417925050509392505050565b6000614ea9614ea4614e9f84613b8b565b61451b565b613b8b565b9050919050565b6000819050919050565b614ec383614e8e565b614ed7614ecf82614eb0565b848454614e3c565b825550505050565b600090565b614eec614edf565b614ef7818484614eba565b505050565b5b81811015614f1b57614f10600082614ee4565b600181019050614efd565b5050565b601f821115614f6057614f3181614e0a565b614f3a84614e1f565b81016020851015614f49578190505b614f5d614f5585614e1f565b830182614efc565b50505b505050565b600082821c905092915050565b6000614f8360001984600802614f65565b1980831691505092915050565b6000614f9c8383614f72565b9150826002028217905092915050565b614fb68383614d9e565b67ffffffffffffffff811115614fcf57614fce614083565b5b614fd98254614dd8565b614fe4828285614f1f565b6000601f8311600181146150135760008415615001578287013590505b61500b8582614f90565b865550615073565b601f19841661502186614e0a565b60005b8281101561504957848901358255600182019150602085019450602081019050615024565b868310156150665784890135615062601f891682614f72565b8355505b6001600288020188555050505b50505050505050565b615087838383614fac565b505050565b60008135615099816141b8565b80915050919050565b60008160001b9050919050565b600060ff6150bc846150a2565b9350801983169250808416831791505092915050565b60006150ed6150e86150e384613e96565b61451b565b613e96565b9050919050565b6000819050919050565b615107826150d2565b61511a615113826150f4565b83546150af565b8255505050565b6000813561512e816141f0565b80915050919050565b60008160081b9050919050565b600061ff0061515284615137565b9350801983169250808416831791505092915050565b6000615173826141e4565b9050919050565b6000819050919050565b61518d82615168565b6151a06151998261517a565b8354615144565b8255505050565b60008160101b9050919050565b600062ff00006151c3846151a7565b9350801983169250808416831791505092915050565b6151e282615168565b6151f56151ee8261517a565b83546151b4565b8255505050565b6000813561520981613b95565b80915050919050565b60007fffffffffffffffffffffffffffffffffffffffffffffffffffffffffffffffff61523e846150a2565b9350801983169250808416831791505092915050565b61525d82614e8e565b61527061526982614eb0565b8354615212565b8255505050565b61528082615168565b61529361528c8261517a565b83546150af565b8255505050565b60008101600083016152ac8185614d3b565b6152b781838661507c565b505050506001810160208301806152cd8161508c565b90506152d981846150fe565b5050506001810160408301806152ee81615121565b90506152fa8184615184565b50505060018101606083018061530f81615121565b905061531b81846151d9565b505050600281016080830180615330816151fc565b905061533c8184615254565b5050506003810160a0830180615351816151fc565b905061535d8184615254565b5050506004810160c0830180615372816151fc565b905061537e8184615254565b5050506005810160e0830180615393816151fc565b905061539f8184615254565b505050600681016101008301806153b5816151fc565b90506153c18184615254565b5050506007810161012083016153d78185614d3b565b6153e281838661507c565b50505050600881016101408301806153f981615121565b90506154058184615277565b5050505050565b615416828261529a565b5050565b600060408201905061542f6000830185614054565b61543c6020830184614a13565b9392505050565b600081519050615452816141f0565b92915050565b60006020828403121561546e5761546d613b81565b5b600061547c84828501615443565b91505092915050565b7f596f7520617265206e6f7420617574686f726973656420746f2063616c6c207460008201527f6869732066756e6374696f6e0000000000000000000000000000000000000000602082015250565b60006154e1602c83613c4d565b91506154ec82615485565b604082019050919050565b60006020820190508181036000830152615510816154d4565b9050919050565b60008151905061552681613b95565b92915050565b60006020828403121561554257615541613b81565b5b600061555084828501615517565b91505092915050565b7f496e73756666696369656e742024424f4f545900000000000000000000000000600082015250565b600061558f601383613c4d565b915061559a82615559565b602082019050919050565b600060208201905081810360008301526155be81615582565b9050919050565b7f546f74616c20737570706c7920696e2073686f70206c657373207468616e207160008201527f75616e74697479206e6565646564000000000000000000000000000000000000602082015250565b6000615621602e83613c4d565b915061562c826155c5565b604082019050919050565b6000602082019050818103600083015261565081615614565b9050919050565b7f4e487b7100000000000000000000000000000000000000000000000000000000600052601160045260246000fd5b600061569182613b8b565b915061569c83613b8b565b9250828210156156af576156ae615657565b5b828203905092915050565b60006040820190506156cf6000830185614a13565b6156dc6020830184614054565b9392505050565b60006156ee82613b8b565b91507fffffffffffffffffffffffffffffffffffffffffffffffffffffffffffffffff82141561572157615720615657565b5b600182019050919050565b7f4e487b7100000000000000000000000000000000000000000000000000000000600052603160045260246000fd5b600061576682613e96565b915060ff82141561577a57615779615657565b5b600182019050919050565b60008101600083016157978185614d3b565b6157a281838661507c565b505050506001810160208301806157b8816151fc565b90506157c48184615254565b5050506002810160408301806157d9816151fc565b90506157e58184615254565b5050506003810160608301806157fa816151fc565b90506158068184615254565b505050600481016080830161581b8185614d3b565b61582681838661507c565b505050505050565b6158388282615785565b5050565b600081016000830161584e8185614d3b565b61585981838661507c565b5050505060018101602083018061586f8161508c565b905061587b81846150fe565b50505060018101604083018061589081615121565b905061589c8184615184565b5050506001810160608301806158b181615121565b90506158bd81846151d9565b5050506002810160808301806158d2816151fc565b90506158de8184615254565b5050506003810160a08301806158f3816151fc565b90506158ff8184615254565b5050506004810160c0830180615914816151fc565b90506159208184615254565b5050506005810160e0830180615935816151fc565b90506159418184615254565b5050506006810161010083016159578185614d3b565b61596281838661507c565b505050506007810161012083018061597981615121565b90506159858184615277565b5050505050565b615996828261583c565b5050565b7f41646472657373206f66206f776e657220646f6573206e6f742068617665206160008201527f2076616c69642070757263686173650000000000000000000000000000000000602082015250565b60006159f6602f83613c4d565b9150615a018261599a565b604082019050919050565b60006020820190508181036000830152615a25816159e9565b9050919050565b7f746f6b656e204964206e6f7420657175616c2c20696e76616c696420696e646560008201527f782073656c656374656400000000000000000000000000000000000000000000602082015250565b6000615a88602a83613c4d565b9150615a9382615a2c565b604082019050919050565b60006020820190508181036000830152615ab781615a7b565b9050919050565b7f4f776e61626c653a206e6577206f776e657220697320746865207a65726f206160008201527f6464726573730000000000000000000000000000000000000000000000000000602082015250565b6000615b1a602683613c4d565b9150615b2582615abe565b604082019050919050565b60006020820190508181036000830152615b4981615b0d565b9050919050565b6000615b5b82613b8b565b9150615b6683613b8b565b9250817fffffffffffffffffffffffffffffffffffffffffffffffffffffffffffffffff0483118215151615615b9f57615b9e615657565b5b828202905092915050565b6000615bb582613b8b565b9150615bc083613b8b565b9250827fffffffffffffffffffffffffffffffffffffffffffffffffffffffffffffffff03821115615bf557615bf4615657565b5b828201905092915050565b6000604082019050615c156000830185614054565b615c226020830184614054565b939250505056fea26469706673582212200f18ad59599f6ed1a3fad7d6c642cfaf4ad098913f4535b84af469539ea7293864736f6c634300080a0033",
  "immutableReferences": {},
  "source": "// SPDX-License-Identifier: MIT LICENSE\r\n\r\npragma solidity ^0.8.9;\r\n\r\nimport \"@openzeppelin/contracts/access/Ownable.sol\";\r\nimport \"@openzeppelin/contracts/access/Ownable.sol\";\r\nimport \"./IBootyChest.sol\";\r\nimport \"./IBooty.sol\";\r\n// import \"./IPirateHunters.sol\";\r\nimport \"./Shared.sol\";\r\n\r\ncontract Shop is Ownable, SharedStructs {\r\n\r\n    struct Bounty {\r\n        string name;\r\n        uint8 id;\r\n        bool offensive;\r\n        bool percentage;\r\n        uint value;\r\n        uint expired; // to be specified in days\r\n        uint price;\r\n        uint supply;\r\n        string img;\r\n        bool valid; // this should not be listed for purchase if render invalid\r\n    }\r\n\r\n    struct RankUp {\r\n        string name;\r\n        uint id;\r\n        uint requireId;\r\n        uint price;\r\n        string img;\r\n    }\r\n\r\n    //    mapping(uint => HunterItem) public hunterItems;\r\n    string constant public name = \"Pirate Hunters Shop\";\r\n    string constant public symbol = \"PH_SHOP\";\r\n\r\n    PirateItem[] public pirateItems;\r\n//    mapping(uint => HunterItem) public hunterItemsMap;\r\n    mapping(address => PurchasedPirateItem[]) public pirateItemsPurchased;\r\n\r\n    Bounty[] public bounties;\r\n//    mapping(uint => Bounty) public bountiesMap;\r\n    mapping(address => Bounty[]) public bountiesPurchased;\r\n\r\n    RankUp[] public rankUps;\r\n//    mapping(uint => RankUp) public rankUpsMap;\r\n\r\n    IBootyChest public bootyChest;\r\n\r\n    IBooty public booty;\r\n\r\n    // IPirateHunters public pirateHunters;\r\n\r\n    constructor() {\r\n\r\n        // RankUp memory rp = RankUp({\r\n        //     name : \"A\",\r\n        //     id : bootyChest.RANK_A(),\r\n        //     requireId : bootyChest.RANK_B(),\r\n        //     price : 300000 ether,\r\n        //     img : ''\r\n        // });\r\n\r\n        // addRank(RankUp({\r\n        //     name : \"A\",\r\n        //     id : bootyChest.RANK_A(),\r\n        //     requireId : bootyChest.RANK_B(),\r\n        //     price : 300000 ether,\r\n        //     img : ''\r\n        // }));\r\n\r\n        // addRank(RankUp({\r\n        //     name : \"B\",\r\n        //     id : bootyChest.RANK_B(),\r\n        //     requireId : bootyChest.RANK_C(),\r\n        //     price : 450000 ether,\r\n        //     img : ''\r\n        // }));\r\n    }\r\n\r\n    function getPirateItemPrice(uint itemId, uint qty) private view returns (uint price) {\r\n        price = qty * pirateItems[itemId].price;\r\n    }\r\n\r\n    function getBountyPrice(uint itemId, uint qty) private view returns (uint price) {\r\n        price = qty * bounties[itemId].price;\r\n    }\r\n\r\n    function getRankPrice(uint itemId, uint qty) private view returns (uint price) {\r\n        price = qty * rankUps[itemId].price;\r\n    }\r\n\r\n    function purchasePirateItem(uint[] calldata tokenIds, uint itemId) external payable {\r\n        require(bootyChest.isOwnerOf(tokenIds[0], msg.sender), \"You are not authorised to call this function\");\r\n        uint totalCost = getPirateItemPrice(itemId, tokenIds.length);\r\n        require(totalCost < booty.balanceOf(msg.sender), \"Insufficient $BOOTY\");\r\n        require(pirateItems[itemId].supply >= tokenIds.length, \"Total supply in shop less than quantity needed\");\r\n\r\n        PirateItem memory item = pirateItems[itemId];\r\n        item.supply = item.supply - tokenIds.length;\r\n        pirateItems[itemId] = item;\r\n\r\n        booty.burn(msg.sender, totalCost);\r\n\r\n        for (uint i = 0; i < tokenIds.length; i++) {\r\n            purchasePirateItem(tokenIds[i], itemId);\r\n        }\r\n    }\r\n\r\n    function purchasePirateItem(uint tokenId, uint idx) private {\r\n//        require(bootyChest.isOwnerOf(tokenIds[0], msg.sender), \"You are not authorised to call this function\");\r\n//        hunterItemsPurchased[msg.sender].push(hunterItems[idx]);\r\n        uint day = 1 days;\r\n        uint expired = pirateItems[idx].expired * day;\r\n        pirateItemsPurchased[msg.sender].push(PurchasedPirateItem({\r\n            tokenId: uint16(tokenId),\r\n            itemId: uint8(idx),\r\n            time: block.timestamp,\r\n            expired: expired + block.timestamp\r\n        }));\r\n    }\r\n\r\n\r\n    function getOwnerValidPurchasedItems(address owner) external returns(PurchasedPirateItem[] memory) {\r\n        require(msg.sender == address(bootyChest), \"You are not authorised to call this function\");\r\n\r\n        for(uint8 i = 0; i< pirateItemsPurchased[owner].length; i++){\r\n//            if(block.timestamp >= hunterItemsPurchased[owner][i].expired){\r\n            if(pirateItemsPurchased[owner][i].time >= pirateItemsPurchased[owner][i].expired){\r\n                // expired and item should be removed\r\n                pirateItemsPurchased[owner][i] = pirateItemsPurchased[owner][pirateItemsPurchased[owner].length -1];\r\n                pirateItemsPurchased[owner].pop();\r\n            }\r\n        }\r\n        return pirateItemsPurchased[owner];\r\n    }\r\n\r\n    function getOwnerPurchasedItems(address owner) external view returns(PurchasedPirateItem[] memory) {\r\n        require(msg.sender == address(bootyChest), \"You are not authorised to call this function\");\r\n        return pirateItemsPurchased[owner];\r\n    }\r\n\r\n    function useOffensiveItems(uint16 tokenId, uint bootyRate, uint owed) external returns(uint){\r\n        require(msg.sender == address(bootyChest), \"You are not authorised to call this function\");\r\n        return owed;\r\n    }\r\n    function useDefensiveItems(uint16 tokenId, uint tax) external returns(uint){\r\n        require(msg.sender == address(bootyChest), \"You are not authorised to call this function\");\r\n        return tax;\r\n    }\r\n\r\n    function estOffensiveItems(uint16 tokenId, uint bootyRate, uint owed) external view returns(uint){\r\n        require(msg.sender == address(bootyChest), \"You are not authorised to call this function\");\r\n        return owed;\r\n    }\r\n    function estDefensiveItems(uint16 tokenId, uint tax) external view returns(uint){\r\n        require(msg.sender == address(bootyChest), \"You are not authorised to call this function\");\r\n        return tax;\r\n    }\r\n\r\n    function usePirateItem(address owner, uint16 idx, uint16 tokenId) external returns(PirateItem memory) {\r\n        require(msg.sender == address(bootyChest), \"You are not authorised to call this function\");\r\n//        bootyChest.isOwnerOf()\r\n        PurchasedPirateItem memory item = pirateItemsPurchased[owner][idx];\r\n        require(item.expired == 0 , \"Address of owner does not have a valid purchase\");\r\n        require(item.tokenId == tokenId , \"token Id not equal, invalid index selected\");\r\n        PirateItem memory pirateItem = pirateItems[item.itemId];\r\n\r\n        // Check if item is expired then remove item from purchased and return\r\n        if(block.timestamp >= item.expired  && item.time >= item.expired){\r\n            // expired but can't remove to avoid inconsistency in indexing\r\n\r\n            pirateItem.value = 0;\r\n            pirateItem.expired = 0; // represents days(time) that can be claim from last time item was use till now\r\n            //reject(\"item expired\");\r\n            return pirateItem;\r\n        }\r\n\r\n        // calculate time difference from last time used used\r\n        uint current = block.timestamp;\r\n        uint diff = item.expired < current ? item.expired - item.time : current - item.time; // (now - lastTime used or purchased) or (expired - lastTime if expired)\r\n        // set time in hunter item to number of days or time it can be use in increasing or decreasing rate\r\n        pirateItem.expired = diff; // using this to pass time diff to bootychest to use\r\n\r\n        // Set the new time it was used as time\r\n        pirateItemsPurchased[owner][idx].time = current;\r\n\r\n        return pirateItem;\r\n    }\r\n\r\n\r\n    // function possibleRewardOnPirateItem(address owner, uint16 idx, uint16 tokenId) external view returns(PirateItem memory) {\r\n    //     require(msg.sender == address(bootyChest), \"You are not authorised to call this function\");\r\n    //     //        bootyChest.isOwnerOf()\r\n    //     PurchasedPirateItem memory item = pirateItemsPurchased[owner][idx];\r\n    //     require(item.expired == 0 , \"Address of owner does not have a valid purchase\");\r\n    //     require(item.tokenId == tokenId , \"token Id not equal, invalid index selected\");\r\n    //     PirateItem memory pirateItem = pirateItems[item.itemId];\r\n\r\n    //     // Check if item is expired then remove item from purchased and return\r\n    //     if(block.timestamp >= item.expired  && item.time >= item.expired){\r\n    //         // expired but can't remove to avoid inconsistency in indexing\r\n\r\n    //         pirateItem.value = 0;\r\n    //         pirateItem.expired = 0; // represents days(time) that can be claim from last time item was use till now\r\n    //         //reject(\"item expired\");\r\n    //         return pirateItem;\r\n    //     }\r\n\r\n    //     // calculate time difference from last time used used\r\n    //     uint current = block.timestamp;\r\n    //     uint diff = item.expired < current ? item.expired - item.time : current - item.time; // (now - lastTime used or purchased) or (expired - lastTime if expired)\r\n    //     // set time in hunter item to number of days or time it can be use in increasing or decreasing rate\r\n    //     pirateItem.expired = diff; // using this to pass time diff to bootychest to use\r\n\r\n    //     return pirateItem;\r\n    // }\r\n\r\n    function purchaseBounty(uint[] calldata tokenIds, uint itemId) external payable {\r\n\r\n    }\r\n\r\n    function purchaseRank(uint[] calldata tokenIds, uint itemId) external payable {\r\n        require(bootyChest.isOwnerOf(tokenIds[0], msg.sender), \"You are not authorised to call this function\");\r\n        uint totalCost = getRankPrice(itemId, tokenIds.length);\r\n        require(totalCost < booty.balanceOf(msg.sender), \"Insufficient $BOOTY\");\r\n        booty.burn(msg.sender, totalCost);\r\n\r\n        for (uint i = 0; i < tokenIds.length; i++) {\r\n            purchaseRank(tokenIds[i], itemId);\r\n        }\r\n    }\r\n\r\n    function purchaseRank(uint tokenId, uint idx) private {\r\n        //        require(bootyChest.isOwnerOf(tokenIds[0], msg.sender), \"You are not authorised to call this function\");\r\n        //TODO: check if has required rank\r\n        bootyChest.effectRankUp(tokenId, idx);\r\n    }\r\n\r\n    function deleteExpiredBounty(address owner) external {\r\n\r\n    }\r\n\r\n    /// add PirateItem. ItemId should be their index in the array\r\n    function addPirateItem(PirateItem memory _item) external onlyOwner {\r\n        uint8 idx = uint8(pirateItems.length);\r\n        _item.id = idx;\r\n        pirateItems.push(_item);\r\n    }\r\n\r\n    function deletePirateItem(uint _idx) external onlyOwner {\r\n        PirateItem memory item = pirateItems[_idx];\r\n        item.valid = false;\r\n        pirateItems[_idx] = item;\r\n    }\r\n\r\n    function replaceHunterItem(uint _idx, PirateItem calldata _item) external onlyOwner {\r\n        pirateItems[_idx] = _item;\r\n    }\r\n\r\n    function addBounty(Bounty memory _item) external onlyOwner {\r\n        uint8 idx = uint8(bounties.length);\r\n        _item.id = idx;\r\n        bounties.push(_item);\r\n    }\r\n\r\n    function deleteBounty(uint _idx) external onlyOwner {\r\n        Bounty memory bounty = bounties[_idx];//lastItem;\r\n        bounty.valid = false;\r\n        bounties[_idx] = bounty;\r\n    }\r\n\r\n    function replaceBounty(uint _idx, Bounty calldata _item) external onlyOwner {\r\n        bounties[_idx] = _item;\r\n    }\r\n\r\n    function setBootyChest(address _iBootyChest) external onlyOwner {\r\n        bootyChest = IBootyChest(_iBootyChest);\r\n    }\r\n\r\n    function setBooty(address _iBooty) external onlyOwner {\r\n        booty = IBooty(_iBooty);\r\n    }\r\n\r\n    function addRank(RankUp memory _item) external onlyOwner {\r\n        uint idx = rankUps.length;\r\n        _item.id = idx;\r\n        rankUps.push(_item);\r\n    }\r\n\r\n    function replaceRank(uint _idx, RankUp calldata _item) external onlyOwner {\r\n        rankUps[_idx] = _item;\r\n    }\r\n\r\n}\r\n",
  "sourcePath": "E:\\work\\Blockchain\\review-code\\contract\\piratehunternftsolidity\\contracts\\Shop.sol",
  "compiler": {
    "name": "solc",
    "version": "0.8.10+commit.fc410830.Emscripten.clang"
  },
  "schemaVersion": "3.4.3",
  "updatedAt": "2021-12-30T00:56:38.862Z",
  "devdoc": {
    "kind": "dev",
    "methods": {
      "owner()": {
        "details": "Returns the address of the current owner."
      },
      "renounceOwnership()": {
        "details": "Leaves the contract without owner. It will not be possible to call `onlyOwner` functions anymore. Can only be called by the current owner. NOTE: Renouncing ownership will leave the contract without an owner, thereby removing any functionality that is only available to the owner."
      },
      "transferOwnership(address)": {
        "details": "Transfers ownership of the contract to a new account (`newOwner`). Can only be called by the current owner."
      }
    },
    "version": 1
  },
  "userdoc": {
    "kind": "user",
    "methods": {
      "addPirateItem((string,uint8,bool,bool,uint256,uint256,uint256,uint256,uint256,string,bool))": {
        "notice": "add PirateItem. ItemId should be their index in the array"
      }
    },
    "version": 1
  }
}