{
  "contractName": "Utils",
  "abi": [
    {
      "inputs": [],
      "stateMutability": "nonpayable",
      "type": "constructor"
    },
    {
      "anonymous": false,
      "inputs": [
        {
          "indexed": true,
          "internalType": "address",
          "name": "previousOwner",
          "type": "address"
        },
        {
          "indexed": true,
          "internalType": "address",
          "name": "newOwner",
          "type": "address"
        }
      ],
      "name": "OwnershipTransferred",
      "type": "event"
    },
    {
      "inputs": [
        {
          "internalType": "address",
          "name": "",
          "type": "address"
        }
      ],
      "name": "controllers",
      "outputs": [
        {
          "internalType": "bool",
          "name": "",
          "type": "bool"
        }
      ],
      "stateMutability": "view",
      "type": "function"
    },
    {
      "inputs": [],
      "name": "owner",
      "outputs": [
        {
          "internalType": "address",
          "name": "",
          "type": "address"
        }
      ],
      "stateMutability": "view",
      "type": "function"
    },
    {
      "inputs": [],
      "name": "renounceOwnership",
      "outputs": [],
      "stateMutability": "nonpayable",
      "type": "function"
    },
    {
      "inputs": [
        {
          "internalType": "address",
          "name": "newOwner",
          "type": "address"
        }
      ],
      "name": "transferOwnership",
      "outputs": [],
      "stateMutability": "nonpayable",
      "type": "function"
    },
    {
      "inputs": [],
      "name": "updateRandomIndex",
      "outputs": [],
      "stateMutability": "nonpayable",
      "type": "function"
    },
    {
      "inputs": [
        {
          "internalType": "uint256",
          "name": "_seed",
          "type": "uint256"
        },
        {
          "internalType": "uint256",
          "name": "_limit",
          "type": "uint256"
        }
      ],
      "name": "getSomeRandomNumber",
      "outputs": [
        {
          "internalType": "uint16",
          "name": "",
          "type": "uint16"
        }
      ],
      "stateMutability": "view",
      "type": "function"
    },
    {
      "inputs": [
        {
          "internalType": "uint256",
          "name": "_id",
          "type": "uint256"
        },
        {
          "internalType": "address",
          "name": "_address",
          "type": "address"
        }
      ],
      "name": "changeRandomSource",
      "outputs": [],
      "stateMutability": "nonpayable",
      "type": "function"
    },
    {
      "inputs": [
        {
          "internalType": "uint256",
          "name": "_seed",
          "type": "uint256"
        },
        {
          "internalType": "uint256",
          "name": "_max",
          "type": "uint256"
        }
      ],
      "name": "shuffleSeeds",
      "outputs": [],
      "stateMutability": "nonpayable",
      "type": "function"
    },
    {
      "inputs": [
        {
          "internalType": "address",
          "name": "controller",
          "type": "address"
        }
      ],
      "name": "addController",
      "outputs": [],
      "stateMutability": "nonpayable",
      "type": "function"
    },
    {
      "inputs": [
        {
          "internalType": "address",
          "name": "controller",
          "type": "address"
        }
      ],
      "name": "removeController",
      "outputs": [],
      "stateMutability": "nonpayable",
      "type": "function"
    }
  ],
  "bytecode": "0x60806040526000600360006101000a81548161ffff021916908361ffff160217905550600060045534801561003357600080fd5b5061005061004561032560201b60201c565b61032d60201b60201c565b73c02aaa39b223fe8d0a0e5c4f27ead9083c756cc26002600080815260200190815260200160002060006101000a81548173ffffffffffffffffffffffffffffffffffffffff021916908373ffffffffffffffffffffffffffffffffffffffff160217905550733cd751e6b0078be393132286c442345e5dc49699600260006001815260200190815260200160002060006101000a81548173ffffffffffffffffffffffffffffffffffffffff021916908373ffffffffffffffffffffffffffffffffffffffff16021790555073b5d85cbf7cb3ee0d56b3bb207d5fc4b82f43f511600260006002815260200190815260200160002060006101000a81548173ffffffffffffffffffffffffffffffffffffffff021916908373ffffffffffffffffffffffffffffffffffffffff16021790555073c098b2a3aa256d2140208c3de6543aaef5cd3a94600260006003815260200190815260200160002060006101000a81548173ffffffffffffffffffffffffffffffffffffffff021916908373ffffffffffffffffffffffffffffffffffffffff1602179055507328c6c06298d514db089934071355e5743bf21d60600260006004815260200190815260200160002060006101000a81548173ffffffffffffffffffffffffffffffffffffffff021916908373ffffffffffffffffffffffffffffffffffffffff160217905550732faf487a4414fe77e2327f0bf4ae2a264a776ad2600260006005815260200190815260200160002060006101000a81548173ffffffffffffffffffffffffffffffffffffffff021916908373ffffffffffffffffffffffffffffffffffffffff16021790555073267be1c1d684f78cb4f6a176c4911b741e4ffdc0600260006006815260200190815260200160002060006101000a81548173ffffffffffffffffffffffffffffffffffffffff021916908373ffffffffffffffffffffffffffffffffffffffff1602179055506103f1565b600033905090565b60008060009054906101000a900473ffffffffffffffffffffffffffffffffffffffff169050816000806101000a81548173ffffffffffffffffffffffffffffffffffffffff021916908373ffffffffffffffffffffffffffffffffffffffff1602179055508173ffffffffffffffffffffffffffffffffffffffff168173ffffffffffffffffffffffffffffffffffffffff167f8be0079c531659141344cd1fd0a4f28419497f9722a3daafe3b4186f6b6457e060405160405180910390a35050565b6111b1806104006000396000f3fe608060405234801561001057600080fd5b506004361061009e5760003560e01c8063a7fc7a0711610066578063a7fc7a0714610121578063ac28dbf11461013d578063da8c229e14610159578063f2fde38b14610189578063f6a74ed7146101a55761009e565b80633dce18b6146100a3578063715018a6146100d35780638b21dc3c146100dd5780638da5cb5b146100e757806392b2422914610105575b600080fd5b6100bd60048036038101906100b89190610b01565b6101c1565b6040516100ca9190610b5e565b60405180910390f35b6100db610387565b005b6100e561040f565b005b6100ef610563565b6040516100fc9190610bba565b60405180910390f35b61011f600480360381019061011a9190610b01565b61058c565b005b61013b60048036038101906101369190610c01565b610663565b005b61015760048036038101906101529190610c2e565b610739565b005b610173600480360381019061016e9190610c01565b61080b565b6040516101809190610c89565b60405180910390f35b6101a3600480360381019061019e9190610c01565b61082b565b005b6101bf60048036038101906101ba9190610c01565b610923565b005b6000600160003373ffffffffffffffffffffffffffffffffffffffff1673ffffffffffffffffffffffffffffffffffffffff16815260200190815260200160002060009054906101000a900460ff168061024657503073ffffffffffffffffffffffffffffffffffffffff163373ffffffffffffffffffffffffffffffffffffffff16145b610285576040517f08c379a000000000000000000000000000000000000000000000000000000000815260040161027c90610d01565b60405180910390fd5b6000805b60078161ffff1610156103155760026000600360009054906101000a900461ffff1661ffff16815260200190815260200160002060009054906101000a900473ffffffffffffffffffffffffffffffffffffffff1673ffffffffffffffffffffffffffffffffffffffff1631826103009190610d50565b9150808061030d90610da6565b915050610289565b506000846001436103269190610dd1565b4041443386600454600360009054906101000a900461ffff16604051602001610356989796959493929190610f0a565b6040516020818303038152906040528051906020012060001c9050838161037d9190610fcb565b9250505092915050565b61038f6109fa565b73ffffffffffffffffffffffffffffffffffffffff166103ad610563565b73ffffffffffffffffffffffffffffffffffffffff1614610403576040517f08c379a00000000000000000000000000000000000000000000000000000000081526004016103fa90611048565b60405180910390fd5b61040d6000610a02565b565b600160003373ffffffffffffffffffffffffffffffffffffffff1673ffffffffffffffffffffffffffffffffffffffff16815260200190815260200160002060009054906101000a900460ff168061049257503073ffffffffffffffffffffffffffffffffffffffff163373ffffffffffffffffffffffffffffffffffffffff16145b6104d1576040517f08c379a00000000000000000000000000000000000000000000000000000000081526004016104c890610d01565b60405180910390fd5b6001600360008282829054906101000a900461ffff166104f19190611068565b92506101000a81548161ffff021916908361ffff16021790555060016004600082825461051e9190610d50565b925050819055506006600360009054906101000a900461ffff1661ffff161115610561576000600360006101000a81548161ffff021916908361ffff1602179055505b565b60008060009054906101000a900473ffffffffffffffffffffffffffffffffffffffff16905090565b6105946109fa565b73ffffffffffffffffffffffffffffffffffffffff166105b2610563565b73ffffffffffffffffffffffffffffffffffffffff1614610608576040517f08c379a00000000000000000000000000000000000000000000000000000000081526004016105ff90611048565b60405180910390fd5b600061061483836101c1565b61ffff16905080600360006101000a81548161ffff021916908361ffff16021790555060005b8181101561065d5761064a61040f565b8080610655906110a0565b91505061063a565b50505050565b61066b6109fa565b73ffffffffffffffffffffffffffffffffffffffff16610689610563565b73ffffffffffffffffffffffffffffffffffffffff16146106df576040517f08c379a00000000000000000000000000000000000000000000000000000000081526004016106d690611048565b60405180910390fd5b60018060008373ffffffffffffffffffffffffffffffffffffffff1673ffffffffffffffffffffffffffffffffffffffff16815260200190815260200160002060006101000a81548160ff02191690831515021790555050565b6107416109fa565b73ffffffffffffffffffffffffffffffffffffffff1661075f610563565b73ffffffffffffffffffffffffffffffffffffffff16146107b5576040517f08c379a00000000000000000000000000000000000000000000000000000000081526004016107ac90611048565b60405180910390fd5b806002600084815260200190815260200160002060006101000a81548173ffffffffffffffffffffffffffffffffffffffff021916908373ffffffffffffffffffffffffffffffffffffffff1602179055505050565b60016020528060005260406000206000915054906101000a900460ff1681565b6108336109fa565b73ffffffffffffffffffffffffffffffffffffffff16610851610563565b73ffffffffffffffffffffffffffffffffffffffff16146108a7576040517f08c379a000000000000000000000000000000000000000000000000000000000815260040161089e90611048565b60405180910390fd5b600073ffffffffffffffffffffffffffffffffffffffff168173ffffffffffffffffffffffffffffffffffffffff161415610917576040517f08c379a000000000000000000000000000000000000000000000000000000000815260040161090e9061115b565b60405180910390fd5b61092081610a02565b50565b61092b6109fa565b73ffffffffffffffffffffffffffffffffffffffff16610949610563565b73ffffffffffffffffffffffffffffffffffffffff161461099f576040517f08c379a000000000000000000000000000000000000000000000000000000000815260040161099690611048565b60405180910390fd5b6000600160008373ffffffffffffffffffffffffffffffffffffffff1673ffffffffffffffffffffffffffffffffffffffff16815260200190815260200160002060006101000a81548160ff02191690831515021790555050565b600033905090565b60008060009054906101000a900473ffffffffffffffffffffffffffffffffffffffff169050816000806101000a81548173ffffffffffffffffffffffffffffffffffffffff021916908373ffffffffffffffffffffffffffffffffffffffff1602179055508173ffffffffffffffffffffffffffffffffffffffff168173ffffffffffffffffffffffffffffffffffffffff167f8be0079c531659141344cd1fd0a4f28419497f9722a3daafe3b4186f6b6457e060405160405180910390a35050565b600080fd5b6000819050919050565b610ade81610acb565b8114610ae957600080fd5b50565b600081359050610afb81610ad5565b92915050565b60008060408385031215610b1857610b17610ac6565b5b6000610b2685828601610aec565b9250506020610b3785828601610aec565b9150509250929050565b600061ffff82169050919050565b610b5881610b41565b82525050565b6000602082019050610b736000830184610b4f565b92915050565b600073ffffffffffffffffffffffffffffffffffffffff82169050919050565b6000610ba482610b79565b9050919050565b610bb481610b99565b82525050565b6000602082019050610bcf6000830184610bab565b92915050565b610bde81610b99565b8114610be957600080fd5b50565b600081359050610bfb81610bd5565b92915050565b600060208284031215610c1757610c16610ac6565b5b6000610c2584828501610bec565b91505092915050565b60008060408385031215610c4557610c44610ac6565b5b6000610c5385828601610aec565b9250506020610c6485828601610bec565b9150509250929050565b60008115159050919050565b610c8381610c6e565b82525050565b6000602082019050610c9e6000830184610c7a565b92915050565b600082825260208201905092915050565b7f4f6e6c7920636f6e74726f6c6c6572732063616e206275726e00000000000000600082015250565b6000610ceb601983610ca4565b9150610cf682610cb5565b602082019050919050565b60006020820190508181036000830152610d1a81610cde565b9050919050565b7f4e487b7100000000000000000000000000000000000000000000000000000000600052601160045260246000fd5b6000610d5b82610acb565b9150610d6683610acb565b9250827fffffffffffffffffffffffffffffffffffffffffffffffffffffffffffffffff03821115610d9b57610d9a610d21565b5b828201905092915050565b6000610db182610b41565b915061ffff821415610dc657610dc5610d21565b5b600182019050919050565b6000610ddc82610acb565b9150610de783610acb565b925082821015610dfa57610df9610d21565b5b828203905092915050565b6000819050919050565b610e20610e1b82610acb565b610e05565b82525050565b6000819050919050565b6000819050919050565b610e4b610e4682610e26565b610e30565b82525050565b6000610e5c82610b79565b9050919050565b60008160601b9050919050565b6000610e7b82610e63565b9050919050565b6000610e8d82610e70565b9050919050565b610ea5610ea082610e51565b610e82565b82525050565b6000610eb682610e70565b9050919050565b610ece610ec982610b99565b610eab565b82525050565b60008160f01b9050919050565b6000610eec82610ed4565b9050919050565b610f04610eff82610b41565b610ee1565b82525050565b6000610f16828b610e0f565b602082019150610f26828a610e3a565b602082019150610f368289610e94565b601482019150610f468288610e0f565b602082019150610f568287610ebd565b601482019150610f668286610e0f565b602082019150610f768285610e0f565b602082019150610f868284610ef3565b6002820191508190509998505050505050505050565b7f4e487b7100000000000000000000000000000000000000000000000000000000600052601260045260246000fd5b6000610fd682610acb565b9150610fe183610acb565b925082610ff157610ff0610f9c565b5b828206905092915050565b7f4f776e61626c653a2063616c6c6572206973206e6f7420746865206f776e6572600082015250565b6000611032602083610ca4565b915061103d82610ffc565b602082019050919050565b6000602082019050818103600083015261106181611025565b9050919050565b600061107382610b41565b915061107e83610b41565b92508261ffff0382111561109557611094610d21565b5b828201905092915050565b60006110ab82610acb565b91507fffffffffffffffffffffffffffffffffffffffffffffffffffffffffffffffff8214156110de576110dd610d21565b5b600182019050919050565b7f4f776e61626c653a206e6577206f776e657220697320746865207a65726f206160008201527f6464726573730000000000000000000000000000000000000000000000000000602082015250565b6000611145602683610ca4565b9150611150826110e9565b604082019050919050565b6000602082019050818103600083015261117481611138565b905091905056fea2646970667358221220642bb4cfc023aaa3734215fd898a3df1c1daef26571573d7553f37f2144fec5a64736f6c634300080a0033",
  "immutableReferences": {},
  "source": "// SPDX-License-Identifier: MIT LICENSE\r\n\r\npragma solidity ^0.8.9;\r\n\r\nimport \"@openzeppelin/contracts/access/Ownable.sol\";\r\n\r\n/**\r\n* Some util functions\r\n*/\r\ncontract Utils is Ownable {\r\n\r\n    mapping(address => bool) public controllers;\r\n    mapping(uint => address) private _randomSource;\r\n    uint16 private _randomIndex = 0;\r\n    uint private _randomCalls = 0;\r\n\r\n    constructor() {\r\n        // Fill random source addresses\r\n        _randomSource[0] = 0xC02aaA39b223FE8D0A0e5C4F27eAD9083C756Cc2;\r\n        _randomSource[1] = 0x3cD751E6b0078Be393132286c442345e5DC49699;\r\n        _randomSource[2] = 0xb5d85CBf7cB3EE0D56b3bB207D5Fc4B82f43F511;\r\n        _randomSource[3] = 0xC098B2a3Aa256D2140208C3de6543aAEf5cd3A94;\r\n        _randomSource[4] = 0x28C6c06298d514Db089934071355E5743bf21d60;\r\n        _randomSource[5] = 0x2FAF487A4414Fe77e2327F0bf4AE2a264a776AD2;\r\n        _randomSource[6] = 0x267be1C1D684F78cb4F6a176C4911b741E4Ffdc0;\r\n    }\r\n\r\n\r\n    function updateRandomIndex() public {\r\n        require(controllers[msg.sender] || msg.sender == address(this), \"Only controllers can burn\");\r\n        _randomIndex += 1;\r\n        _randomCalls += 1;\r\n        if (_randomIndex > 6) _randomIndex = 0;\r\n    }\r\n\r\n    function getSomeRandomNumber(uint _seed, uint _limit) public view returns (uint16) {\r\n        require(controllers[msg.sender] || msg.sender == address(this), \"Only controllers can burn\");\r\n        uint extra = 0;\r\n        for (uint16 i = 0; i < 7; i++) {\r\n            extra += _randomSource[_randomIndex].balance;\r\n        }\r\n\r\n        uint random = uint(\r\n            keccak256(\r\n                abi.encodePacked(\r\n                    _seed,\r\n                    blockhash(block.number - 1),\r\n                    block.coinbase,\r\n                    block.difficulty,\r\n                    msg.sender,\r\n                    extra,\r\n                    _randomCalls,\r\n                    _randomIndex\r\n                )\r\n            )\r\n        );\r\n\r\n        return uint16(random % _limit);\r\n    }\r\n\r\n    function changeRandomSource(uint _id, address _address) external onlyOwner {\r\n        _randomSource[_id] = _address;\r\n    }\r\n\r\n    function shuffleSeeds(uint _seed, uint _max) external onlyOwner {\r\n        uint shuffleCount = getSomeRandomNumber(_seed, _max);\r\n        _randomIndex = uint16(shuffleCount);\r\n        for (uint i = 0; i < shuffleCount; i++) {\r\n            updateRandomIndex();\r\n        }\r\n    }\r\n\r\n    function addController(address controller) external onlyOwner {\r\n        controllers[controller] = true;\r\n    }\r\n\r\n    function removeController(address controller) external onlyOwner {\r\n        controllers[controller] = false;\r\n    }\r\n}\r\n",
  "sourcePath": "E:\\work\\Blockchain\\review-code\\contract\\piratehunternftsolidity\\contracts\\Utils.sol",
  "compiler": {
    "name": "solc",
    "version": "0.8.10+commit.fc410830.Emscripten.clang"
  },
  "schemaVersion": "3.4.3",
  "updatedAt": "2021-12-30T00:56:38.939Z",
  "devdoc": {
    "kind": "dev",
    "methods": {
      "owner()": {
        "details": "Returns the address of the current owner."
      },
      "renounceOwnership()": {
        "details": "Leaves the contract without owner. It will not be possible to call `onlyOwner` functions anymore. Can only be called by the current owner. NOTE: Renouncing ownership will leave the contract without an owner, thereby removing any functionality that is only available to the owner."
      },
      "transferOwnership(address)": {
        "details": "Transfers ownership of the contract to a new account (`newOwner`). Can only be called by the current owner."
      }
    },
    "version": 1
  },
  "userdoc": {
    "kind": "user",
    "methods": {},
    "notice": "Some util functions",
    "version": 1
  }
}